:020000040800F2
:10000000581F002075EB0008F352000857570008EE
:1000100000000000000000000000000000000000E0
:10002000000000000000000000000000BB650008A8
:100030000000000000000000FB93000839CB00081E
:10004000B7A500086FA8000803AA000807AA0008BF
:10005000F3AE00088BB7000843BA0008A5CC00082F
:10006000CBC1000823EB00082FEB0008B9EB000818
:10007000BBEB0008BDEB0008BFEB0008C1EB0008BC
:1000800023B60008C3EB0008C5EB00080000000021
:10009000C7EB0008C9EB0008CBEB0008CDEB00086C
:1000A000CFEB0008D1EB0008D3EB0008B9D3000870
:1000B000D5EB0008D7EB000800000000D9EB0008E2
:10400000581F002075EB0008F352000857570008AE
:1040100000000000000000000000000000000000A0
:10402000000000000000000000000000BB65000868
:104030000000000000000000FB93000839CB0008DE
:10404000B7A500086FA8000803AA000807AA00087F
:10405000F3AE00088BB7000843BA0008A5CC0008EF
:10406000CBC1000823EB00082FEB0008B9EB0008D8
:10407000BBEB0008BDEB0008BFEB0008C1EB00087C
:1040800023B60008C3EB0008C5EB000800000000E1
:10409000C7EB0008C9EB0008CBEB0008CDEB00082C
:1040A000CFEB0008D1EB0008D3EB0008B9D3000830
:1040B000D5EB0008D7EB000800000000D9EB0008A2
:1040D00000000000000000000000000000000000E0
:1040E000323331393030313100000000000000003F
:1040F00030302E30302E3031000000000000000043
:1041000030312E30302E303400000000000000002E
:1041100023190011FBD96101010004009F490870B7
:10412000704780B57E480088002804D07C4800880D
:10413000401E7B4908807A480088002806D19748AD
:104140000078032802D00020FFF7E8FF01BD944863
:104150000078704710B5934802789249924C20003D
:1041600001F0C8F810BD10B58F4802788E498F4C09
:10417000200001F0BFF810BD10B507228C498D4812
:104180000468200001F0B6F88B4800788949096876
:10419000087089484078874909684870864880785F
:1041A0008449096888707F48007A08388349087014
:1041B00082480078142809DA804802788049B64895
:1041C0000468200001F096F8012000E0002010BDF6
:1041D000704710B5072277480168B04C200001F005
:1041E00089F810BD00B56F480079AD490870AC483A
:1041F00000780C2801DB002000E0012000BD00B5A4
:10420000002000E0401CC0B20C280EDAA549C0B264
:10421000022242438A18117853781B061B0C19435B
:1042200089B20029EED0002000E0012000BD10B5C9
:1042300004009D4800782100C9B2884204D0E4B24D
:10424000002C01D101F0D7F99748047010BD80B55A
:1042500095480078012802D10020FFF7E8FF924836
:104260000078012801D1002057E08F48007800280D
:104270002CD18C488A490978022251434118087888
:104280004A781206120C104380B28849884201D144
:10429000012042E001F08AF9012809D1844803781D
:1042A000A4480278BC480178E52001F055FA0BE0FB
:1042B0000220FFF7BCFF7E4803789E480278B6488C
:1042C0000178E02001F048FA002026E076480078E6
:1042D000401C7549087098480078801C724909781C
:1042E00088420EDB6F486E4909780222514341181B
:1042F00008784A781206120C104380B26B49884243
:1043000001D1012009E06A4803788A480278A2486E
:104310000178E02001F020FA002002BD000000003A
:10432000E20E002010B51F48017A401804000B343B
:10433000FFF758FF012803D0142001F07EFA2CE08B
:10434000FFF71AFF012825D1FFF704FFFFF740FF11
:1043500018480068007980210143164800680171FF
:10436000A078C006C00E8C490870A078C0B2400981
:1043700070490870E0784E4908704D4803786D48E0
:10438000027885480178E02001F0E6F90220FFF785
:104390004EFF02E0112001F050FA10BD490F00203D
:1043A0004B0F00204C0A00209C0A0020FC09002032
:1043B000550A0020300E0020000E0020F00E0020D4
:1043C0005C0A002038B59E480400093406229D4945
:1043D0009D480568280000F08DFF9C48007835282E
:1043E00021D09B48C078984909680870984800799E
:1043F0009549096848709248C07A8006800E3F2827
:1044000005D1934840799049096888700BE090483D
:104410004079C02101408A48C07A8006800E081881
:104420008949096888708648007AC01F89490870E0
:104430008848007815282ADA86480278864987480D
:104440000568280000F056FF7F4800684079C0B238
:10445000C0080100C907C90F814801704021814887
:10446000A2789206920E805CC0B2002803D17E48EA
:10447000C04A108002E07D48BE4A108000200090B3
:1044800001230222C9B2012001F03DFC02E011200B
:1044900001F0D3F931BD0000280E0020050A0020EC
:1044A0003D0F00208C0C00204C0F0020FFFF00006F
:1044B0004F0F002010B507226249634804682000AE
:1044C00000F018FF6148007835280ED06048007869
:1044D0005D49096808705E4840785B490968487022
:1044E0005B4880785849096888705548007A0838D0
:1044F0005849087057480078142816DA5548027849
:104500009D499E480468200000F0F4FE4C48407924
:104510009B490870FFF71BFE02214843401C994944
:104520000870002001F0F0FC02E0112001F085F994
:1045300010BD00004E0F00204A0F002010B540486B
:10454000017A401804000B34FFF74CFE012803D019
:10455000142001F072F91EE0FFF70EFE012817D1BA
:10456000FFF7F8FDFFF734FE374800680079802137
:104570000143354800680171E378A0780200D2B2A7
:104580005209A078C106C90E207A01F0E5F802E0D0
:10459000112001F052F910BD4D0F002010B5284830
:1045A000017A401804000B34FFF71CFE012803D0E9
:1045B000142001F042F942E0FFF7DEFD01283BD173
:1045C000FFF7C8FDFFF704FE01F0DCFC0200A07855
:1045D000E1780906090C08432179C9B2C9080B0022
:1045E000DB07DB0F024092B2A179607901F023FE74
:1045F00065480088002822D0644800784007400FB2
:1046000000281CD0200009300021C9B25F4A12786E
:10461000D2B21209D2B2521C914210DABA4AC9B2CD
:1046200002234B43D218C9B202234B43C35A13701F
:104630001B0A5370491CE8E7112001F0FEF810BD79
:104640004C0A0020550A0020300E00203B0F0020AD
:10465000000E0020F00E00205B0A00202C0E00202F
:10466000F10E002084E90008B4B400009A9A00001A
:1046700038B5A648017A401804000B34FFF7B2FDA4
:10468000012803D0142001F0D8F872E0FFF774FD80
:1046900001286BD1FFF75EFDFFF79AFD2079C0B2CC
:1046A00080080300DB07DB0FE0780207120FA17917
:1046B000607901F01BFE20798007800F944909780A
:1046C000FC220A408007800F10439149087020792E
:1046D000C0B2C0088E4909784907490FC000084395
:1046E0008B4908708A4800788007800F002811D015
:1046F000E41D002005E0C0B2215C834AC0B2115421
:10470000401CC0B282490978C9B2C908C9B2491C63
:104710008842F0DB6079E5282BD1FFF724FDFFF715
:1047200058FD7C4C207A201805000B3501F09AFECC
:104730000620607001F026FC2870000A6870207A5C
:1047400020180400083401F01DFC6070000AA070FD
:10475000704801786F4801F031F86E48027892B2E3
:104760006C490020B54B1B68984702E0112001F00E
:1047700064F831BDE00E00205C0A0020280E002005
:104780004B0F0020180F0020C20E0020310F002018
:1047900038B55E48017A40180500083507225E49A1
:1047A000A7480468200000F0A5FDA6480078352839
:1047B0000ED0A5480078A24909680870A248407840
:1047C0009F4909684870A04880789D4909688870A9
:1047D0004E48007A08389D4908709C480078142893
:1047E00000DB8DE09948027899499A4804682000D6
:1047F00000F080FDA878FF283FD1E878FF283CD161
:104800002879FF2839D140242878C0B2C009C0B225
:1048100000280DD1E4B2402C63D08F48E4B20921C6
:1048200061434018C079C0B20009C0B2052858D110
:104830006878C0B280090100C907C90F002901D0FA
:1048400002F06CF86878C0B2C009C0B200280DD17F
:10485000E4B2402C33D08048E4B2092161434018CF
:10486000C079C0B20009C0B2052828D1E4B2402CFA
:1048700010D17A48C649088012E02A79E978A878E8
:1048800002F0CEFD0400E4B2402CBDD10F2000F0B8
:10489000D4FF38E02000C0B202F0E4FABC4908803E
:1048A0000020009002232878C0B2C0080200D2077E
:1048B000D20F2100C9B2002001F025FA23E0674899
:1048C000B34908800020009001232878C0B2C008B6
:1048D0000200D207D20F2100C9B2002001F013FA62
:1048E00011E00020009000232878C0B2C008020028
:1048F000D207D20F2100C9B2002001F004FA02E071
:10490000112000F09AFF31BD280D00204C0A002034
:104910001D0F0020FC090020550A00207CB59D4891
:10492000017A41180C0008340500093506229A491D
:1049300043480668300000F0DDFC42480078352826
:1049400021D04148C0783E49096808703E48007946
:104950003B49096848708F48C07A8006800E3F281E
:1049600005D1394840793649096888700BE03648E6
:104970004079C02101408748C07A8006800E08181F
:104980002F49096888708348007AC01F2F49087032
:104990002E48007815284DDA2C4802789749984817
:1049A0000668300000F0A6FC254800684079C0B2D7
:1049B000C0080100C907C90F92480170A078FF28FC
:1049C00012D1E078FF280FD12079FF280CD14020A8
:1049D0008D49AA789206920E895CC9B200290FD13E
:1049E0008A496B4A11800EE02279E178A07802F0C2
:1049F00017FDC0B24028EBD10F2000F01EFF1CE0D5
:104A00008349634A11806178C9B289080A00D207D4
:104A1000D20F009221780B00DBB2DB092178C9B2FA
:104A2000C9080A00D207D20F0100C9B2012001F063
:104A30006AF902E0112000F000FF73BD5C0E002057
:104A4000300E00203B0F0020000E0020F00E002052
:104A50005C0A0020280E00203C060020744700005D
:104A6000FEB54C4C207A201806000836751DFFF75D
:104A700083FB012800D086E0A8480078352806D1BD
:104A800003224549A6480768380000F033FC207827
:104A90000938217A491E401A0938A2490870A148EC
:104AA0000078272803DB122000F0C7FE6EE09D4847
:104AB0000278A91C9C4C200000F01CFC3279F17893
:104AC000B07802F0ADFC0400E4B2402C03D10F201A
:104AD00000F0B3FE5AE07078C0B280090100C90747
:104AE000C90F002901D001F019FF7078C0B2C009C8
:104AF000C0B200280DD1E4B2402C2AD08B48E4B2D9
:104B0000092161434018C079C0B20009C0B205282C
:104B10001FD1E4B2402C03D185481D49088005E02F
:104B20002000C0B202F09EF919490880E4B2009456
:104B300068780300DBB2DB096878C0B28009020044
:104B4000D207D20F68788106890E287802F007FD17
:104B50001CE03078C0B2C0080100C907C90F01913C
:104B6000E4B2009468780300DBB2DB096878C0B275
:104B700080090200D207D20F68788106890E287852
:104B800002F0D2FC02E0112000F057FEF7BD000059
:104B9000E00E00204C0A0020550A002010B5040049
:104BA000FFF7E1FAFFF715FBA0480078A04948712C
:104BB0009F48017A41180B3144709E4A12880A704E
:104BC000120A4A7000228A71120ACA71017A4018C8
:104BD0000400083401F0D6F96070000AA07094480F
:104BE0000178934800F0EAFD9148027892B290492A
:104BF0000020D34B1B68984710BD00005B0A0020C3
:104C00002C0E0020F10E002084E90008B4B400004E
:104C10009A9A000038B5FFF7A6FAFFF7DAFA844C43
:104C2000207A201805000B35062060709F48008808
:104C30002870000A68709E480088E871000A28728F
:104C40000A2003F04BFA7A4988719A4800880028B4
:104C50004CD0994800784007400F002846D096482D
:104C60000078C0B2C0080100C907C90F00290FD0E1
:104C70002879F8210140012008432871287900078C
:104C8000000F8D490978F0220A4002432A712DE075
:104C90002879F8210140012008432871287900076C
:104CA000000F85490978F0220A4002432A71280042
:104CB0000930002111E0A34AC9B202234B43D318A3
:104CC0001A785D782D062D0C2A43C9B202234B4376
:104CD000C2522278921C2270491CC9B2764A1278BC
:104CE000D2B21209D2B2521C9142E4DB207A2018CF
:104CF0000400083401F046F96070000AA0704C48C6
:104D000001784B4800F05AFD4948027892B2484970
:104D100000208B4B1B68984731BD00003B0F0020E3
:104D2000300E0020240F0020C00C00203C06002084
:104D30007447000038B5FFF716FAFFF74AFA3C4C03
:104D4000207A201805000B3506206070A0480088E6
:104D50002870000A68709F480078002801D0012060
:104D600000E00020E978EF220A400001102108400D
:104D70001043E8700A2003F0B1F92D498871964874
:104D800000788007800F002839D093480078C0B29F
:104D900080080100C907C90F00290FD02879FC211C
:104DA000014001200843287128794007400F8A49B3
:104DB0000978F8220A4002432A7120E02879FC2170
:104DC000014001200843287128794007400F82499B
:104DD0000978F8220A4002432A71E81D002105E003
:104DE000584AC9B2525CC9B24254491CC9B27A4A43
:104DF0001278D2B2D208D2B2521C9142F0DB207AA1
:104E000020180400083401F0BDF86070000AA0709A
:104E100007480178064800F0D1FC0548027892B2B4
:104E200003490020464B1B68984731BD4A0F0020BC
:104E3000FC090020B00E0020F8B59A4C9A4D9B4E0C
:104E4000F078042831D13278921F9749984F380072
:104E500000F050FA2878C006C00E20723078001D8D
:104E60002070012060700120A0700420E0708D4847
:104E7000007B802804DB8B48007B8038207101E0B8
:104E8000FF202071002060710020A0710020E071DF
:104E900084480178834800F091FC8248027892B2FD
:104EA00080490020264B1B689847F1BDC40E0020A6
:104EB000C60E0020C20E0020310F0020F8B5794D3B
:104EC0007C4B9C7801236B700123AB70C9B2002925
:104ED00002D11021E97001E01121E97016000700EC
:104EE0002E71754800780A214843122103F02AF9EF
:104EF0000A3068710A2003F0F1F8A8716F48F6B221
:104F000009214E4380198079E871E4B22200521DD4
:104F100039002E000936300000F0ECF92000401C6A
:104F2000287210342C702978280000F047FC5D4866
:104F3000027892B25B490020014B1B689847F1BD93
:104F40005C0E0020280D0020F8B5564C564E574DEB
:104F5000E87805283AD1684602702A78921F27001F
:104F600008373100380000F0C5F93078C006C00EAF
:104F700020722878001D2070012060700120A07030
:104F80001220E0706846007820714B4800780A21B2
:104F90004843122103F0D6F80A3060710A2003F06A
:104FA0009DF8A07145486946097809225143401887
:104FB0008079E07121783B4800F000FC39480278A4
:104FC00092B238490020BF4B1B689847F1BD0000E2
:104FD000BC0E00201E0F00201D0F0020F8B506009B
:104FE000304C314F314D2879C006C00E401EE97853
:104FF00005293AD130790007000F052832D1122057
:10500000E0702A78921F390026000836300000F040
:1050100071F93878C006C00E20722878001D207003
:10502000012060707F20A07040202071224800780D
:105030000A214843122103F085F80A3060710A20E2
:1050400003F04CF8A071FF20E0712178154800F0C2
:10505000B5FB1448027892B212490020994B1B68A4
:105060009847F1BD1320E070CBE72978091FC0B243
:10507000401C081A072813D1280003F0F5F800286F
:1050800003D001F034FC01280AD130790007000F69
:10509000052802D11020E070B3E71120E070B0E7DE
:1050A000DFE70000FC090020100C00200C0C0020A1
:1050B000040A0020440E0020270F00203C06002098
:1050C00080B5C0B20A2800D19FE0C0B20B2800D141
:1050D0009BE0C0B20C2800D197E0C0B20D2800D1EF
:1050E00093E0C0B20E2800D18FE0C0B20F2800D1EB
:1050F0008BE0C0B2102800D187E0C0B2112803D1E4
:105100000120FFF794F880E0C0B2132819D16E484F
:105110000078012811D13C206C490880FFF797F8EE
:10512000012806D10020FEF7F9FF0620FFF736FD23
:105130006BE00220FFF732FD67E00620FFF72EFD4F
:1051400063E0C0B21B2803D10620FFF727FD5CE017
:10515000C0B2122827D15C480078022820D13C2018
:105160005A4908805A480078401C594908705848E4
:1051700000780C2811DB0020554908700020FEF74C
:10518000CDFFFFF73CF8012803D1062000F055FBC6
:105190003BE00F2000F051FB37E003F062FC34E00D
:1051A000FFF738FD31E0C0B2142802D1FFF7C2FD8D
:1051B0002BE0C0B21D2802D1FFF73EFE25E0C0B2B1
:1051C0000E2822D0C0B21A280BD103F03FFD0028D0
:1051D00003D1082000F031FB17E0072000F02DFB81
:1051E00013E0C0B2202803D10F2000F026FB0CE012
:1051F000C0B22F2803D1062000F01FFB05E0C0B28B
:10520000302802D10F2000F018FB01BD0120C0B2F0
:1052100070470120C0B270470120C0B27047012022
:10522000C0B2704738B508001100059A294B2A4CC6
:10523000D2B2092555436419E479E4B22409E4B2F1
:10524000002C05D01B79DB06DB0E5B1E234CA37004
:10525000D2B2C9B2C0B2FFF777FE012032BD38B575
:1052600008001100059A1B4B1B4CD2B2092555436F
:105270006419E479E4B22409E4B2002C05D01B7966
:10528000DB06DB0E5B1E154CA370D2B2C9B2C0B2F6
:10529000FFF75AFE012032BD80B53C200B49088043
:1052A0000120FEF73BFFFFF73DF80D4840790D491F
:1052B00008700C480078062802DB052009490870B0
:1052C00001BD00005C0E0020490F0020E20E00200E
:1052D0003D0F00200C0C00203C060020440E002056
:1052E0004C0A00204A0F002080B50020FEF716FF70
:1052F00001BDFEE7124207D08B0706D00B78491C90
:105300000370401C521EF7D87047830706D00B78F5
:10531000491C0370401C521EF9D1704770B4103AFA
:1053200003D378C9103A78C0FBD2530701D318C908
:1053300018C001D508C908C0D20704D30B88038060
:10534000891C801C002A01D50B78037070BC704743
:10535000001D01784018C01C007A704710B501008C
:105360000920091D0A788918C91C0022A44B1A803B
:10537000A34A12880A70120A4A708A78E0231340FE
:10538000A04A1278D206D20E1A438A708A78D206C0
:10539000D20E9D4B1B785B0113438B709B4A127896
:1053A000CA700A79F0231340994A12781207120F33
:1053B0001A430A710A791207120F0A7100224A7100
:1053C000A64A12780A720A7AE03A012A05D9921E90
:1053D000032A07D9121F0FD00FE000228A71120A88
:1053E000CA710AE0A74AA84B1B8802245C43125BDF
:1053F0008A71120ACA7100E01220C0B210BD10B545
:10540000001D01784018C41C94480078217A884215
:1054100001D0FF206DE0207861780906090C08436F
:105420007749098808437649088075480088012132
:1054300022791207120F91400140012022791207B0
:10544000120F9040814253D1A079E1790906090CED
:10545000084380B2002801D1FF204AE0207AE028EA
:105460000AD03ED3E22819D00FD3E42828D016D38F
:10547000E62836D024D334E0A079E1790906090C76
:10548000084380B200F0C6F82BE0A079E179090664
:10549000090C084380B200F0E3F822E021E001218A
:1054A00020790007000F00F0B7FD00F09DFEA24933
:1054B0000870A1480078102801DB00F04DF810E0DA
:1054C000002120790007000F00F0A6FD00F08CFEFF
:1054D0009949087098480078102801DB00F03CF8E2
:1054E000FFE7207AFF2801D0207A02E0FF2000E0C9
:1054F000FF2010BD10B5001D01784018C41C8F4856
:105500000078E12806D100F01EF8012802D1E4203D
:1055100000F0BCF8207A00F04CF910BD00B5002076
:1055200000E0401CC0B2102806DA8549C0B2022251
:105530004243895A0029F4D0C0B2102801D100207A
:1055400000E0012000BD00B57E480088002801D1A0
:10555000012000E0002000BD00B510204A4908806D
:10556000002006E00021764AC0B202234343D15214
:10557000401CC0B21028F5DB00BD00B571480088A2
:10558000401C704908806F480088102802DB00200A
:105590006C4908803B486B49098802224A43805A7B
:1055A000002802D100206749088000BD00B5654889
:1055B0000088102806DA00203249624A1288022345
:1055C0005343C8525F480088401C5E4908805D48CC
:1055D0000088102802DB00205A49088029485949D0
:1055E000098802224A43805A002801D0012000E0A5
:1055F0000020C0B200BD1020524908807047000052
:10560000B00E0020F30E0020F40E0020F50E002056
:10561000F70E002000B5002100E0491CC9B2102996
:1056200009DA184AC9B202234B43D25A03009BB28B
:105630009A42F2D111E043490988491C414A11803C
:1056400040490988102902DB00213E4A11800D499A
:105650003C4A128802235343C85200BDF60E002074
:105660000021384A11800749364A128802235343E1
:10567000C852704780B502203349C87003F0B1FCAE
:1056800001BD0000E80C0020B20E002080B52B49BF
:1056900008702A480078E02803D028480078E128DC
:1056A00010D1FFF759FF00F09FFD234908702248F1
:1056B0000078102802DAFFF7DDFF3BE01B2003F043
:1056C00097FE37E01D480078E2280CD1FFF726FF4F
:1056D000012804D1FFF751FFFFF7CCFF2AE01B2080
:1056E00003F086FE26E015480078E32807D013482B
:1056F0000078E42803D011480078E5280AD1FFF7A4
:105700000DFF012802D1FFF7B5FF13E01B2003F0C6
:105710006FFE0FE009480078E6280BD10020094908
:10572000088001200649074A128802235343C852C1
:10573000FFF7A0FF01BD0000F70E0020F60E0020CD
:10574000E80C0020B20E00204C0C002080B5FF2099
:10575000FFF79CFF01BDFEE738B5094C247804250E
:105760002543074C2570074C2070074801700748F7
:105770000270074803700D2003F03AFE31BD0000AF
:105780000B0F00200D0F0020F30E0020F40E002060
:10579000F50E002010B50400102003F029FEE4B23D
:1057A000E02C02D0E4B2E12C02D1112003F020FE63
:1057B00010BD80B5132003F01BFE01BD10B5002203
:1057C000002303E0DBB2C45C12195B1CDBB2C9B27C
:1057D0008C1EA342F6DBD3435B1C1A0092B2120A62
:1057E000C9B24418A41E2270C9B24018401E0370EA
:1057F00010BD10B50023002203E0D2B2845C1B1957
:10580000521CD2B2C9B28C1EA242F6DBDA43521C41
:10581000C9B243189B1E1B781400A4B2240AE4B238
:10582000A34208D1C9B24018401E0078D2B29042BB
:1058300001D1012000E0002010BD80B50421094AFB
:10584000117008494870074801780648FFF7B6FF0D
:105850000448027892B2034900209A4B1B6898478B
:1058600001BD00005C09002080B597480078974989
:105870000978884211D096480078401C94490870F5
:10588000934800780B2804DB00209149087003F04E
:1058900020FE1020FFF7D1FFFAE08B4801788A48FC
:1058A000FFF7A7FF002800D1EFE00020884908702B
:1058B00085488078002811D18348C078002802D11B
:1058C00003F08EFFE4E08048C078012802D103F0A5
:1058D000C1FFDDE00F20FFF7B0FFD9E07A48807804
:1058E000012843D17848C078002811D17648007942
:1058F000002802D1FEF7DEFDCAE0734800790228D5
:1059000002D1FEF75FFDC3E00F20FFF796FFBFE077
:105910006D48C078012802D1FEF740FEB8E06A4821
:10592000C078022802D1FEF709FEB1E06648C078CF
:10593000032802D1FEF79CFEAAE06348C078102835
:1059400002D1FEF725FFA3E05F48C078112802D1FD
:10595000FEF7E4FF9CE05C48C078122802D1FFF714
:105960007FF895E00F20FFF768FF91E056488078B8
:10597000022802D1FFF790FC8AE053488078802803
:1059800000D07EE05048C07801282ED002282FD0C9
:10599000032830D00A2831D00B2832D00C2833D03D
:1059A0000D2834D00E2835D00F2836D0142837D003
:1059B000152838D0162839D017283AD018283BD0C7
:1059C000932848D0BD2849D0C82838D0C92839D014
:1059D000CA283AD0CB283BD0FA284BD0FB2843D05A
:1059E000FC2844D0FD283CD047E002F009FD4FE000
:1059F00002F0A0FD4CE002F04FFD49E002F0A3FDF3
:105A000046E002F0C6FD43E002F0ECFD40E002F0AB
:105A10001DFE3DE002F07AFE3AE002F00FFF37E0B3
:105A200002F011FF34E002F029FF31E002F04DFFF7
:105A30002EE002F0D1FF2BE002F0AEFF28E002F0F2
:105A4000ECFF25E002F0EFFF22E002F0F5FF1FE09F
:105A500002F0FAFF1CE003F03BF819E003F040F815
:105A600016E003F083F813E003F068F810E003F0A9
:105A700075F80DE002F0EEFF0AE00F20FFF7DDFE03
:105A800006E00F20FFF7D9FE02E01520FFF7D5FE54
:105A900000200E49087000200E49087001BD00006A
:105AA00080B50C48007800280AD00A480078401ECB
:105AB0000849087007480078002801D1FFF7D4FE94
:105AC00001BD00005C0E00204C0A0020350F0020B4
:105AD000390F0020340F0020F4B50D001E00002403
:105AE000EDB2022D04D10020B04908600124C7E0C6
:105AF0000700AF48AD490860FFB2402F3DDAAD481E
:105B0000FFB20921794340188078FF2811D1A948B4
:105B1000FFB209217943405CFF280AD1A548FFB2B2
:105B20000921794340184078FF2802D1EDB2002DB9
:105B300036D103229F48FFB20921794341189E4C78
:105B40002000FFF7D7FB9B48FFB20921794340189B
:105B5000C079C0B20009C0B2042801D1012000E020
:105B6000002093494978FE220A400100C907C90F65
:105B700011438F484170012412E0EDB2002D0FD186
:105B8000FF208B498870FF208949C870FF20884911
:105B900008718748407801210143854841700124FC
:105BA000E4B2012C69D16846007881490978F8226D
:105BB0000A40022111437E4A11707D4909788F22E3
:105BC0000A40302111437A4A117079490A78F72145
:105BD0001140EA0008231A400A4375490A70C0B20E
:105BE000022802D0C0B2012801D1012100E0002129
:105BF0006F4A12785206520EC90111436C4A117055
:105C00006B494A78FB211140B20004231A400A4331
:105C100067494A7066494978FD220A4064494A70DA
:105C2000C0B202280DD0FFB2402F0CDA6148FFB29B
:105C300009214F43C019C079C0B20009C0B205287C
:105C400001D1012000E00020594949784906490E58
:105C5000C00108435649487055484078C721014063
:105C600053484170EDB2002D03D12D2003F0C0FB4D
:105C700006E02E2003F0BCFB02E0302003F0B8FB6E
:105C80002000C0B2F2BD10B50C000023002221009C
:105C9000C9B2C0B2FFF720FF01281AD1E4B2002C2C
:105CA0000CD14648007880210143444801704348A4
:105CB000007820210143414801700AE0E4B2012C40
:105CC00007D13E480078802101433C48017000F034
:105CD00003FE10BD80B5002302220021C0B2FFF7F1
:105CE000FBFE01280ED1354800788021014333485E
:105CF00001703248007820210143304801700120B2
:105D00002F49087001BDF8B507000E0014001D00F2
:105D1000069B00202B490870DBB22A00D2B221007A
:105D2000C9B23000C0B2FFF7D7FE01283CD1E4B2BF
:105D3000002C02D0E4B2022C2FD1EDB2022D03D1FF
:105D400001201F49087014E0EDB2002D11D0194850
:105D5000F6B209214E438019C079C0B20009C0B221
:105D6000052803D101201649087002E001201549D9
:105D70000870FFB2002F06D110480078202101439F
:105D80000E4801700EE0FFB2012F0BD10B480078D6
:105D9000402101430948017004E0E4B2012C01D123
:105DA00000F09AFD02F076F9F1BD00009C0E002093
:105DB000200E00203C060020220E00200B0F0020A9
:105DC000470F0020460F002010B45E4C247804706A
:105DD0005C4C647844705B4CA4788470C370037925
:105DE000F0241C400523234303710379EF241C4056
:105DF00004710379DF241C4004710379BF241C4023
:105E0000047103795B065B0EC90119430171417985
:105E1000FE230B4043714179FD230B4043714179CF
:105E2000FB230B404371417908230B4343714179B4
:105E30000907090F90230B434371827110BC70470F
:105E400038B50400E01D03F073FD01282DD10123B6
:105E5000482200213C480068FFF7B6FFE0793B4943
:105E60000968087009223A4938480068451C28002A
:105E7000FFF740FA032237493448006805000A3525
:105E80002800FFF737FA0D203349087033480078AF
:105E900001210143314801700020314908700A2076
:105EA000304908700A2003F0A3FAE01D03F06CFDEE
:105EB000012802D11C2003F09BFA31BD80B50120DE
:105EC000C0B201280CD125480078012303432348A0
:105ED000037023480170234802700A2003F088FAF7
:105EE00001BD80B50120C0B201280CD11B4800784B
:105EF00002230343194803701948017019480270BE
:105F00000A2003F075FA01BD80B50120C0B2012856
:105F100004D104F055F80A2003F06AFA01BD1248D2
:105F20001249086011480068401C08490860104880
:105F3000054908600F48104908601048104908607A
:105F400070470000000E0020300E0020280E0020B8
:105F5000E80D0020080E0020F00E0020F20E0020B8
:105F6000FB0E0020FC0E00206E0D00202C0E0020E9
:105F7000680D00208A0D0020340E0020840D0020C2
:105F8000380E00208A489749097802225143405A26
:105F9000704700B5002012E08549C0B2022242439A
:105FA0008918098B824AC0B202234343D25A0A405D
:105FB0007F49C0B202234343C9180A83401CC0B2C0
:105FC0000C28E9DB00BD80B5FFF7E3FF0123312298
:105FD0001821774804F0B9FA01BD80B50020814945
:105FE000087031221821724804F097FA002812D163
:105FF00000200DE000216E4AC0B202234343D1527B
:1060000000216B4AC0B202234343D2181183401CC3
:10601000C0B20C28EEDB01BD38B5C0B2102831DAB1
:10602000704A12780C2A02DB00226E4B1A70604A0A
:106030006C4B1B7802246343D25A744BC0B20224C7
:1060400044431B5B13435A4A664C247802256C4335
:106050001353C9B2002913D15549624A1278022359
:106060005A438918098B694AC0B202235843105A0F
:1060700008434F495B4A127802235A438918088320
:10608000FFF7A1FF31BD80B5C0B2102834DA554A00
:1060900012780C2A02DB0022524B1A70C9B2002976
:1060A00014D143494F4A127802235A438918098B65
:1060B000564AC0B202235843105A08433C49494A41
:1060C000127802235A438918088313E03849454A55
:1060D000127802235A438918098B4C4AC0B2022312
:1060E0005843105A814332483E4A127802235A4399
:1060F00080180183FFF767FF01BD10B5C0B21028FB
:106100002EDA384909780C2902DB0021354A117052
:106110002749344A127802235A43895A3B4AC0B26B
:1061200002234343D25A9143214A2E4B1B78022427
:106130006343D1521E492B4A127802235A438918CD
:10614000098B324AC0B202235843105A814318487F
:10615000244A127802235A4380180183FFF733FF41
:1061600010BD10B51F4909780C2902DB00211D4A1A
:1061700011700F491B4A127802235A43895A8143EE
:106180000B4A184B1B7802246343D1520849154A25
:10619000127802235A438918098B81430448114A13
:1061A000127802235A4380180183FFF70CFF10BDB9
:1061B0008C0C002000B580B21549884201D1FF2027
:1061C0000EE0002100E0491CC9B2102906DA0F4A8E
:1061D000C9B202234B43D25A1042F4D10800C0B2D4
:1061E00000BD00003D0F002080B50A4800780C2853
:1061F00002DB002007490870074806490978022297
:106200005143405A80B2FFF7D5FF02BDD8EA0008DB
:10621000FFFF00003D0F00208C0C002000B5C0B235
:1062200001001039D02902D3C0B2E52801D10120E4
:1062300000E0002000BD38B51C00224B1B78022571
:106240001D43204B1D70204B1870204801702048C2
:10625000028020480078F82505401B480078FFF7A9
:10626000DDFF4007400F28431A490870194800789D
:10627000F7210140E000082210400843154908704A
:10628000144800780007000F124908701148007880
:106290004007400F00280FD00D48008800280BD081
:1062A0000B48008802F046FD0A4909780907090FE2
:1062B00000010843074908700B2003F099F801F02A
:1062C000E9FE31BD0B0F00200C0F0020300F002025
:1062D000C20E0020310F002080B50E2003F088F898
:1062E00001BD80B5122003F083F801BD38B50F4C15
:1062F0002478082525430D4C25700D4C20700D4841
:106300000170FF200C4908700C4802700C4800789E
:10631000FB210140980004221040084308490870FE
:106320000C2003F065F801F0B5FE31BD0B0F002025
:106330000E0F00201C0F00201A0F00201B0F002042
:106340001D0F002080B50F2003F052F801BD80B56D
:10635000142003F04DF801BD00B501798907890FBC
:10636000002910D0002106E0884AC9B2525CC9B2A7
:106370004318DA71491CC9B20279D2B2D208D2B23A
:10638000521C9142F0DB00BD00B501798907890FED
:1063900000290FD0C178C9B209090A00D207D20F6B
:1063A000002A07D00179C9B289080A00D207D20FA2
:1063B000002A00D010E0002106E0C9B24218D279CC
:1063C000724BC9B25A54491CC9B20279D2B2D2082E
:1063D000D2B2521C9142F0DB00BD10B5001D017815
:1063E0004018C41C00206A49088069480088207051
:1063F000000A607067480078A070E078F0210140E2
:10640000654800780007000F0843E0706348007893
:10641000012801D1012000E00020E178EF220A40AC
:106420000001102108401043E070E078C006C00E63
:10643000E0705B48007820715A48007860715A48D3
:106440000078A0712000FFF787FF20798007800F78
:10645000012805D12079C0B2C0080830C0B200E0E0
:10646000072010BD80B54C480078FFF746FEFF209E
:1064700000F070F801BD10B5001D01784018C41C73
:10648000484800786179884201D0FF204BE02078AD
:1064900061780906090C08433D49098808433C49CD
:1064A00008803E480078E178C9B209090A00D2079D
:1064B000D20F0243394802702000FFF765FF3448CD
:1064C00000880121E2781207120F9140014001205B
:1064D000E2781207120F9040814223D16079E028C0
:1064E00008D0E12807D0E32808D0E4280DD0E5281B
:1064F00001D010E00FE0FFF7B5FF0CE00121E078DC
:106500000007000FFFF7BFFD05E00021E07800075E
:10651000000FFFF7B8FD6079FF2801D0607902E035
:10652000FF2000E0FF2010BD80B5001D017840185D
:10653000C01C017842781206120C114389B24079CE
:10654000FFF705FF01BD80B503201849C87002F0B0
:1065500048FD01BD80B51349087000200F4908703F
:1065600010480078FF280CD00E480078E52801D1AB
:10657000FFF778FF08480078FF2805D0FFF7E3FF12
:1065800002E0FF200449087001BD0000280D002032
:10659000BC0E00201A0F00201B0F00201E0F002031
:1065A0001D0F00201F0F00201C0F00204C0C00208E
:1065B00080B5FF20FFF7CEFF01BDFEE780B5AE48F6
:1065C000007800281AD0AC480078401EAA4908700C
:1065D000AA480068002811D0A84800680078F8216F
:1065E0000140A54800784007400F0843A3490968C7
:1065F0000870C9480178C84804F045F8C648407892
:10660000012802D1C44804F04DF801BD38B500247A
:106610000021BA4A1170002800D1D6E00178027931
:10662000D206D20E891A891F052900D2CDE0017940
:10663000C906C90E4018001D01784907490FB94A1B
:106640001278F82313404907490F1943B54A1170CE
:106650000178C9B209094C07640FB24909784907A2
:10666000490F2200D2B2914200D3A7E001780A007C
:10667000D2B2D2081100C907C90FAA4A1278F7236B
:106680001340C900082211401943A64A11704178ED
:106690000A00D2B292081100C907C90FA14A527864
:1066A000FB23134089000422114019439D4A517075
:1066B00042781100C907C90F9A4A5278FE23134045
:1066C0000A00D207D20F1A4396494A7041780A004D
:1066D000D2B252081100C907C90F924A5278FD235D
:1066E000134049000222114019438E4A517001782B
:1066F000C9B2C9098B4A12785206520EC901114318
:10670000884A11704178C9B2C909864A527852063E
:10671000520EC9011143834A51700322811C824DDC
:106720002800FEF7E7FD032280497F4803F0E4FFDD
:10673000002806D003227E497B4803F0DDFF0028B5
:1067400016D178480078C0B2C0080100C907C90F47
:10675000002903D001207749087005E00020754921
:10676000087001206549087002207349087032E002
:106770006C480079FF281AD16A488078FF2816D122
:106780006848C078FF2812D166480078C0B2C008B7
:106790000100C907C90F002909D101206649087005
:1067A00001205649087000206249087013E0032058
:1067B0006149087000205F4908700CE000205E49C4
:1067C000087000205B49087005E000205A490870F5
:1067D000022058490870534800788F210140200159
:1067E000702202400A434F4802705348007832BD7D
:1067F00010B501000220204A107000203F4A10709E
:10680000002914D044480078401D434A1070424883
:10681000414A1279D206D20E8018001D174A106024
:106820000522164804682000FEF764FD02E00020FF
:106830001249086038480178374803F024FF364889
:106840004078012802D1344803F02CFF10BD00B578
:106850003949097800290CD0001D0178C906C90EF4
:10686000401840780100C9B249080800C007C00FAD
:1068700000E0002000BD0000440F0020980E002022
:1068800038B504000D0000202C490870207808302D
:10689000C8214843022101F055FC2949401880B223
:1068A00002F0E5FA1F4800784007400F25490880AC
:1068B0001C4840780100C907C90F002904D02148AD
:1068C0000088C01C1F4908802079C0B240091E49B9
:1068D00008701E48057031BD0120184908707047C6
:1068E000164800780021154A1170C0B2704711484F
:1068F000007870470148007870470000430F00207F
:1069000008484078C0B2C009704711480078704705
:1069100000200F49087070474C0C002001200C49E2
:1069200008707047180E00201A0E0020030E002079
:10693000000E0020420F0020410F0020450F0020D4
:1069400088130000D40E00203F0F0020400F0020CD
:10695000480F002000B5C9B24218521E1278C9B2C1
:106960004118891E0978090211434279D20700D5DE
:10697000491C00790007000F052810D1A2480088A3
:10698000002805D00800A14A128880B2904217D092
:1069900040209D4A10809D480180012011E09C48C4
:1069A0000088002805D00800B94A128880B29042B9
:1069B00006D04020964A1080B5480180012000E0B2
:1069C000002000BD00B592480088002804D09048FF
:1069D0000088401E8E4908808B480088002804D01B
:1069E00089480088401E8849088000BD7CB50400A5
:1069F000C9B26018001F0078C9B26118C91E0978B1
:106A00000E0206430025FAE0A248A1788906890E05
:106A1000405C21790907090F052900D1A7E02179F8
:106A20000907090F012909D16179C9B20909C9B258
:106A3000082903D1C0B2002800D198E021790907C4
:106A4000090F012909D16179C9B20909C9B2082917
:106A500003D1C0B2012800D189E021790907090FCB
:106A6000012908D16179C9B20909C9B2082902D13D
:106A7000C0B203287BD021790907090F012908D169
:106A80006179C9B20909C9B2082902D1C0B2042882
:106A90006DD06179C9B249080A00D207D20F002A25
:106AA0000DD021790907090F012908D16179C9B2EF
:106AB0000909C9B2082902D1C0B2052857D06179A5
:106AC000C9B249080A00D207D20F002A0DD0217995
:106AD0000907090F012908D16179C9B20909C9B2A9
:106AE000082902D1C0B2062841D06179C9B249084B
:106AF0000A00D207D20F002A0DD121790907090F08
:106B0000022908D16179C9B20909C9B2082902D19B
:106B1000C0B201282BD06179C9B249080A00D20756
:106B2000D20F002A0DD121790907090F022908D1B6
:106B30006179C9B20909C9B2082902D1C0B20328D2
:106B400015D06179C9B249080A00D207D20F002ACC
:106B500054D121790907090F02294FD16179C9B2AE
:106B60000909C9B2082949D1C0B2042846D1BB4895
:106B7000EDB2405DF7210140B848EDB24155032226
:106B8000B748EDB2092169434118200003F0B4FD74
:106B9000002833D16079C0B20009B149EDB20922B1
:106BA0006A438918C9780907090F884226D1AC4879
:106BB000EDB209216943401880780090A848EDB2F1
:106BC0000921694340184378A548EDB2092169437A
:106BD000425CB148EDB2022169434118300080B2F5
:106BE00003F0B2FD9D49EDB2495DF7220A40C000B5
:106BF0000821084010439949EDB248556D1CEDB28B
:106C0000402D00DA00E773BDB60E0020BA0E00205A
:106C1000B40E002000B501001E488A789206920E3C
:106C2000825C00204B79DBB21B09DBB2082B1DD143
:106C30000B79DBB21B09DBB21B0701D5012025E074
:106C4000D2B2002A22D10A791207120F012A1DD1CD
:106C5000CA78D2B292081207120F0C2A16D189797B
:106C60004906490E102911D101200FE04A79D2B20C
:106C70001209D2B2092A09D10A79D2B2D209D2B202
:106C8000002A02D18979402900D10120C0B200BD7B
:106C9000B80E002084E90008F8B50700402600255A
:106CA0007E480078E32815D1242000F09EFBC0B276
:106CB00040280FD06A49C0B2092242438918C979D5
:106CC0000907090F664AC0B209234343D218D1719C
:106CD000C0B28CE0002421E00922E4B20921614322
:106CE0004A31C9B25E48E4B209236343C01803F0D5
:106CF00009FC002819D1F6B2402E0ED15848E4B252
:106D0000092161434018C0790007000F5449E4B2DB
:106D1000092262438918C8712600641CE4B2402C21
:106D200063DA5E480078E128D6D1032239004C4866
:106D3000E4B209236343C01803F0DEFC0028ECD161
:106D40004748E4B2092161434018C0780007000FAA
:106D50007979C9B209098842DFD14148E4B20921F1
:106D600061434018C078C0B2000939790907090F9A
:106D70008842D2D13A48E4B2092161434018C07830
:106D8000C0B20009C0B2052801D001251CE034487A
:106D9000E4B20921614340184079F978884213D15F
:106DA0002F48E4B20921614340180079002801D13D
:106DB000012509E02A48E4B209216143401800791D
:106DC000B979884200D10125EDB2012DA5D1244821
:106DD000E4B20921614340188079242802D124209B
:106DE0002E4908702000C0B201E03000C0B2F2BDF0
:106DF00030B5002300E05B1CDBB2102B06DAC54C7B
:106E0000DBB2E45C1500EDB2AC42F4D1DBB2102B86
:106E100009DAC0B20002C9B24018BF49DBB202228F
:106E20005343C85219E0002300E05B1CDBB2102B77
:106E300004DAB84CDBB2E45C402CF6D1DBB2102BA8
:106E40000BDAB44CDBB2E254C0B20002C9B2401853
:106E5000B149DBB202225343C85230BDCC0B0020F3
:106E60003C06002000B5002100E0491CC9B21029F1
:106E700006DAA84AC9B2525C0300DBB29A42F4D1E6
:106E8000C9B2102905DAA448C9B202225143405AB6
:106E900000E0C34800BD00007C080020170F002060
:106EA00080B503000A00587A197AD2B2C9B2C0B2CA
:106EB000FFF79EFF01BDF8B50C0015001F00EDB2F5
:106EC000E12D04D12000C0B200F01EFAA6E0EDB220
:106ED000E32D00D12425060003223100B148E4B29D
:106EE00009236343C01800900098FEF703FA009846
:106EF0007079C0B20009AB49E4B209226243891833
:106F0000C978F0220A400007000F1043A549E4B2F7
:106F1000092262438918C87030790007000FA1491F
:106F2000E4B2092262438918C9780907090F0001F0
:106F300008439C49E4B2092262438918C870994801
:106F4000E4B2092161434018C078C0B20009C0B260
:106F5000052829D1B079402807D100209149E4B211
:106F6000092262438918087116E0B079F5280CD11E
:106F70002100C9B23000FFF793FFF0798949E4B2EC
:106F8000092262438918087106E0B0798549E4B2A4
:106F90000922624389180871F0788249E4B2092213
:106FA0006243891848710DE000207E49E4B209224D
:106FB00062438918087100207A49E4B209226243C9
:106FC0008918487106987749E4B209226243891802
:106FD0008D717449E4B2092262438918C979F0229B
:106FE0000A403907090F11436E4AE4B2092363438B
:106FF000D218D1716B49E4B2092262438918C97968
:107000000907090F000108436649E4B209226243F7
:107010008918C8712000C0B200F06BF9F1BD38B515
:10702000050028790007000F052804D1A879412818
:1070300001D140206CE028790007000F052807D116
:10704000A879472804D12800FEF7FAFE40205FE027
:10705000002409E05348E4B2092161434018007953
:10706000A979884252D0641CE4B2402C4EDA09223D
:10707000E4B2092161434A31C9B24A48E4B2092362
:107080006343C01803F03EFA0028ECD00322290025
:107090004448E4B209236343C01803F02DFB0028E1
:1070A000E1D14048E4B2092161434018C0780007AB
:1070B000000F6979C9B209098842D4D13948E4B2CC
:1070C000092161434018C078C0B20009C0B2052848
:1070D00005D028790007000F0528C4D016E02879CC
:1070E0000007000F0528BED12E48E4B209216143F4
:1070F00040184079E9788842B5D12A48E4B209219C
:107100006143401800790028A4D1FFE72000C0B2F5
:1071100032BD0000C80D0020480D002000B5010060
:10712000FF20934A8B789B069B0ED25CD2B2002A3A
:107130000ED0022A15D00FD3042A21D020D3062A3C
:1071400028D022D3082A11D010D3092A13D025E041
:1071500008790007000F21E008790007000F1030C0
:107160001CE008790007000F203017E008790007BD
:10717000000F303012E008790007000F40300DE0BA
:1071800008790007000F503008E008790007000F69
:10719000603003E008790007000F7030C0B200BD16
:1071A000744700003C06002070B504000D00FF206D
:1071B00000269A48EDB2092169434018C078C0B250
:1071C0000009C0B205280BD1A079C0B2FF281ED09B
:1071D0002A00D2B22100C0B203F011FB060016E073
:1071E0008E48EDB2092169434018C0780007000FAE
:1071F00008280CD12000FFF791FFC0B2FF2806D06D
:107200002A00D2B22100C0B203F015FB0600300004
:10721000C0B270BD38B500242FE00921FF227F489D
:10722000E4B209236343C518280003F021FB0023BF
:107230000922E4B2092161434A3189B27748E4B2B4
:1072400009256543401903F080F90DE00123092267
:10725000E4B2092161434A3189B27048E4B2092598
:107260006543401903F071F98648E4B2005DF821E6
:1072700001408448E4B20155641CE4B2402C25DA94
:107280008048E4B2005D4007400F012804D0EBD3F2
:107290000328C2D0DAD3E7E70922E4B20921614327
:1072A0004A3189B25D48E4B209236343C01803F050
:1072B00034F9002809D10921FF225848E4B20923F2
:1072C0006343C518280003F0D3FACDE731BD00B5FC
:1072D00000200AE06B49C0B2095CF8220A40012193
:1072E0001143684AC0B21154401CC0B24028F1DBBF
:1072F00000BD6449C0B2095CF8220A400221114372
:10730000604AC0B21154704738B504000921FF2209
:107310004248E4B209236343C518280003F0A8FAE1
:107320005848E4B2005DF821014003200843554964
:10733000E4B2085531BD80B5002002F01BF8FF20F3
:107340007349087001BD80B5C0B2E02802D1FFF7D3
:10735000F2FF0BE0C0B2FF2803D1FF2000F00AF8D3
:1073600004E06B490870012002F004F801BD000040
:1073700084E9000838B50400E4B2FF2C09D10024E8
:10738000E4B2402C2EDA2000C0B2FFF7BDFF641C2F
:10739000F6E7E4B2E22C11D10024E4B2402C21DA69
:1073A0005A48E4B20921614340188079242803D067
:1073B0002000C0B2FFF7A8FF641CEEE700250EE036
:1073C0005248EDB209216943401880792100C9B2C1
:1073D000884203D12800C0B2FFF796FF6D1CEDB2C2
:1073E000402DEDDBFFF7A7FF31BD00B50100C9B2AD
:1073F000E02901DB402010E0002000E0401CC0B28A
:10740000402809DA414AC0B209234343D21892798D
:107410000B00DBB29A42F1D1C0B200BD3C060020A5
:1074200030B50300002000E0401CC0B2402826DA3E
:10743000364CC0B209254543645D1D00EDB2AC4237
:10744000F2D1324CC0B209254543641964780D006D
:10745000EDB2AC42E8D12D4CC0B2092545436419C8
:10746000A4781500EDB2AC42DED1284CC0B209259B
:1074700045436419A478FF2CD6D0C0B200E0402068
:1074800030BD0000CC0B002038B50400E4B2022C63
:1074900002D0E4B2002C06D190218900FF221B4DBE
:1074A000280003F0E5F9FFF712FFFFF7B3FEE4B29F
:1074B000022C15D1002006E01649174AC0B202235B
:1074C0004343D152401CC0B21028F5DB002004E039
:1074D0004021124AC0B21154401CC0B21028F7DB40
:1074E00000200EE000210E4AC0B202234343D152D5
:1074F0000C49C0B2095CF7220A400A49C0B20A54DA
:10750000401CC0B24028EDDB31BD00003C0600202D
:10751000170F002074470000480D0020C80D002000
:107520007C080020CC0B002070B51D00059BDBB251
:10753000002B02D0DBB2012B0ED1049C104E307018
:107540001048017010480270104805701900C9B247
:107550002000C0B2FEF797FB00F09CFD70BD38B56F
:10756000049C074D287007480170074802700748BF
:1075700003702000C0B2FEF7ADFB00F08BFD31BD03
:10758000200F0020210F0020220F0020230F0020B9
:107590003EB5069C079DEDB20195E4B20094DBB2C6
:1075A000D2B2C9B2FDF73EFE3EBD3EB5069C079D78
:1075B000EDB20195E4B20094DBB2D2B2C9B2FDF7EC
:1075C0004EFE3EBD30B403680C004C4303256C43B3
:1075D000A3430C004C4354431C43046030BC70472D
:1075E00000B500690840884201D1012000E0002078
:1075F000C0B200BD816170478162704780B50122D1
:107600000121A020C005FFF7DDFF0121A020C0055A
:10761000FFF7F2FF01BD80B500220121A020C005C7
:10762000FFF7D0FF01BD80B5012210216548FFF7AB
:10763000C9FF012220216348FFF7C4FF0022402137
:107640006048FFF7BFFF002280215E48FFF7BAFFC6
:1076500001BD80B52021A020C005FFF7CBFF802110
:10766000A020C005FFF7C6FF10215648FFF7C2FF54
:1076700020215448FFF7BEFF01BD80B5FFF7D3FFBF
:10768000FFF7E7FF03F089F92021A020C005FFF7ED
:10769000B3FF012240214B48FFF794FF40214948A6
:1076A000FFF7AAFF012280214648FFF78BFF8021C8
:1076B0004448FFF7A1FFFFF7A1FF01BD80B5FFF729
:1076C000B2FFFFF7C6FF03F00EF901BD80B501223E
:1076D0008021C901CD48FFF775FF8021C901CB4842
:1076E000FFF78AFFCA4803F087F98021C901C7481C
:1076F000FFF780FFC74803F07FF98021C901C34825
:10770000FFF77AFF00228021C901C048FFF75AFF26
:10771000C14803F071F901BD80B5FFF7D7FFFFF74E
:10772000CDFF0020C6490870202000F083F900F04A
:107730004BF8BA48BA490860B848BA49086000200E
:10774000B94908800020B94908800020B84908706C
:1077500001BD38B50C0040003E25054010211948F8
:10776000FFF748FF20211748FFF746FF2800C0B267
:1077700003F0A6F82000C0B203F0A2F820211148BF
:10778000FFF738FF31BD10B50400002010210D486F
:10779000FFF730FF60007E21014040240C43202190
:1077A0000848FFF729FF2000C0B203F089F8002045
:1077B00003F086F8040020210248FFF71BFF200099
:1077C000C0B210BD0004005080B530210020FFF78A
:1077D000C0FF84210120FFF7BCFF04210220FFF736
:1077E000B8FF04210320FFF7B4FF0C210420FFF7AA
:1077F000B0FFCA210520FFF7ACFF7F210620FFF76D
:10780000A8FF65210720FFF7A4FF4A210820FFF702
:10781000A0FF7F210920FFF79CFF65210A20FFF7C9
:1078200098FF46210B20FFF794FF38210C20FFF72B
:1078300090FF38210D20FFF78CFF18210E20FFF755
:1078400088FF00210F20FFF784FFB5211020FFF7EC
:1078500080FF58211120FFF77CFF38211220FFF70D
:1078600078FF07211320FFF774FF00211520FFF791
:1078700070FF81211620FFF76CFF69211720FFF7A9
:1078800068FF96211820FFF764FF7E211920FFF77B
:1078900060FF72211A20FFF75CFF3C211B20FFF7DD
:1078A00058FF40211C20FFF754FF00211D20FFF747
:1078B00050FFF0211E20FFF74CFF00211F20FFF793
:1078C00048FF01BD80B5C0B2002823D10020FFF7DA
:1078D0005AFFFE22024001211143C9B20020FFF7E6
:1078E00038FF40210120FFF734FF03210220FFF77A
:1078F00030FF29210320FFF72CFFE5211020FFF79F
:1079000028FFD8211220FFF724FF74211A20FFF747
:1079100020FF23E0C0B2012820D10020FFF733FF71
:10792000FE210140C9B20020FFF713FF842101208E
:10793000FFF70FFF04210220FFF70BFF04210320B4
:10794000FFF707FFB5211020FFF703FF38211220B2
:10795000FFF7FFFE72211A20FFF7FBFE01BD10B5F5
:107960000400E4B2002C01D17F2100E06D21C9B2F6
:107970000920FFF7EEFEE4B2002C01D1652100E002
:107980005721C9B20A20FFF7E4FEE4B2002C01D16E
:10799000462100E02221C9B20B20FFF7DAFEE4B253
:1079A000002C01D1292100E00121C9B20320FFF7F9
:1079B000D0FE10BD10B504000120FFF7E4FEE72162
:1079C0000140E4B2002C07D1C9B20120FFF7C1FE8B
:1079D0000F4803F011F817E0E4B2012C0AD110208F
:1079E00008430100C9B20120FFF7B3FE084803F0C5
:1079F00003F809E0E4B2022C06D108200843010094
:107A0000C9B20120FFF7A5FE10BD0000000800501C
:107A1000150200002A0400002A680000337E0008D6
:107A2000540E0020500E0020BE0E0020C00E00207C
:107A3000260F002038B504002000014902E000BFF5
:107A4000280F00200978C0B2884200D10BE1002045
:107A5000FFF799FEC506ED0EE4B2802C55D1A9487A
:107A6000007800281BD120212943C9B20020FFF74C
:107A700070FEA54802F0C0FF40212943C9B2002092
:107A8000FFF767FEA14802F0B7FF80212943C9B282
:107A90000020FFF75EFE9E4802F0AEFF31E09948FD
:107AA0000078202812D140212943C9B20020FFF7D5
:107AB00050FE964802F0A0FF80212943C9B2002061
:107AC000FFF747FE924802F097FF1AE08D480078D2
:107AD000402809D180212943C9B20020FFF739FE8F
:107AE0008B4802F089FF0CE086480078602808D1B6
:107AF00080212943C9B20020FFF72BFE844802F001
:107B00007BFF80207F490870ADE0E4B2602C55D146
:107B10007C48007800281BD120212943C9B20020CD
:107B2000FFF717FE784802F067FF40212943C9B2EA
:107B30000020FFF70EFE754802F05EFF602129432A
:107B4000C9B20020FFF705FE714802F055FF31E091
:107B50006C480078202812D140212943C9B2002066
:107B6000FFF7F7FD694802F047FF60212943C9B2DA
:107B70000020FFF7EEFD664802F03EFF1AE0614884
:107B80000078402809D160212943C9B20020FFF7BD
:107B9000E0FD5F4802F030FF0CE05A480078802892
:107BA00008D160212943C9B20020FFF7D2FD58480F
:107BB00002F022FF60205349087054E0E4B2402CE8
:107BC0002ED150480078002812D120212943C9B273
:107BD0000020FFF7BEFD4C4802F00EFF4021294374
:107BE000C9B20020FFF7B5FD484802F005FF13E0D9
:107BF00044480078202809D140212943C9B20020F7
:107C0000FFF7A7FD414802F0F7FE05E040212943B8
:107C1000C9B20020FFF79DFD40203A49087022E0DC
:107C2000E4B2202C17D137480078002809D1202150
:107C30002943C9B20020FFF78CFD334802F0DCFE77
:107C400005E020212943C9B20020FFF782FD202052
:107C50002C49087007E02900C9B20020FFF779FD20
:107C600000202849087031BD10B504001F20FFF71F
:107C70008AFDBF220240E4B2002C06D1402111430C
:107C8000C9B21F20FFF765FD07E0E4B2012C04D163
:107C90001100C9B21F20FFF75CFD10BD38B504000C
:107CA0002020FFF7C7FE0120FFF7DEFF20217E48DE
:107CB000FFF7A0FC00250CE010217B48FFF79CFC9F
:107CC000EDB2605D02F0FCFD10217748FFF792FCF9
:107CD0006D1C28002178C0B28842EDD3042001F049
:107CE000A1FE01208049087080216F48FFF778FCD1
:107CF000002803D17C4800780028F5D1032001F04A
:107D000091FE31BD280F00202A680000AA10000053
:107D10006A0A000038B5040080216348FFF760FC60
:107D200000280AD071480078002806D100F056F8E3
:107D30006F49087001206D49087040215A48FFF7CB
:107D40004FFC002801D1002047E020215648FFF7D2
:107D500051FC2020FFF76EFE0020FFF785FF102169
:107D60005148FFF749FC002002F0AAFDA449087021
:107D7000A3480078402802DB0020A1490870A048F1
:107D80000078002802D09E480078207010214648D4
:107D9000FFF730FC01250DE010214348FFF72CFCD4
:107DA000002002F08DFDEDB2605510213E48FFF736
:107DB00021FC6D1C924800782900C9B28842EBD2A0
:107DC0006020FFF737FE0020484908708C48007893
:107DD000002801D0012000E0002032BD80B5142031
:107DE000FFF7D1FCC0B202BD10B504000120FFF7BF
:107DF000CAFCDB210140E4B2002C04D1C9B201204D
:107E0000FFF7A7FC14E0E4B2012C07D120200843BF
:107E10000100C9B20120FFF79CFC09E0E4B2022C8A
:107E200006D1042008430100C9B20120FFF791FCEC
:107E300010BD704780B599480088212812DB97480B
:107E4000008820389549088094480088212801DB63
:107E5000202101E09148018889B29148008800F012
:107E6000D1F80FE08F480068402188438D490860B1
:107E70008C4800688B4908608B488C49086000205A
:107E80008649088001BD874800688021884385496C
:107E90000860844800688349086083488449086012
:107EA0000020844908707047000400507D48006835
:107EB000802188437B4908607A48006879490860D6
:107EC00079487B49086077480068402188437549B4
:107ED0000860744800687349086073487349086013
:107EE0000020744908707047250F0020290F0020DA
:107EF000270F0020704A12686F4B1A606E4A126892
:107F0000802313436C4A13606C4A126880239A439F
:107F10006A4B1A60694A1268684B1A60664A1268AE
:107F200040239A43644B1A60634A1268624B1A609A
:107F3000624A1268614B1A60604A12684023134318
:107F40005E4A13605E4A126840239A435C4B1A6093
:107F50005B4A12685A4B1A60594A126880239A4346
:107F6000574B1A60564A1268554B1A604D4A1268B0
:107F70004C4B1A604B4A126840231343494A136022
:107F8000484A1268474B1A60464A126880231343D6
:107F9000444A1360414A108041480180704780B5CF
:107FA00040480068802188433E4908603D48006899
:107FB0003C4908603B4800684021884339490860D3
:107FC00038480068374908603E48394908603E48EB
:107FD00036490860FFF772FB2020FFF72BFD0E20CB
:107FE000FFF7D1FB10210143C9B20E20FFF7B1FB0F
:107FF000052001F017FD01202E49087001BD000089
:108000002A0F0020F8B56A46022359431180060062
:108010000700BFB23F0A3500FFF705FB20212B48C0
:10802000FFF7E8FA002416E0350013E01021274896
:10803000FFF7E2FA2800C0B202F042FC1021234808
:10804000FFF7D8FAA4B22000022100F07BF8002943
:10805000EAD13D00641C20006946098880B288424C
:10806000E4D3F1BD00B51A480078C0B28C2801D322
:10807000002002E01749C0B2085C00BD00B51448FA
:10808000007815490978884203D2134800781049CE
:10809000087000BD00200E4908707047BE0E002019
:1080A000C00E002000040140337E0008540E002062
:1080B000500E0020260F0020080401400C0401404F
:1080C00014040140877E0008357E0008000400503B
:1080D0002B0F00208CE80008270F002010B50400AB
:1080E000E4B2652C01DBFF2015E0FFF7BBFFC0B257
:1080F00000280FD0C0B2E4B26043642100F022F83F
:10810000401C21000200C9B2D2B2914200D220002C
:10811000C0B200E0002010BDF446002804D449425B
:1081200000F013F8404260474042002905D45FD078
:1081300000F00BF8404249426047494200F005F820
:108140004942604703460B43E6D40022030A8B42B0
:108150000BD203098B4219D243088B422ED2411A0B
:1081600000D20146524110467047FF2209023FD01B
:1081700012068B4205D3121209028B4201D312124E
:10818000090203098B4219D300E0090AC3098B4293
:1081900001D3CB01C01A524183098B4201D38B0119
:1081A000C01A524143098B4201D34B01C01A5241BC
:1081B00003098B4201D30B01C01A5241C3088B4201
:1081C00001D3CB00C01A524183088B4201D38B00EC
:1081D000C01A524143088B4201D34B00C01A52418E
:1081E000884200D3401A5241CFD201461046704710
:1081F00008B502F007FC08BD10B5041D2078C006C4
:10820000C00E4901014321702078C0B24009002806
:1082100012D0022801D01BD325E00120607002207B
:10822000A0700320E070042020712078E02101403C
:1082300004200843207016E0601C02F04DFC2178F9
:10824000E0220A40401CC006C00E104320700AE025
:10825000601C02F078FC2178E0220A40401CC00635
:10826000C00E1043207010BD00B5001D0178C90676
:10827000C90E002918D00178C9B24909C9B201292B
:1082800012D18179C9B20909C9B208290CD1417941
:108290000907090F052907D080790100C9B24908EB
:1082A0000800C007C00F00E0002000BD80B5001D21
:1082B0000178C906C90E002909D00178C9B2490957
:1082C000C9B2002903D1401C02F09EFB00E0FF2050
:1082D00002BD80B5001D0178C906C90E00290ED067
:1082E0000178C9B24909C9B2002908D1401C02F07D
:1082F0009FFB012801D1012016E0002014E0017845
:10830000C906C90E00290ED00178C9B24909C9B2FF
:10831000012908D1401C02F0A6FB012801D101204F
:1083200002E0002000E0002002BD80B5001D0178C1
:10833000C906C90E00290FD00178C9B24909C9B2CE
:10834000002905D00178C9B24909C9B2012903D170
:10835000401CFEF75FFC00E0002002BD00B5224893
:108360000078012801D1012000E00020C0B200BD4A
:1083700038B5041D402500201B4A10702078C00627
:10838000C00E00282DD02078C0B24009C0B200280D
:1083900005D02078C0B24009C0B2012821D1C9B2AD
:1083A000002904D1601CFEF777FC050003E0601C87
:1083B000FEF735FE05002078C006C00E411EC9B28A
:1083C000601CFEF7C7FA01280BD12078C006C00E4A
:1083D000411EC9B2601CFEF709FB0120024908706A
:1083E000FFE72800C0B232BD160F002000B5BFF372
:1083F0004F8F7B4894490860BFF34F8F00BFFDE764
:1084000080B5BD480079012840D1BB48C079FF281C
:1084100007D1B948C079FEF796FF0620FDF70DFA9F
:1084200039E0B548C079E12807D1B348C079FEF7F3
:108430008AFF0620FDF701FA2DE0AF48C079E22857
:1084400007D1AD48C079FEF77EFF0620FDF7F5F9AC
:1084500021E0A948C079E32807D1A748C079FEF7F1
:1084600072FF0620FDF7E9F915E0002002F0ECFBB1
:10847000FF2807D0A048C079FEF765FF0620FDF76A
:10848000DCF908E00F20FDF7D8F904E0FEF753FF10
:108490000620FDF7D2F901BD80B597480079012883
:1084A00007D19548C079FEF765FF0620FDF7C5F9AD
:1084B00002E00F20FDF7C1F901BD38B50C008E496F
:1084C0000979002932D180218C4A917006218B4A8A
:1084D00051708949C978894AD17087490979874A91
:1084E00011710021854A51710021844A9171002146
:1084F000824AD171E4B2824D220001002800FCF7CB
:10850000F9FE2000401C7D4908720B347B48047042
:108510007A4801787948FDF751F97848027892B2A3
:1085200076490020774B1B68984702E00F20FDF743
:1085300084F931BD80B54020694608700121684644
:10854000FFF7BBFF01BD10B56B480079002804D1CF
:108550001821B948FFF7B1FF1AE0674800790128F0
:1085600013D16548407935280BD163488079762846
:1085700007D118226449B04C2000FCF7BBFEFDF780
:1085800022FD0620FDF759F902E00F20FDF755F90D
:1085900010BD10B558480079002804D11821B548FD
:1085A000FFF78BFF1AE054480079012813D1524895
:1085B000407935280BD150488079762807D1182288
:1085C0005149AC4C2000FCF795FEFDF7FCFC062061
:1085D000FDF733F902E00F20FDF72FF910BD000081
:1085E0000400FA0510B544480079002804D103219D
:1085F000A148FFF762FF26E03F48007901281FD11C
:108600003D484079352817D13B488079762813D1E9
:1086100003223D49984C2000FCF76CFE0123082200
:108620000021BF4801F091FF012308220821BC4826
:1086300001F08BFF02F0C6FA0620FDF7FEF802E01B
:108640000F20FDF7FAF810BD0CED00E010B52A4838
:108650000079002804D10321B148FFF72EFF4AE03A
:1086600025480079012843D12348407935283BD15A
:1086700021488079762837D103222349A84C20004D
:10868000FCF738FE012308220021A54801F05DFF18
:10869000012308220821A24801F057FF02F092FAB4
:1086A000AC480078BA490870AA484078B849487080
:1086B000A8488078B6498870A648C078B449C87080
:1086C00097484078B249087195480078B049487198
:1086D000B0480078AE498871AE484078AC49C8715E
:1086E000AC488078AA4908720620FDF7A6F802E097
:1086F0000F20FDF7A2F810BD4C0A00205C090020F5
:10870000650900205C0E0020550A002038B5B148EC
:108710004479E4B2402C03DB0F20FDF78EF889E0AA
:10872000AC480079002808D10921C248E4B20922E6
:1087300054430019FFF7C1FE7CE0A64800790128E8
:108740002BD1A4480078142823D1A2488079352859
:108750001BD1A048C079762817D10922B949B5485C
:10876000E4B209236343C5182800FCF7C3FD0023C6
:108770000922E4B2092161434A3189B2AD48E4B229
:1087800009256C43001901F0E0FE0620FDF755F8BD
:1087900050E01020FDF751F84CE08E480079022897
:1087A00021D18C480078142819D18A48807935283D
:1087B00011D18848C07976280DD10922A1499D4858
:1087C000E4B209236343C5182800FCF793FD200099
:1087D000C0B2FEF78EFD0620FDF72FF82AE010202C
:1087E000FDF72BF826E07B480079032822D1794851
:1087F000807935281BD17748C079762817D109218F
:10880000FF228C48E4B209236343C518280002F014
:108810002FF800230922E4B2092161434A3189B2C9
:108820008448E4B209256C43001901F08EFE06204D
:10883000FDF703F831BD00008C0C002080B50F203F
:10884000FCF7FBFF01BD80B562480079012803D128
:108850000120B949487002E00020B749487001235F
:1088600008221021B44801F070FE0620FCF7E5FF55
:1088700001BD0000A40C0020030E002080B5554867
:108880000079002804D10121AB48FFF716FE1BE058
:1088900050480079012814D14E484079002803D16E
:1088A0000020A549087002E0FF20A34908700123B9
:1088B00008221021A04801F048FE0620FCF7BDFF69
:1088C00002E00F20FCF7B9FF01BD80B541480079F7
:1088D000002804D10121A048FFF7EFFD1EE03D482C
:1088E0000079012817D13B484079002803D10020A6
:1088F000B249887002E0FF20B04988700123082245
:108900001021AE4801F021FE022000F0C5FC062037
:10891000FCF793FF02E00F20FCF78FFF01BD000082
:10892000000E002010B50020002100E0491CC9B253
:108930000C290DDAA24AC9B202234B43D3181A7884
:108940005C782406240C224392B2002AEED0012047
:10895000C0B210BDACEB000838B50025002400E023
:10896000641CE4B2402C0FDA0922E4B2092161430D
:108970004A31C9B22F48E4B209236343C01801F059
:10898000C1FD0028ECD001252800C0B232BD000096
:10899000E80D0020B0EB000880B5FFF7C3FF00280A
:1089A00007D1FFF7D9FF002803D1012069460870DD
:1089B00002E000206946087082480079002804D14E
:1089C00001216846FFF779FD02E00F20FCF735FF33
:1089D00001BD00004C0A002080B57A4800790028CB
:1089E00004D101217848FFF768FD15E0754800794A
:1089F00001280ED173484079002803D10020724924
:108A0000087002E0FF20704908700620FCF715FF8F
:108A100002E00F20FCF711FF01BD80B506216B4875
:108A2000FFF74BFD01BD80B503216948FFF745FD08
:108A300001BD00003C06002080B504216548FFF719
:108A40003CFD01BD550A002080B504216248FFF7B6
:108A500034FD01BD80B502F0F5F90620FCF7EDFE0E
:108A600001BD10B507225D495D4804682000FCF790
:108A700041FC5C4800785A490968087059484078B8
:108A8000574909684870574880785549096888707F
:108A90004C48007B54490978401851490968C8700E
:108AA00048480079E02807D046480079E12803D0FB
:108AB00044480079E22807D100234C4A002141486C
:108AC0000079FDF7B8FB02E00F20FCF7B6FE10BD01
:108AD00080B50F20FCF7B1FE00204549087001BDAC
:108AE00080B538480079002822D13648407962287C
:108AF0001ED13448807936281AD10620FCF79DFE15
:108B00003C4801F079FF72B602F006FA02F0A6FACC
:108B100002F024FA0128F9D03748006880210904BE
:108B2000014335480160354835490860FFF75EFC70
:108B30000F20FCF782FE01BD100E002080B53C2006
:108B4000304908800220FBF7E9FA00202649087026
:108B5000FFF787FF01BD0000120E002080B5FF2047
:108B6000FEF7F1FB0620FCF768FE01BD80B5022090
:108B700000F092FBFF20FEF7E6FBFFF7DFFFFF2090
:108B80001149087000201A49087001BD80B50822FB
:108B900010210A4801F0C1FC002808D10120074932
:108BA0004870002005490870002004498870FF20A3
:108BB0000549087000200E49087001BD100E002004
:108BC0008C0C00204C0A00203A0F0020080E0020D8
:108BD000EE0D0020E80D0020B4EB0008550A00203F
:108BE000300E0020000E00203D0F0020FFFF00008F
:108BF0003B0F00202A6800005010024058FB7E10F6
:108C0000FC4F0020E20E002000200C490870704745
:108C100080B5FFF7F9FF00200949087001200949D4
:108C2000087000200849087001BD80B5FFF7F0FF0B
:108C3000FEF7F1FC02F0AAFC01BD0000FE0E0020D0
:108C4000010F0020FF0E0020000F002000207047C1
:108C50002A482949086009202649087000202B4924
:108C6000087005201349087029480078FE2101404A
:108C70002748017026480078EF2101402448017000
:108C800023480078F72101402148017020480078EE
:108C9000FD2101401E4801701D480078FB21014064
:108CA0001B4801701A480078DF2101401848017004
:108CB00070470000020F002080B515480078BF21E2
:108CC000014013480170124800784006400E1049D8
:108CD000087000200C4908700E4800780949087097
:108CE000002007490870FFF7B3FFFEF787FC02F08A
:108CF0004EFC01BD040F0020400E0020A00D0020FE
:108D0000060F0020050F0020FD0E0020030F00209D
:108D1000070F0020FC0E002080B502F035FC01BDDD
:108D2000001D0178411848788A781206120C104309
:108D300080B2704700B5002100E0491CC9B210297B
:108D400006DAC24AC9B202234B43D25A1042F4D0C7
:108D50000F20401AC0B200BD80B502F0B5FC01BDC5
:108D600080B502F09BFC01BD80B580B202F086FCAC
:108D700001BD00B5A4480088002809D0A248008899
:108D8000A249884204D0A0480088401E9E4908801D
:108D90009F480088002809D09D4800889B49884248
:108DA00004D09B480088401E994908809948008853
:108DB000002809D0974800889449884204D09548F3
:108DC0000088401E93490880A1480088002809D0E7
:108DD0009F4800888D49884204D09D480088401EE5
:108DE0009B490880A0480088002809D09E48008838
:108DF0008649884204D09C480088401E9A490880D1
:108E0000B0480078002804D0AE480078401EAD4934
:108E1000087000BD80B5FFF79FFFAB48FFF7A4FFC8
:108E200001BD80B59E480078401C9D490870012016
:108E300075490880FFF790FFA448FFF795FF01BD33
:108E400080B5FFF789FFA148FFF78EFF01BD80B510
:108E50000078642148439E4940189E4908800120BB
:108E6000694908809B480088FFF77EFF01BD80B5F7
:108E700080B202F0F3FB01BD10B504002000FFF743
:108E80004FFF80B2FFF756FF211D0A7889184A78F4
:108E90008B781B061B0C1A4392B2002A03D15B4845
:108EA000714908803BE0401C0A78D2B21209D2B264
:108EB000002A03D155486C49088030E00A78D2B2C4
:108EC0001209D2B2012A09D1C0B203225043097853
:108ED0000907090F401A644908801BE00A78D2B2DA
:108EE0001209D2B2022A08D1C0B209780907090FC3
:108EF0004018401C5C4908800CE00A78D2B2120984
:108F0000D2B2032A06D1C0B209780907090F401A64
:108F100055490880FFF720FF6B48FFF725FF10BD7C
:108F200070B504000D001600280080B2FFF702FFA4
:108F3000211D0A7889182A004A70120A8A700A7854
:108F40001207120F0A700B78F0221A40624B1B783E
:108F50001B071B0F13430B70ADB2002D01D1002076
:108F600000E0401CF6B2002E08D0012E0ED0022EDA
:108F700016D0052E1ED0062E26D030E0C0B256499F
:108F800009784018001D5549088028E0C0B2022128
:108F90004143514800780818001D504908801EE0E0
:108FA000C0B2032141434C4800780818001D4B49CA
:108FB000088014E0C0B202214143474800780818F5
:108FC000401D464908800AE0C0B2022141434248A0
:108FD00000780818FF21123140184049088070BD00
:108FE000704780B52E480078401C2D490870042039
:108FF00039490870012007490880FFF7ADFE38485D
:10900000FFF7B2FE01BD0000D20E0020FFFF0000FE
:10901000D40E0020D60E002080B52F4909780029F3
:1090200012D02D490978491E2B4A1170007864210D
:1090300048432C4940182749088001202A490880C4
:1090400024480088FFF790FE01BD0000B8EA000840
:10905000D80E002025482449088024481F4908804C
:109060002248234908807047DA0E002000B51E48C8
:1090700000881E49884210D1184800881B49884240
:109080000BD11B4800881949884206D1194800882D
:109090001649884201D1012000E0002000BD0000F7
:1090A0000F0F002080B502F02DFBFFF7D3FF0F4814
:1090B000104908800D48104908800948FFF754FE00
:1090C00001BD0000250F00201027000088130000BC
:1090D000A8160000DC0E00203C0F0020D80E002057
:1090E000C40900003A160000D60E0020FFFF000061
:1090F000DA0E0020D20E0020D40E002080B59C484D
:1091000000780100C907C90F00291AD098480078D3
:10911000FE21014096480170FDF754FC02F034FB3B
:1091200000F066FF9B480078002804D0994800783A
:10913000401E98490870FFF799FF012801D1FEF7FA
:1091400069F88B480078C0B240080100C907C90F10
:10915000002914D086480078FD2101408448017020
:1091600000F01AF993480078002804D0914800785C
:10917000401E9049087000F06CF800F0C3F88E486B
:109180000078002803D000208C49087002E00120FC
:109190008A49087000208A4908708A4800788749FF
:1091A0000978884216D0012085490870FDF7ADFB8B
:1091B00000280DD184480078002805D08248007826
:1091C000401E8149087005E005207F49087001E0D4
:1091D000FDF79EFB794800787A49087000F016FD8B
:1091E00001BD00B579480088401C7849088078485E
:1091F0000088401C7649088076480088401C7549E4
:10920000088072480088032808DB00206F49088026
:109210005748007801210143554801706C48008887
:10922000192808DB00206A4908806B48007804216F
:1092300001436948017067480088642808DB002002
:10924000644908804A480078022101434848017077
:1092500000BD80B561480088002817D100F014FDDA
:10926000012803D1012000F017F814E005205B4924
:1092700008805B480078401C5949087058480078BD
:10928000062808DB012000F007F804E053480088B6
:10929000401E5249088001BD10B50400FF20800027
:1092A0004E49088000204E490870FEF735FAFFF756
:1092B000F9FE00F098FBFCF749FAFDF779F902F0A6
:1092C000BBFBFCF72CFEFFF727FD2000C0B2FEF72A
:1092D000DBF801F077FCE4B2002C02D0E4B2022CFF
:1092E00004D1002000F046F8FCF777FEE4B2022C2F
:1092F00007D1002032490870002033490870FDF77B
:1093000007FB10BD80B500F022F801281ED1FFF741
:10931000ADFE01281AD1FEF761FD32490988C0B2BD
:109320000918304A11802F490978C9B22D4A12888C
:10933000090251402B4A11802A490988002905D188
:1093400028490988C0B208182649088001BD00B51F
:1093500025480078012803D023480078022801D14D
:10936000012000E00020C0B200BD20490880704705
:10937000500F002080B5C0B2042800DB00201A493D
:10938000087019480078012803D1E1208000FFF718
:10939000ECFF01BD2C0F002080B514480088401E52
:1093A0001249088011480088002801D1FDF7C3FF49
:1093B00001BD0000520F0020190F0020570F0020A0
:1093C000540F0020560F0020550F0020EA0E0020F9
:1093D000EC0E0020EE0E0020FA0E0020E80E002019
:1093E000530F0020E60E0020510F0020E40E002055
:1093F00080B5C0B2FBF764FE01BDFEE780B500207A
:1094000002F096FD002002F03BFD38480078012173
:1094100001433648017001BD10B50024334800787F
:109420000100C907C90F002908D030480078FE2183
:1094300001402E4801700F20FCF7FFF92C480078FE
:10944000002817D100202B49087001222A4900204A
:1094500002F0C4FD00280DD0274800782549087087
:1094600024480078002805D00120214908700420F4
:10947000224908701E4800781E49097888420DD29A
:109480001C4800781A490978421A92B21A481849B9
:1094900009784118002002F0A1FD0400E4B2002C7C
:1094A00002D0042015490870E4B2002C0CD01048FA
:1094B000007800190E4908700D4800780E490978A7
:1094C000884201D1FCF7D0F910BD80B5FFF796FFB7
:1094D00001BD00200A4908700020054908700348B2
:1094E0000078FE210140014801707047330F0020D1
:1094F000350F0020380F00204C0A0020340F0020C8
:10950000370F002080B5C9B2FDF74EFE01BDF2B5A0
:1095100004001600AF488578AF4FB048F6B2092175
:1095200071434018C079C0B20009C0B200282DD0E4
:10953000F87805280ED1380002F0DCFD0400380070
:1095400002F0D0FD3200D2B22100C9B2C0B2FBF7A6
:10955000FBFC3DE1F6B2402E18D03978091FEDB280
:109560002800401C081A072810D13800FEF77CFE9E
:10957000002803D0FDF7BBF9012807D13200D2B291
:10958000684601782000FBF799FC21E10020AF49F3
:1095900088700120AD4948706846007801280FD1D5
:1095A0006079C0B240080100C907C90F002903D083
:1095B0000220A649C87007E00120A449C87003E052
:1095C00068460078A149C870A0480671F6B2402EDE
:1095D00036D08248F6B2092171434018C079C0B232
:1095E0000009C0B2022820D07C48F6B2092171439C
:1095F0004018C079C0B20009C0B2032815D077481E
:10960000F6B2092171434018C079C0B20009C0B256
:1096100004280AD07148F6B2092171434018C07974
:10962000C0B20009C0B205280AD1894800780A21D1
:1096300048431221FEF786FD0A308449487102E052
:10964000002082494871814880798007800F7F49D6
:1096500088716248F6B209217143401880797B49CC
:10966000C871A548A1788906890E405CF6B2402EE3
:1096700008D176488079FC210140022008437349D3
:1096800088718AE021790907090F052961D02179BC
:109690000907090F012908D16179C9B20909C9B2BD
:1096A000082902D1C0B2002853D021790907090F37
:1096B000012908D16179C9B20909C9B2082902D1C1
:1096C000C0B2012845D021790907090F012908D125
:1096D0006179C9B20909C9B2082902D1C0B2032807
:1096E00037D021790907090F012908D16179C9B259
:1096F0000909C9B2082902D1C0B2042829D02179A8
:109700000907090F022908D16179C9B20909C9B24B
:10971000082902D1C0B201281BD021790907090FFD
:10972000022908D16179C9B20909C9B2082902D14F
:10973000C0B203280DD021790907090F022924D1CD
:109740006179C9B20909C9B208291ED1C0B2042879
:109750001BD16A48F6B2805DC0B2C0080100C907DB
:10976000C90F002908D039488079FC210140012027
:1097700008433649887110E034488079FC21014063
:10978000022008433149887107E030488079FC2184
:109790000140022008432D498871EDB22A002100C2
:1097A000574C2000FBF7A6FD2800401C27490872F3
:1097B0000B3526480570254801782448FBF7FEFF45
:1097C0002248027892B2214900204E4B1B689847EC
:1097D000F1BD0000440E00200C0C00203C060020CF
:1097E00010B507224849494804682000FBF782FD6C
:1097F000474800784549096808704548407843491A
:109800000968487042488078404909688870414832
:10981000007A0838404908703F480078142811DA67
:109820003D4802783D493E4804682000FBF762FD50
:109830003848427937480179344800688079FCF724
:109840003DFB02E01120FBF7F8FF10BDAC09002042
:10985000270F002010B506222B492C480468200051
:10986000FBF748FD2A48C07828490968087028484D
:1098700000792649096848702648C07A8006800E1B
:109880003F2805D1224840792049096888700BE0BB
:109890001F484079C02101401E48C07A8006800ED2
:1098A00008181A49096888701A48007AC01F1A49AE
:1098B000087019480078152819DA174802781949EC
:1098C000194804682000FBF715FD1048006840792E
:1098D000C0B2C0080100C907C90F144801700D4883
:1098E00042790C4801790020FCF7FBFA02E01120D4
:1098F000FBF7A3FF10BD000084E90008CC0B00209B
:10990000B50900205C0E0020550A0020300E002012
:10991000000E00204C0A0020F00E00205C0A0020FF
:10992000280E00205B0A00202C0E0020F10E0020E3
:1099300010B501000024481C0A78002A01D1012436
:109940001FE00A78012A07D10422354900F0D4FE2D
:10995000002816D1012414E00A78022A07D1062231
:109960002F4900F0C9FE00280BD1012409E0097835
:10997000032906D109222A4900F0BEFE002800D1A1
:1099800001242000C0B210BD10B501000024481C05
:109990000A78042A01D101241FE00A78052A07D198
:1099A00004221F4900F0A8FE002816D1012414E06B
:1099B0000A78062A07D10622194900F09DFE0028E0
:1099C0000BD1012409E00978072906D1092214499D
:1099D00000F092FE002800D101242000C0B210BD8A
:1099E00087490870704780B506208649087000F0E6
:1099F0005FF90220844908700820834948700920D3
:109A00008149887011208049C87003207E490871FF
:109A100018207D4948710520FFF7E2FF01BD0000D5
:109A2000E80D002080B5C0B200280BD0022862D01B
:109A30002FD3042800D1AEE000D289E0052800D160
:109A4000CFE0DCE0FFF78CF901F09FFD6D48007876
:109A5000042807D06B480078032803D069480078B1
:109A6000062806D10020FDF72DFF0020FDF777FF27
:109A700006E064480078022802D10020FDF76FFF5D
:109A80000020FDF7D7FFFDF7F8FD00205D490870C5
:109A9000B5E0FFF765F9FDF711FE5A480078002898
:109AA00003D12020FDF7C6FF19E0564800780428AE
:109AB00007D054480078032803D05248007805287E
:109AC00006D10020FDF7FEFE0020FDF748FF06E06E
:109AD0004C480078022802D10020FDF740FF6020AA
:109AE000FDF7A8FF0120474908700220FDF762FF3B
:109AF000FFF79BF883E0754800780100C907C90F9C
:109B000000297CD1FFF72CF90520FFF769FFFDF74D
:109B1000D5FD3C480078002803D12020FDF78AFFBE
:109B20000AE038480078042803D036480078032833
:109B300002D10020FDF7C6FE0120FDF710FF8020B6
:109B4000FDF778FF02202F490870FFF7B5F856E0BF
:109B500001F01BFDFDF7B2FD2A480078002806D170
:109B60002020FDF767FF0120FDF7ACFE0AE0254845
:109B70000078022803D023480078012802D1012070
:109B8000FDF7A0FE6020FDF755FF03201D4908707A
:109B9000FFF7E2F833E001F0F8FC0520FFF720FFC3
:109BA000FDF78CFD17480078002806D12020FDF72E
:109BB00041FF0120FDF786FE0AE0124800780228E6
:109BC00003D010480078012802D10120FDF77AFE69
:109BD0008020FDF72FFF04200A490870FFF7BCF82A
:109BE0000DE001F0D2FC0120FDF76CFE0120FEF734
:109BF000FBF88020FDF71EFF05200249087001BD1B
:109C00002E0F00202D0F0020080E002010B51D483B
:109C10000078002803D01B480078042803D12D4881
:109C200000F0E8FA2DE017480078032815D100204D
:109C300027490870284802F023FE022809D1264847
:109C4000C078FE2805D140222349224C2000FBF792
:109C500051FB204800F0CEFA13E00A4800780528AE
:109C60000FD11E480078002802D100F077F908E0F3
:109C70001B480078002804D1FEF718F90120FFF7EF
:109C80000BFB10BD2D0F002080B5FFF7EFF9012869
:109C900009D106480078002805D112480078052827
:109CA00001D0012000E0002002BD00002C0F0020A8
:109CB00080B50D480078002803D10320FFF7B2FEDD
:109CC00002E00320FFF7AEFE01BD0000FA0E002007
:109CD0002F0F00204C0C00200C0C0020260F002021
:109CE000250F00202D0F00202C0F002038B5040078
:109CF0000D00049825706270A370E0702000FFF7DB
:109D00008BF92900C9B2200000F0BDFC6078012861
:109D100002D1200000F0C6FC2000FDF7BFFF6078F4
:109D2000012802D1200000F0BDFC31BD10B50400B7
:109D3000FF20A2490870FAF70AFAAA490978C0B2C6
:109D4000401E814204D100212000FEF755FA0BE0AD
:109D5000FAF7FDF9A4490978C0B2401E814203D147
:109D600001212000FEF748FA2079C006C00E801DB0
:109D700020709248007860709C480078A0700020A5
:109D8000E070FFF747F82178200000F07CFC607855
:109D9000012802D1200000F085FC2000FDF77EFFA5
:109DA0006078012802D1200000F07CFC8D4800780A
:109DB000002806D18C480078002802D12120FFF726
:109DC00017FB10BD10B504002079C006C00E801D21
:109DD00020702079C006C00E2018093002F0ACF9BE
:109DE0002178081820707548007860707F480078E6
:109DF000A0700520E0709E480068B049884202D1FA
:109E0000AE48FCF7F5FC10BD10B50400FF206B490F
:109E100008709848007800280DD096480078401EB9
:109E20009449087093480078022815D10021200039
:109E3000FEF7E2F910E0B648007800280CD0B448EC
:109E40000078401EB2490870B1480078022803D15A
:109E500001212000FEF7D0F999480078C0B2C0096E
:109E6000C0B200280DD083480078022809D1944858
:109E700000784006400E924908702000FFF7A2FFCC
:109E800039E07C480078022803D0A14800780228F5
:109E90002FD12079C006C00E801D20704748007861
:109EA000607052480078A0700020E0707048006830
:109EB0008249884219D16E4800680078C0B2C00853
:109EC0000100C907C90F00290BD09248007801286A
:109ED00007D1674800684078012101436448006861
:109EE00041707648FCF784FC05E00020FCF780FC1C
:109EF00001E0FCF763FB5F480078002803D1844849
:109F00000078002802D02000FEF7A1FF2000FDF716
:109F1000C5FE6078012802D1200000F0C3FB55483F
:109F20000078002806D17A480078002802D12F2036
:109F3000FFF75EFA10BD80B5FEF731F82021A0488A
:109F40000088FEF75FF89E4801889E48FDF7D2FF23
:109F50001E209D490870FEF773FF01BD80B50320E8
:109F6000FFF760FD0220FDF73FFF55480078C0B2C3
:109F700040090100C907C90F002909D050480078DD
:109F8000DF2101404E48017003203A49087011E07A
:109F90004B480078C0B280090100C907C90F0029E9
:109FA00008D047480078BF21014045480170032090
:109FB00057490870FEF735FF01BD0000100F002063
:109FC00080B508480078002802D102207F49087037
:109FD000FAF7BDF8034908707D480078401C7C49B9
:109FE000087001BD110F0020120F00200F0F00207C
:109FF00000B57848007800281AD074480078401ED0
:10A00000724908707148007800282FD102206F49EA
:10A01000087070480078401E6E4908702848007823
:10A02000012101432648017021206B4908701DE081
:10A030006A480078002819D064480078401E6349B7
:10A04000087062480078002810D102205F4908702B
:10A0500062480078401E6149087019480078012163
:10A0600001431748017021205B49087000BD0000C2
:10A070009C0E0020140F00207CB50400FF2509224F
:10A080005749661D3000FBF735F906225549260071
:10A090000E363000FBF72EF90822534926001436FD
:10A0A0003000FBF727F92577FE200090A37862782F
:10A0B0001F212000FFF71AFE73BD0000200E0020B4
:10A0C0000B0F00201CB5040048480078042803D179
:10A0D00000212000FEF790F8FBF754FF0100022258
:10A0E00089B22000FEF71CFF200001F0CBFB01210C
:10A0F000009137490B783E490A782179C906C90E83
:10A1000009180931C9B22000FFF7F0FD13BD0000A6
:10A11000150F0020400F002038B5040033480078A8
:10A12000042803D100212000FEF766F82000FBF789
:10A130000FF9E02801D1062500E00525FBF722FFF5
:10A140002A00D2B2010089B22000FEF7E9FE200009
:10A15000FBF704F9022100911D490B7824490A7884
:10A160002179C906C90E09180931C9B22000FFF7C3
:10A17000BDFD31BD1CB504001C480078042803D186
:10A1800000212000FEF738F8FBF7FCFE0100022258
:10A1900089B22000FEF7C4FE2000FCF71EF903215F
:10A1A00000910B490B78B2490A782179C906C90E8A
:10A1B00009180931C9B22000FFF798FD13BD00004E
:10A1C000E00E00207B020000250F0020130F00206E
:10A1D0000F0F0020110F00202C0F0020120F002065
:10A1E000E80D0020080E0020000E00203C0F00208B
:10A1F000100F002010B504009E4800780100C90728
:10A20000C90F002918D09B480078FE2101409948C9
:10A2100001702000FFF78AFD97480078002807D1D9
:10A2200096480078002803D10320FFF7FBFB1EE1CE
:10A230002020FDF7FFFB1AE18E480078C0B24008ED
:10A240000100C907C90F00290DD08A480078FD21F7
:10A25000014088480170FF208549087088480078CF
:10A2600001F0CDFB03E183480078C0B28008010013
:10A27000C907C90F00290DD07E480078FB21014095
:10A280007C480170FF207A4908707E480078FBF70F
:10A29000FDF9ECE077480078C0B2C0080100C907BA
:10A2A000C90F00290DD073480078F721014071488B
:10A2B0000170FF206E49087073480078FCF74AF976
:10A2C000D5E072480088002816D1FCF709FB002869
:10A2D00012D06F486D4908806E480078002805D07C
:10A2E000012806D103206C49087002E003206B4965
:10A2F0000870FEF796FDBAE06948008800280CD186
:10A300006348624908806248654908802000FFF779
:10A310007BFD0320FFF786FBA9E062480078002858
:10A3200005D000205F490870FFF705FE9FE0514807
:10A330000078C0B240090100C907C90F002913D035
:10A340005948007800280FD15848007800280BD1D0
:10A3500048480078DF2101404648017003204F49FA
:10A360000870FEF75EFD82E042480078C0B28009C6
:10A370000100C907C90F002913D04B4800780028F5
:10A380000FD14A48007800280BD13A480078BF2105
:10A3900001403848017003203F490870FEF741FD35
:10A3A00065E04248007800280ED041480078002837
:10A3B0005DD040480078002859D100203B49087002
:10A3C00001203849087052E03B480088002829D114
:10A3D0002F4839490880E078012806D002280BD0A0
:10A3E000032810D0FE2815D01BE02000FFF76AFEDE
:10A3F0000320FFF717FB3AE02000FFF78DFE032054
:10A40000FFF710FB33E02000FFF7B4FE0320FFF757
:10A4100009FB2CE02000FFF72FFE0320FFF702FBD3
:10A4200025E024E025480088002817D11848234952
:10A430000880E078012804D00FD3032809D004D382
:10A440000BE0200001F099FA11E02000FBF752F830
:10A450000DE02000FCF768F809E008E018480088E3
:10A46000002804D10A481649088002F077FA10BD86
:10A47000100F00200B0F0020110F0020120F0020E2
:10A480000C0F00200D0F00200E0F0020D40E002016
:10A49000FFFF00003F0F0020150F0020140F0020C9
:10A4A000D20E0020460F0020260F0020470F00206C
:10A4B000540F0020550F0020D60E0020D80E00208B
:10A4C000DA0E002030B50023002203E0D2B2845C13
:10A4D0001B19521C14000D00E4B2EDB2AC42F5D3CE
:10A4E000DBB2D843C0B230BD10B51400C9B2FFF71B
:10A4F000E9FF2200D2B2824201D1012000E0002017
:10A50000C0B210BD80B51100C9B24218521E1278F7
:10A51000491EC9B2FFF7E8FF02BD70B506000D0085
:10A520001400220092B2290089B2300000F000FD30
:10A53000002807D02200D2B22900C9B23000FFF7AC
:10A54000E1FF00E00020C0B270BDF8B506000D00CC
:10A55000170000200024DBB2012B0DD1BFB2022F67
:10A560000ADB3800411EC9B23000FFF7ABFFBFB2B3
:10A57000F119491E087000E00124290000233A0067
:10A5800092B289B2300000F00AFD00280CD0E4B28B
:10A59000012C07D100F0C0FC00F060FD00F0DEFCF3
:10A5A0000128F9D0012000E00020C0B2F2BD80B542
:10A5B00000F044FE01BDFEE710B50022002303E0D9
:10A5C000DBB2C45C12195B1CDBB2C9B28C1EA342A5
:10A5D000F6DBD3435B1C1A0092B2120AC9B24418CC
:10A5E000A41E2270C9B24018401E037010BD70B581
:10A5F0000200002000230BE00402094D80B200128B
:10A60000DBB2D65C464002204643A85B60405B1C40
:10A610001C000D00E4B2EDB2AC42EDD380B270BDCF
:10A62000CCE5000838B504000D00A91EC9B2200011
:10A63000FFF7DDFF010089B2090AEDB26219921E2F
:10A640001170EDB26119491E087031BD38B50400B2
:10A650000D00A91EC9B22000FFF7C9FFEDB26119B4
:10A66000891E0978020092B2120AD2B2914208D130
:10A67000EDB26119491E0978C0B2814201D10120B1
:10A6800000E0002032BD80B5C9B2FFF7CBFF01BDAD
:10A6900080B5C9B2FFF7DAFF012801D1012000E03F
:10A6A000002002BD30B50178827800230AE0104C0A
:10A6B000DBB2E45CD518ED186D1D65400D4CDBB2C6
:10A6C000E5545B1CDBB2102BF1D304220AE0D2B2BA
:10A6D000835C084CD2B215072D0F645D5C40D2B28A
:10A6E0008454521CD2B2C9B28B1E9A42EFDB30BDE9
:10A6F00044EB0008B80D002010B402E0401C491CD7
:10A70000521E002A09D00B7804789C42F6D002D25F
:10A710000020C04302E0012000E0002010BC704790
:10A720000F228A40D3430340064A80B20841000703
:10A73000000F125C8A400F2088401040184380B2FE
:10A740007047000054EB0008FEB50D00089E1F2462
:10A7500013E0694609796A46127A12028F18F6B236
:10A7600077404740E4B220000D21FDF7EBFCC9B271
:10A77000380080B2FFF7D4FF641EE4B2FF2CE8D1AA
:10A780002988002902D1288001200EE02988203163
:10A7900080B2814207DB2988020092B2914202D244
:10A7A0002880012001E028800020FEBDF8B5048843
:10A7B000641C04800488002C01D1012404801D0045
:10A7C00016006A4611700788002412E0E4B22000E7
:10A7D0000D21FDF7B7FCC9B2380080B2FFF7A0FF2A
:10A7E00069460978F6B232028F184740EDB26F40E1
:10A7F000641CE4B2202CE9DB380080B2F2BD10B555
:10A80000030001240020E4B2012C12D14879C0B227
:10A8100080080400E407E40F002C05D0D2B2180031
:10A82000C0B202F0B3F804E0D2B21800C0B202F035
:10A83000C7F8C0B210BD10B5030001240020E4B277
:10A84000012C12D14879C0B280080400E407E40F5B
:10A85000002C05D0D2B21800C0B200F025FA04E0F6
:10A86000D2B21800C0B200F039FAC0B210BDFEE793
:10A870001206130A1A43130C1A4300BF094205D0EB
:10A88000830705D00270401C491EF9D170470000B3
:10A89000130030B414001500103902D310393CC035
:10A8A000FCD2490700D30CC000D504C0890002D3F4
:10A8B0000280801C002900D5027030BC7047000067
:10A8C00010B5040000F076F8E4B23E4804603E485B
:10A8D0000068C007FBD53B480468052000F08CF8F1
:10A8E0002000C0B210BD394800680121014337483B
:10A8F0000160A020C005006835490140A020C005C6
:10A900000160A020C0050068802109010143A0204A
:10A91000C00501602F4800688021090101432D48CE
:10A920000160A020C00500682B490140A020C0059F
:10A930000160A020C0050068802189010143A0209A
:10A94000C0050160A020C005006824490140A02086
:10A95000C0050160A020C0050068802109020143F4
:10A96000A020C00501601E48006880214901014304
:10A970001B4801601B4800681B49014019480160E1
:10A9800014201A4908600420194908601748006813
:10A990004021014315480160704714480068402178
:10A9A0008843124908600E480068124901400C486B
:10A9B0000160704780B50A480068C00401D4FFF701
:10A9C00092FF01BD0C300140083001402C100240C4
:10A9D000FFF3FFFF08000050FFCFFFFFFF3FFFFF27
:10A9E000341002401C300140FFF7FFFF00300140EF
:10A9F00004300140FFEFFFFF002801D0401EFBE7BD
:10AA00007047FEE77047FEE700B50178854A127887
:10AA100091420BD14178834A5278914206D1817894
:10AA2000804A9278914201D1C07800E0FF2000BDB9
:10AA300010B5040020787B490978884211D16078EC
:10AA40007849497888420CD1A0787649897888423B
:10AA500007D101F0D9FFE178C0B2814201D10120D4
:10AA600000E0002010BD00B501786E4AD278914216
:10AA70000BD141786B4A1279914206D180786949AD
:10AA80004979884201D1012000E0002000BD00B5D5
:10AA90000178644A127891420BD14178614A527828
:10AAA000914206D181785F4A9278914201D101208A
:10AAB00011E001785B4AD27891420BD14178594A32
:10AAC0001279914206D1807856494979884201D15C
:10AAD000012000E0002000BD38B5040007225348E3
:10AAE00001682000FAF706FC002007E050490968D9
:10AAF000C0B2095CC0B22218D171401C01004D4A9D
:10AB00001278C9B29142F1D34A4805780B35A3783F
:10AB1000627821784448FFF749FE0100EDB26219DE
:10AB2000121F117080B2000AEDB26119C91E0870BF
:10AB30002900C9B22000FFF73FFD1920FEF758FC9D
:10AB40002800C0B232BD38B505000622374801687A
:10AB50002800FAF7CFFB002007E037490968C0B2A8
:10AB6000095CC0B22A189171401C0100314A127868
:10AB7000C9B29142F1D331480078012814D12D484F
:10AB800004780A34AB786A7829782D48FFF70EFEEE
:10AB90000100E4B22A19121F117080B2000AE4B257
:10ABA0002919C91E087002E02248047808342100DF
:10ABB000C9B22800FFF700FD1820FEF719FC20009D
:10ABC000C0B232BD10B5082200211648FFF7A5FC1F
:10ABD0001448C27907211348FFF786FC00281FD1CB
:10ABE000082200210F48FFF798FC002818D10822FE
:10ABF00008210C48FFF791FC002811D108221149C7
:10AC0000084C2000FAF776FB0123082200210548B2
:10AC1000FFF79BFC0123082208210248FFF795FC5F
:10AC200010BD0000000E002036000020300E002075
:10AC3000280E0020F00E00202C0E0020F10E002027
:10AC4000380000209CEB000800B5C0B2002811D1EC
:10AC5000002000E0401CC0B2402809DA2C49C0B2F4
:10AC60000922424389188978FF29F3D1C0B21AE03A
:10AC7000FF2018E0C0B2012814D10021002009E013
:10AC8000234AC0B209234343D2189278FF2A00D145
:10AC9000491C401CC0B24028F2DBC9B2002901D1D6
:10ACA000FF2000E0FF2000BD10B508001949184B37
:10ACB000D2B2092454431B19DB79DBB21B09DBB286
:10ACC000002B05D00979C906C90E491E124B99708F
:10ACD000D2B20121FEF71BFC012010BD10B5080007
:10ACE0000C490B4BD2B2092454431B19DB79DBB25C
:10ACF0001B09DBB2002B05D00979C906C90E491E14
:10AD0000054B9970D2B20121FEF701FC012010BD64
:10AD10003C0600200C0C0020440E002000B56548C5
:10AD20000088401C6349088063480078401C6249E1
:10AD30000870614800783D2802DB00205E490870F9
:10AD400000BD0800C0B2704738B50500002401E01E
:10AD50002C000025EDB2002D14D0FEF75DFB574806
:10AD600000780028F4D1022001F0D6FE0028F1D0AE
:10AD7000022001F0DCFE0A20FAF75FFD00F0CCF8BB
:10AD80006D1EE7E72000C0B232BD80B54C484D498A
:10AD9000086000F0AFF801F097FE01F058FFFFF7F0
:10ADA00006FC00F095FF002001F06AF8FEF791FB29
:10ADB00000F094F800F059F8002043490870FEF7BD
:10ADC0009DF962B60A20FFF7BFFF00F047F90020A7
:10ADD00001F0A2FE002804D0002001F0A8FEFEF73A
:10ADE00000FA012001F098FE002816D0012001F0A1
:10ADF0009EFEFAF755FE01F0B5FD334800780028B5
:10AE00000BD031480078401E2F4908702E4800783A
:10AE1000002802D10820FAF710FD022001F07CFE84
:10AE2000002806D0022001F082FE00F075F8F9F744
:10AE300078F9FEF7F1FAFEF761F90121002001F03F
:10AE4000E9FFC2E780B572B6002001F071F800207A
:10AE500001F016F801F038FE62B600F03FF800F09D
:10AE600004F800201849087001BD184800781849F6
:10AE7000087016484078164948701448807814497C
:10AE800088701248C0781249C8701248407810493A
:10AE90000871104800780E4948710F4800780C4935
:10AEA00088710D4840780A49C8710B488078084974
:10AEB00008727047C80E0020190F00204C0A0020AD
:10AEC0000040000808ED00E0180F0020ACEB00087F
:10AED000E80D0020000E0020B0EB000880B5FDF763
:10AEE00055FE0220FEF7D8F9FAF7FEF901BD00B5CC
:10AEF000FEE7FEE780B50B480B49086005200A49CC
:10AF000048609C20C0000849886008480649C8601D
:10AF1000054801F09BFF01BD80B5034801F0C4FF67
:10AF200001BD000000300040D80D0020FF0F0000E0
:10AF300038B50500140089B2A4B20819454A9042F8
:10AF400008DABD4889B24118A4B222002800FAF7F5
:10AF5000D1F900E00024200080B232BD00B500200D
:10AF60003D490978002917D1002189B20C2914DA4A
:10AF7000C44A89B204234B43D258002A09D1C14A9A
:10AF800089B204234B43D218126B002A02D001204D
:10AF900000E00120491CE8E70120C0B200BDFEB579
:10AFA0000C001500A4B2ADB261192A4A91424BDAE5
:10AFB00069460B710290684605809F48A4B2061945
:10AFC000ADB2002D43D068460079012804D0307816
:10AFD00002990978884230D0029800783070A4B283
:10AFE00020000421FDF7AEF8694648806846408895
:10AFF0002021FDF7A7F80700684640882021FDF7CB
:10B00000A1F8A048BFB204227A43825801208840A8
:10B0100010439C4BBFB204227A4398509948BFB268
:10B0200004227A438018026B01208840104395491E
:10B03000BFB204227A4389180863761C0298401C28
:10B0400002906D1E641CBBE70020694608806846BC
:10B050000088FEBD01060000F80E002080B500F05B
:10B060008DF9012800D0E5E0BA48007800280BD01F
:10B07000022835D024D304287DD04FD3062800D110
:10B08000C9E000D295E0CFE00120B34908707D48C7
:10B09000B149097830225143401800F07DF9BC498C
:10B0A0000880BB480088BB49884205D000F03FF9C2
:10B0B0000120A849087002E00020A6490870B9E004
:10B0C000A5480178B248008800F09EF9012803D114
:10B0D0000220A049087002E006209E490870A9E0FD
:10B0E000C8480068800715D5C6480068022101439A
:10B0F000C448016098480178A548008800F09CF990
:10B10000012803D103209349087006E006209149E5
:10B11000087002E006208F4908708BE0B94800688B
:10B12000800724D5B748006802210143B548016073
:10B1300054488949097830225143401800F02CF9CD
:10B1400093490880924800889249884203D00120A0
:10B15000804908700EE004207E49087000F0C5F9AF
:10B16000B44908607C48007800F081F902E00620CC
:10B17000784908705EE0A3480068800715D5A148AB
:10B180000068022101439F48016073480178A94883
:10B19000006800F074F9012803D105206D4908709A
:10B1A00006E006206B49087002E006206949087035
:10B1B00040E094480068800729D592480068022141
:10B1C00001439048016064480078002803D10020C2
:10B1D000604908701EE060480078401E5E490870B3
:10B1E00028485D49097830225143401800F0D4F8CE
:10B1F00067490880664800886649884203D0012074
:10B200005449087006E000205249087002E0062008
:10B21000504908700EE000F0A1F800204D49087078
:10B220005C485B49088005E000204A49087059489D
:10B230005749088001BD00003C00002080B5012076
:10B2400000F076F900F045F901280CD1002000F05B
:10B250001BF8012805D10B48006B01210143094867
:10B26000016301200CE0002000F062F900F031F9E8
:10B27000012804D1012000F007F8012000E000209F
:10B28000C0B202BDFC080020F1B582B06846007A69
:10B29000002804D1B04D0020B04E002440E06846A4
:10B2A000007A012801D1AE4DF5E700203EE0296883
:10B2B0003268914231D0A4B220000421FCF742FF51
:10B2C00069468880684680882021FCF73BFF07009C
:10B2D00068460090684680882021FCF733FF00987C
:10B2E000818025486946097A302251434318BFB20C
:10B2F00004227A43204884466846017A302041433C
:10B3000060464018BFB204217943415801206F467E
:10B31000BF88B840084398500120361D2D1D241DBC
:10B32000A4B2C021C9008C42C1DBC0B2FEBD00B5D1
:10B330008C480068C00705D58B488C4908608C484C
:10B340008A490860874800681021014385480160E8
:10B3500000BD0000F80E0020F90E002081480068B2
:10B36000102188437F4908607E480068012101431D
:10B370007C48016070470000FC08002000B52148AF
:10B380000068C00701D4012000E0002000BD0000DB
:10B3900034000020FFFF000010B5010075480022B6
:10B3A000002392B2042454430C59002C20D092B2B2
:10B3B000042454430C59DC40E40710D592B2042015
:10B3C0005043085801249C40A04392B204245443A3
:10B3D000085192B220205043DBB2C01800E05B1C41
:10B3E00080B2644CA04204D1DBB2202BDFDB00E052
:10B3F000521C80B25F4CA04202D192B20C2AD0DB28
:10B4000080B210BD1820024080B56A46C9B280B231
:10B4100000F03EF8C0B2012809D1524909688022E3
:10B4200092000A434F490A600021009A1160C0B29D
:10B4300002BD00003C0E00201CB504006A46C9B2E3
:10B44000200080B200F024F8C0B201280DD1454997
:10B450000968494A0A4043490A604049A4B20422A3
:10B46000624389180968009A1160C0B216BD80B5A0
:10B470000100C9B2FF208030FFF7C6FF02BD80B5D2
:10B480003E4A1060C9B2FF208030FFF7D5FF02BDF1
:10B4900000B580B2C0235B00984201DB002016E0BB
:10B4A000C9B2002907D180B2042141432A480818B3
:10B4B000106001200BE0C9B2012907D180B204213C
:10B4C0004143274808181060012000E00020C0B266
:10B4D00000BD80B500F009F828490968884201D10B
:10B4E000012000E00020C0B202BD38B50020C043FA
:10B4F0001A4C002505E02168C9B200F007F8241DA8
:10B500002D1DADB21E498D42F5DB32BD00B5C9B26D
:10B510004140082207E0490004E00029FBD548002B
:10B5200018494140521ED2B2002AF6D1080000BD8F
:10B5300010B5C0B2002807D1C022D2000649074C7E
:10B540002000F9F7D7FE06E0C022D2000449034CE0
:10B550002000F9F7CFFE10BD000C08083C000020C9
:10B560000012080804200240EFCDAB890C200240F5
:10B5700005040302FFFF0000FFFDFFFF3806002067
:10B58000FC050000B71DC104704770477047704745
:10B590000121C006C00E81406F4801607047F0B5C0
:10B5A00040B2002821D56D4B40B20207120F083A75
:10B5B000920804246243694C40B205072D0F083DF0
:10B5C000AD08042675436459FF258607B60F082782
:10B5D0007E43B540AC438901C9B28007800F08257E
:10B5E00068438140214399501AE05D4A40B2830884
:10B5F00004246343D258FF238407A40F08256C4317
:10B60000A3409A438901C9B283079B0F082463436F
:10B6100099401143524A40B28008042358431150C4
:10B62000F0BD80B54F480068012188434D4908604E
:10B630004D480068C00710D54B4800680121884379
:10B6400049490860002049490860464800680121CE
:10B65000014344480160FDF78CFB01BD10B50400B7
:10B6600000F065F8A4B242480460424804803E48B5
:10B670000068012188433C49086010BD10B50400F2
:10B6800000F00CF800F053F8002038490860200062
:10B6900080B2FFF7E3FF00F017F810BD36480068EE
:10B6A00001218843344908602E48006801218843FD
:10B6B0002C49086031480068022188432F490860FE
:10B6C00000202F490870704780B500F030F82648F8
:10B6D0000068012188432449086022480068C007A7
:10B6E00003D424480088FFF7B9FF1E4800680121F1
:10B6F00001431C48016020480068012101431E48A5
:10B70000016001BD80B500F012F817480068012102
:10B7100088431549086003211020FFF740FF1020DF
:10B72000FFF736FFFA204000FFF7A8FF01BD00B584
:10B730001348007800280ED1104800680221014308
:10B740000E48016001200A4908600F200D49086079
:10B7500001200B49087000BD00E100E01CED00E095
:10B7600000E400E000040040100400402404004015
:10B770002C040040DE0E00200C0400403810024073
:10B780003E0F0020280400407047FEE7001D0178AE
:10B790004018C01C4079704730B502795207520FEB
:10B7A000002A3AD0002230E0002308E089B20123C9
:10B7B00093400B4001249440A342F5D10123047926
:10B7C000E4B2E4082500ED07ED0F002D02D0DBB256
:10B7D000002B08D1904BD2B2022454431B190024F1
:10B7E0001C70240A5C708C4BD2B2022454431C1986
:10B7F000237865782D062D0C2B43D2B202245443B6
:10B80000041963721B0AA372521CD2B20379DBB211
:10B810001B09DBB25B1C9A42C8DB30BD30B5027934
:10B820005207520F002A07D00279D2B2D208130071
:10B83000DB07DB0F002B00D023E0002219E089B2E8
:10B84000012393400B4001249440A34210D1D2B273
:10B8500002235343C418637AA57A2D062D0C2B437B
:10B860006D4CD2B202255543641923701B0A6370D4
:10B87000521CD2B20379DBB21B09DBB25B1C9A42C9
:10B88000DDDB30BD10B5001D01784018C41C002060
:10B8900062490880614800882070000A6070604832
:10B8A0000088A070000AE0705E48007820715E4851
:10B8B000007860715D480078A0715D480088E07193
:10B8C000000A2072564801882000FFF765FF2079A2
:10B8D0004007400F012808D12079C0B20009C0B24A
:10B8E000022148430B30C0B200E0092010BD10B562
:10B8F000001D01784018C41C4B48007861798842CB
:10B9000001D0FF2038E0207861780906090C08434F
:10B9100042490988084341490880E079217A0906AB
:10B92000090C0843424909880843414908802078A6
:10B9300061780906090C084339490988014089B230
:10B940002000FFF76BFFA078E1780906090C084397
:10B95000A178E2781206120C1143304A128880B2A4
:10B96000104089B2884206D16079FF2801D0607901
:10B9700002E0FF2000E0FF2010BD10B5001D01789F
:10B980004018C41C6079E02808D1A078E178090645
:10B99000090C084380B2FAF7E4FB1CE06079E12867
:10B9A0000BD1A078E1780906090C08431B490988E6
:10B9B000084080B2FAF7D5FB0DE06079E2280AD1A1
:10B9C000A078E1780906090C0843144909888843DE
:10B9D00080B2FAF7C6FBA178E0780006000C0143BC
:10B9E0000E480088014089B26079FAF77AFC10BDF0
:10B9F00080B501200F49C870FDF7F3FA01BD80B58D
:10BA00000949087000200A49088007480078FF2883
:10BA100001D0FFF7EDFF01BD280D0020C40E00206E
:10BA2000C20E0020310F0020320F0020300F002006
:10BA3000C60E00204C0C002080B5FF20FFF7DFFF72
:10BA400001BDFEE730B502000020974BD2B20424BE
:10BA500054431B59954CD2B2042555436459A34213
:10BA60002ED00120904BD2B2042454431B591B7892
:10BA70000B708D49D2B204235343C958491C8A4BD9
:10BA8000D2B20424544319518749D2B204235343F8
:10BA9000C958874BD2B2042454431B59854CD2B2A7
:10BAA00002255543645B1B19994209D18049D2B2E2
:10BAB00004235343C9587C4BD2B2042462439950A7
:10BAC000C0B230BD70B5040000257B48E4B204224A
:10BAD0006243805800285CD07848E4B20222624376
:10BAE000805A774AE4B202236343D25A9042F3D297
:10BAF0000E002000C0B27349E4B2042262438958A8
:10BB000088476E48E4B202216143405A401C6B49A9
:10BB1000E4B20222624388526748E4B204216143DE
:10BB2000405806706448E4B2042161434058401C08
:10BB30006149E4B20422624388505F48E4B20421C0
:10BB4000614340586049E4B20422624389585C4A28
:10BB5000E4B202236343D25A8918884209D15A4871
:10BB6000E4B20421614340585349E4B204226243E1
:10BB700088502000C0B25549E4B20422624389587B
:10BB800088472000C0B2BD49E4B204225443095999
:10BB900088472800C0B270BD70B504000D0092B295
:10BBA000AE184548E4B2042161434058002858D1FA
:10BBB00070BD4248E4B202216143405A401C3F49F3
:10BBC000E4B202226243885228783B49E4B204225C
:10BBD0006243895808706D1C3748E4B20421614300
:10BBE0004058401C3449E4B2042262438850324831
:10BBF000E4B20421614340583349E4B20422624371
:10BC000089582F4AE4B202236343D25A89188842E2
:10BC100009D12D48E4B20421614340582649E4B2D9
:10BC20000422624388502548E4B202216143405A0D
:10BC30002349E4B202226243895A884201D2B542C2
:10BC4000B7D32000C0B22149E4B20422624389582C
:10BC500088472000C0B28949E4B20422624389586F
:10BC60008847B542A4D22000C0B2AD49E4B2042254
:10BC7000624389588847D6E770B4039C0C4DC0B224
:10BC800004264643A9511049C0B2042545434B51EF
:10BC90000849C0B202234343CA520949C0B2022232
:10BCA00050430C5270BC7047700E00206C0E002088
:10BCB000640E0020CA0E0020740E0020D00E00205A
:10BCC000CC0E0020880E0020680E00207C0E002084
:10BCD0001CB500247DE00020B549E4B20422624393
:10BCE000885000208F49E4B204226243885000202B
:10BCF0008D49E4B204226243885000208B49E4B2AB
:10BD000004226243885000208549E4B20422624341
:10BD1000885000205949E4B204226243885057E019
:10BD2000A448E4B20C2161434018007A8007800FD8
:10BD3000002823D100209E49E4B2042262438850A7
:10BD40009C48E4B20C2161434018007AC0B28008DC
:10BD50008007800F012811D197489849E4B2042246
:10BD60006243885096489749E4B20422624388505F
:10BD700095486C49E4B20422624388508D48E4B28D
:10BD80000C2161434018007AC0B280088007800F00
:10BD90000028A0D001281BD18C486349E4B20422BA
:10BDA000624388508A486149E4B204226243885061
:10BDB00088485B49E4B204226243885086482F4990
:10BDC000E4B20422624388502000C0B201F09EF920
:10BDD000641CE4B2002C4FD17648E4B20C216143DC
:10BDE0004018007A8007800F012899D17148E4B289
:10BDF0000C21614340184068408800906D48E4B2CF
:10BE00000C2161434018406883686A48E4B20C2101
:10BE100061434018406802886648E4B20C216143DF
:10BE20004018406841682000C0B2FFF725FF9D48D8
:10BE30006249E4B20422624388509B486149E4B2FB
:10BE400004226243885099483649E4B2042262438E
:10BE500088505848E4B20C2161434018007AC0B2BF
:10BE600080088007800F012888D191485049E4B2AA
:10BE700004226243885081E713BD00008C0E00202D
:10BE800038B5040000252000C0B22749E4B20422DE
:10BE900062438958884700283ED001254548E4B2CE
:10BEA0000C2161434018007A8007800F012833D1AC
:10BEB0008048E4B20421614340587F49E4B204223F
:10BEC000624388507B48E4B20421614340587B4977
:10BED000E4B20422624388507948E4B20421614309
:10BEE00040587849E4B20422624388507448E4B26E
:10BEF0000421614340587449E4B2042262438850EB
:10BF000000207249E4B20222624388520020704944
:10BF1000E4B20222544308532800C0B232BD0000EC
:10BF2000880E0020600E0020800E0020840E00206D
:10BF300038B5040000252000C0B26649E4B20422EE
:10BF400062438958884700282ED001251948E4B259
:10BF50000C2161434018007A8007800F012823D10B
:10BF600000205549E4B2042262438850002053491E
:10BF7000E4B204226243885000205249E4B2042211
:10BF80006243885000205049E4B204226243885042
:10BF900000204E49E4B202226243885200204C49FC
:10BFA000E4B20222544308532800C0B232BD00005C
:10BFB0007C0E00200C000020A5D00008580E0020A8
:10BFC000B5D000085C0E0020C3D00008A9CF00083F
:10BFD00061CF0008D9D00008F1D00008F8B50600FC
:10BFE0000C000025012092B2A7183B49F6B20C22A2
:10BFF00072438918097A8907890F002940D1BC4208
:10C000004CD2C0B2002849D021003000C0B2334A1F
:10C01000F6B204237343D2589047641C6D1CEEE7BC
:10C020002648F6B204217143405800782070641C01
:10C030002248F6B2042171434058401C1F49F6B211
:10C040000422724388501D48F6B2042171434058BF
:10C050001849F6B2042272438958214AF6B20223E3
:10C060007343D25A8918884209D11248F6B2042182
:10C07000714340581149F6B20422724388506D1C36
:10C08000BC420BD20D48F6B20421714340580A4914
:10C09000F6B20422724389588842C1D1280080B286
:10C0A000F2BD0000C5BA000899BB000845BA0008F7
:10C0B00009D00008640E00206C0E0020700E0020D5
:10C0C000680E0020740E0020780E0020D00E002094
:10C0D000CE0E0020840E00200C000020600E0020F8
:10C0E000CA0E0020001D0178C906C90E4018401D67
:10C0F00000787047001D0178C906C90E4018401D20
:10C1000040788006800E7047001D0178C906C90E70
:10C110004018401D4078C0B2C0097047001D01782A
:10C12000C906C90E4018401D40780100C9B28909EE
:10C130000800C007C00F704710B50221194A1278D5
:10C1400002704278C0231340174A12789206920E6A
:10C150001A4342704278BF231340144A1278920166
:10C16000402422401A43427042785206520E104B2D
:10C170001B78DB0113434370C9B24018002205E06D
:10C180000C4BD2B29B5C0370401C521C13000A4C37
:10C190002478DBB2A342F3D3074800780818C0B272
:10C1A00010BD0000200F0020210F0020220F0020D2
:10C1B000230F0020C00C0020240F0020001D017858
:10C1C000C906C90E4018C01D7047FEE7FEB5050040
:10C1D0000C002800FFF786FF694608726846007A5F
:10C1E000FF284BD0684644726846007A002809D17F
:10C1F000FCF7B4F8012841D16846417A681DFAF786
:10C20000D3FF3BE02800FFF789FF00281BD0FAF797
:10C210006EFB06002800FFF777FF04002800FFF7F9
:10C2200069FF07002800FFF7C9FF6946497A0191B5
:10C23000F6B200962300DBB23A00D2B26946097A20
:10C24000FBF7A6F91AE0FAF752FB06002800FFF701
:10C250005BFF04002800FFF74DFF07002800FFF7F1
:10C26000ADFF6946497A0191F6B200962300DBB230
:10C270003A00D2B26946097AFBF797F9F7BD00B5E3
:10C28000594AC9B2525C83789A4205D08078564A9E
:10C29000C9B25054012000E0002000BD7CB504006C
:10C2A0002000FCF716F8012811D12000FCF798FEB9
:10C2B0002000FFF71CFB0400FBF7E0FEE4B2FF2CBC
:10C2C00000D190E02000C0B2FAF706F88BE0FDF74D
:10C2D0003EF8012842D12000FCF727F801283DD183
:10C2E00000212000FCF744F80500EDB2402D7AD083
:10C2F0002900C9B22000FFF7C2FF06003B48EDB29B
:10C30000092169434018C079C0B20009C0B20128B0
:10C3100003D1FBF710F8FF2002E02000FFF736FA08
:10C32000C0B2FF285FD0F6B2012E5CD1C0B20128A6
:10C3300059D10220009000232D4802782900C9B26B
:10C34000601DFAF7B8FD0220FDF752F82900C9B2C6
:10C35000601DFDF7D7F8FAF7EEFF44E00121200059
:10C36000FCF706F80500EDB2402D3CD02900C9B21B
:10C370002000FFF784FF06001C48EDB20921694345
:10C380004018C079C0B20009C0B200280AD01748CE
:10C39000EDB2092169434018C079C0B20009C0B2AA
:10C3A000022820D12000FFF7F1F9C0B2FF281AD0EF
:10C3B000F6B2012E17D1C0B2002809D1FBF7CEFF8B
:10C3C000012810D12900C9B2601DFAF7EDFE0AE07C
:10C3D000C0B2E02807D11720FDF70AF82800C0B244
:10C3E000FAF792FFFFE773BD8C0B00203C0600209C
:10C3F000170F002010B504002000FBF76AFF01288A
:10C400000BD12000FCF7ECFD2000F8F7F8FFC0B2DC
:10C41000FF2802D0C0B2F9F7BDF910BD10B5040075
:10C420002000FBF756FF01280FD12000FCF7D8FDB4
:10C430002000FAF720F80400FBF720FEE4B2FF2CFE
:10C4400003D02000C0B2F9F77DFF10BD38B505005C
:10C450002800FBF72BFF0400E4B2FF2C07D02800D4
:10C46000FCF70AFD2100C9B2280000F051FA31BDE5
:10C47000F8B5040000200026601DFEF708FB012827
:10C4800000D1DCE12000FAF7C1F80500FCF75FFFFE
:10C49000012800D0FBE02000FBF747FF012800D077
:10C4A000F5E0EDB2002D26D100212000FBF760FF62
:10C4B0000500EDB2402D00D1C1E12900C9B2200034
:10C4C000FFF7DDFEC0B2012800D0B8E102200090E5
:10C4D0000023CA4802782900C9B2601DFAF7EBFCB4
:10C4E0000120FCF785FF2900C9B2601DFDF70AF89D
:10C4F000FAF721FFA3E1EDB2022D08D0EDB2012D34
:10C5000000D09CE1FAF7F3F9012800D197E1CC487B
:10C510000078A178884206D10322CA49601DFEF73F
:10C52000EBF800282DD0FAF7E5F9002808D0200014
:10C53000FBF79AFE002803D101212000FAF7A0F9A9
:10C54000A078BF4908700322611DBE4D2800F8F78E
:10C55000D1FE00212000FBF70BFF0100C9B2601DD6
:10C56000FEF7EFFBC449087001260020C34908709C
:10C57000C1480078402804D0BF4801782000FFF768
:10C580007EFEBD480078402800D158E1F6B2002E6A
:10C590004AD02000FBF768FE00280ED0FAF7A7F972
:10C5A00001280AD002200090002394480278B24863
:10C5B0000178601DFAF77FFC2BE02000FAF747F9BD
:10C5C00000280DD00120AD49087004200090002300
:10C5D0008A480278A8480178601DFAF76CFC18E0D8
:10C5E000FAF78EF900280AD005200090002383482E
:10C5F0000278A1480178601DFAF75DFC09E003208C
:10C60000009000237D4802789B480178601DFAF76E
:10C6100052FC0120FCF7ECFEFAF78DFE96480178FB
:10C62000601DFCF76FFF0AE194480078002800D0F5
:10C6300005E12000FAF70BF9002800D1FFE0012006
:10C640008E490870B0488C49097809225143401836
:10C65000C079C0B20009C0B2032815D1AA488649E2
:10C660000978092251434018C0790007000F402182
:10C670000143A548804A127809235A438018C171A2
:10C680007D480078FAF735FEFAF755FED7E001212C
:10C690002000FBF76DFE0600F6B2402E00D1AFE0A1
:10C6A0003100C9B22000FFF7EAFD0700FFB2002FFA
:10C6B00023D12000FAF7CBF800281ED09248F6B21A
:10C6C000092171434018C079C0B20009C0B20328E3
:10C6D00013D18D48F6B2092171434018C079010782
:10C6E000090F402008438849F6B20922724389188D
:10C6F000C8713000C0B2FAF7FCFDFFB2012F00D0C4
:10C700009DE0EDB2032D05D0FAF7F1F8012801D133
:10C71000FBF7B4FC7C48F6B2092171434018C0799C
:10C72000C0B20009C0B2032815D07748F6B209217B
:10C7300071434018C079C0B20009C0B204280AD0C1
:10C740007148F6B2092171434018C079C0B200099E
:10C75000C0B2052831D1EDB2032D70D0FAF7CAF876
:10C76000002804D000212000FAF78AF816E0FAF732
:10C77000BEF8012812D16448F6B20921714340186D
:10C78000C079C0B20009C0B2052807D1E07AF52807
:10C7900004D13100C9B2601DFAF782FBE0780528A8
:10C7A00005D13100C9B22000FFF710FD47E031008C
:10C7B000C9B2601DFAF7F8FC41E05348F6B209210E
:10C7C00071434018C079C0B20009C0B202280AD033
:10C7D0004D48F6B2092171434018C079C0B2000932
:10C7E000C0B201282BD1FBF7B9FD012827D13100B8
:10C7F000C9B2601DFAF7D8FC21E000BF170F002076
:10C80000EDB2022D1BD1FAF775F8002817D10C48AC
:10C810000078A178884206D103220A49601DFDF7FD
:10C820006BFF00280BD0601DF8F7D8FBA0780449F7
:10C8300008700322611D034C2000F8F75BFDF1BD79
:10C84000090F00204C0E002010B5040042202F4993
:10C850000870201DFDF76CF8012803D1FE20E07060
:10C86000FCF7BFFB201DFDF78FF8012802D11C202B
:10C87000FCF7BEFD10BD00003A0000200A0F0020AA
:10C8800010B504002000FBF745FA012801D0002074
:10C8900039E003201D4908706078012802D120008A
:10C8A000FDF700FF21782000FDF7F2FE002801D1FE
:10C8B000012028E0E07800280CD001280ED00228C2
:10C8C00010D0032812D0042814D0052802D0FD2847
:10C8D00014D017E02000FFF7CBFD13E02000FFF796
:10C8E000DDFC0FE02000FFF785FD0BE02000FFF7E7
:10C8F00095FD07E02000FFF7A9FD03E02000FFF70A
:10C90000A3FFFFE7022010BD3C0600202C0F0020F3
:10C9100038B50C00001D01784018C11C487810384B
:10C92000D0280ED20322094D2800F8F7E3FC08486E
:10C930000470084802780749074C2000F8F7DAFC31
:10C9400002E0FF200149487031BD0000480E002080
:10C95000080F00200C0C0020080D002080B500F00E
:10C960009FFD01BD00B523480088002804D0214860
:10C970000088401E1F4908801F480088002804D0F6
:10C980001D480088401E1C49088000BD10B50800E5
:10C990001B491C4BD2B2092454431B19DB79DBB26F
:10C9A0001B09DBB2002B05D00979C906C90E491E47
:10C9B000124B9970D2B20021FCF7A9FD012010BDE5
:10C9C00010B508000E490F4BD2B2092454431B196D
:10C9D000DB79DBB21B09DBB2002B05D00979C90674
:10C9E000C90E491E054B9970D2B20021FCF78FFD8C
:10C9F000012010BDAC0E0020AE0E0020440E002021
:10CA00000C0C00203C06002001480068C0787047EC
:10CA1000300E0020F0B540B2002821D55D4B40B269
:10CA20000207120F083A920804246243594C40B29C
:10CA300005072D0F083DAD08042675436459FF25F1
:10CA40008607B60F08277E43B540AC438901C9B2BB
:10CA50008007800F082568438140214399501AE0E0
:10CA60004D4A40B2830804246343D258FF2384070D
:10CA7000A40F08256C43A3409A438901C9B28307D8
:10CA80009B0F0824634399401143434A40B28008F6
:10CA9000042358431150F0BD80B5411E802252043A
:10CAA000914201D301200EE0401E3C490860032161
:10CAB0000020C043FFF7AEFF00203949086007207F
:10CAC00038490860002002BD80B500F081FD36487D
:10CAD0000068FA218900FBF738FBFA214900484336
:10CAE000FA218900FBF731FBFFF7D6FF0321002075
:10CAF000C043FFF78FFF00200AE000212B4AC0B29D
:10CB0000115400212A4AC0B204234343D150401C8F
:10CB1000C0B20328F1DB01BD00B52449C0B2085CF6
:10CB2000012801D1012000E00020C0B200BD002199
:10CB30001E4AC0B21154704780B5FEF7EFF81D4889
:10CB40000068401C1B49086000F001F801BD00B5F9
:10CB500000201AE017490968154AC0B2042343436C
:10CB6000D258891A144AC0B204234343D25891427E
:10CB70000AD301210D4AC0B211540E4909680C4A6A
:10CB8000C0B204234343D150401CC0B20328E1DBB0
:10CB900000BD00001CED00E000E400E014E000E057
:10CBA00018E000E010E000E0940E0020A40E002049
:10CBB000F40D0020A00E0020180000200121C00666
:10CBC000C00E8140864801607047F0B540B2002831
:10CBD00021D5844B40B20207120F083A9208042470
:10CBE0006243804C40B205072D0F083DAD08042676
:10CBF00075436459FF258607B60F08277E43B54065
:10CC0000AC438901C9B28007800F08256843814081
:10CC1000214399501AE0744A40B2830804246343C4
:10CC2000D258FF238407A40F08256C43A3409A43DE
:10CC30008901C9B283079B0F0824634399401143BC
:10CC4000694A40B28008042358431150F0BD80B5B2
:10CC50006648006801210143644801606348006838
:10CC60000100C907C90F00910098604800680221BF
:10CC700001435E4801605D48006802210840009061
:10CC800000985A48006804210143584801605748F9
:10CC90000068042108400090009800F064F800F05B
:10CCA0002BF801BD80B55248006801004906C90F44
:10CCB00000290CD04F48006880474D48006840214B
:10CCC00088434B4908604A48006849490860484819
:10CCD000006801000906C90F00290CD04648006809
:10CCE00080474348006880218843414908604048A4
:10CCF00000683F49086001BD80B5404800683F4971
:10CD000008603E480068012101433C4801603C48FE
:10CD100000683C4901403A48016039480068802178
:10CD200049000143364801603548006836490140F2
:10CD3000334801603248006880214901014330488E
:10CD400001602E480068012188432C4908602B4867
:10CD500000682A4908600720FFF730FF00210720FC
:10CD6000FFF733FF01BD18B585B0284C0EE06068B1
:10CD700000900020019000200290002003900020ED
:10CD800004906946206800F0F1FC0C34206800280B
:10CD9000EDD11F4C1EE00022616889B2206800F0CE
:10CDA000D1FD08E0207A0128F5D10122616889B21D
:10CDB000206800F0C7FD606800900120019000200D
:10CDC000029000200390002004906946206800F043
:10CDD000CDFC0C3420680028E4D106B010BD000062
:10CDE00000E100E01CED00E000E400E02C10024057
:10CDF00014040140540E0020500E00203410024054
:10CE00000C000140FFF1FFFFFF1FFFFF18E90008C2
:10CE1000CCE7000800B500220A4A126803239A43AF
:10CE20001043084A10600848006804229043064AEC
:10CE30001060C9B2012901D130BF02E040BF20BF5C
:10CE400020BF00BD0070004010ED00E038B50400C8
:10CE5000002C01D1012026E0164821680860164800
:10CE600021680860606821684860A068216888605F
:10CE700000F07CFD05002068C068002806D000F0A6
:10CE800075FD401B3128F6D303200CE020680069B3
:10CE9000E168884203D0E0682168086102E0074841
:10CEA00021680860002032BD04490068016000204C
:10CEB00070470000CCCC000055550000AAAA000025
:10CEC0000121C006C00E8140BA48016070470121AF
:10CED000C006C00E8140CE4801607047F0B540B238
:10CEE000002821D5884B40B20207120F083A920859
:10CEF00004246243844C40B205072D0F083DAD0861
:10CF0000042675436459FF258607B60F08277E431C
:10CF1000B540AC438901C9B28007800F082568433A
:10CF20008140214399501AE0BA4A40B28308042450
:10CF30006343D258FF238407A40F08256C43A34002
:10CF40009A438901C9B283079B0F08246343994020
:10CF50001143B04A40B28008042358431150F0BD39
:10CF600010B501009448AC4AC9B2525C04235A433C
:10CF70008258002013680124A343136013682024FF
:10CF8000A343136013684024A3431360136A40242F
:10CF90001C431462A04AC9B2515C0029C0B20028E7
:10CFA00000D00120C0B210BD70B504000025C448F7
:10CFB000E4B20C21614346182000C0B200F030F901
:10CFC00001281ED19448E4B2005D002818D1307ABF
:10CFD0008007800F012811D11B20FFF778FF032164
:10CFE0001B20FFF77BFF1B20FFF76AFFB548006897
:10CFF0002D210143B3480160012500E0002500E038
:10D0000000252800C0B270BD10B58349C0B2095CCC
:10D01000002946D181490978002941D000217F4A61
:10D020001170A94909684906FBD4A649096840223C
:10D030009143A44A1160A549C0B2042242438958D1
:10D040000978A34A1160A149C0B204224243895819
:10D05000491C9E4AC0B204234343D1509B49C0B2ED
:10D060000422424389589B4AC0B204234343D25806
:10D07000994BC0B2022444431B5BD218914209D1A0
:10D080009449C0B2042242438958904AC0B2042352
:10D09000584311508B480068402101438948016082
:10D0A000FFE710BD00B55C49C0B2085C0028FFD0A6
:10D0B000002000BD00B55849C0B2085C0028FFD070
:10D0C00000BD00B501000020534AC9B2515C0029DF
:10D0D00000D00020C0B200BD37494F4AC0B2105C3A
:10D0E0000422504308580168402291430160704770
:10D0F0003149494AC0B2105C0422504308580168C3
:10D1000040220A43026070471CED00E038B56C49CC
:10D11000C0B20C2242438C1827493F4AC0B2125C6D
:10D1200004235A438D583C49C0B2085C002840D1C2
:10D1300094480068012101439248016091480068C9
:10D140000100C907C90F00910098A020C005006820
:10D150008D490140A020C0050160A020C0050068E5
:10D16000A02189030143A020C00501608748006811
:10D170008749014085480160844800688821C900CA
:10D180000143824801601B20FFF7A1FE03211B2001
:10D19000FFF7A4FE1B20FFF793FEB1480068802133
:10D1A000C9010143AE4801602168280000F0F2F88F
:10D1B000FFE731BD00E100E02400002010B5A949DF
:10D1C000C0B2042242438958491CA64AC0B2042373
:10D1D0004343D150A349C0B2042242438958A24AD2
:10D1E000C0B204234343D258A04BC0B202244443EC
:10D1F0001B5BD218914209D39B49C0B2042242431F
:10D200008958984AC0B204235843115010BD0000F9
:10D2100080E200E000E400E0360F0020A80E0020CD
:10D2200080B500212649C0B20C2242438918904A99
:10D23000C0B2105C002840D1087AC0B200090100D9
:10D24000C907C90F002936D0854800688021C90167
:10D250000143834801604B4800680121014349486C
:10D260000160484800680100C907C90F0091009893
:10D27000A020C005006844490140A020C00501600D
:10D28000A020C0050068A02189030143A020C0059B
:10D2900001603E4800683E4901403C4801603B480F
:10D2A00000688821C90001433848016001207149A4
:10D2B0000870012000E0002000E00020C0B202BDA4
:10D2C0000C0000200038014020380140780E00207A
:10D2D00028380140680E0020CC0E002030B5002513
:10D2E000002452B2452A04D12A008025ED001543BE
:10D2F00008E052B24F2A05D18022D2002A4380256D
:10D30000AD001543C9B2072904D1290080256D0558
:10D310000D4306E0C9B2092903D1290080256D011A
:10D320000D43DBB2022B04D121008024A4010C4365
:10D330000EE0DBB2032B04D12100C024A4010C4376
:10D3400006E0DBB2002B03D12100802464010C43F2
:10D350000560446030BD38B504000D004648844285
:10D3600002D100F032FF01E000F023FF2900FAF7BC
:10D37000ECFE41084907490F404A02401143E16071
:10D3800031BD00002C100240FFFFC3FF24000050FD
:10D390000FF0FFFF10B50400002020600020606047
:10D3A0000020A0602000FFF7D6FF01234E220821B5
:10D3B0002000FFF793FF10BD80B53148006880065C
:10D3C00007D5304800682749096808700020FFF732
:10D3D000F5FE29480068400631D529480068400616
:10D3E0002DD529480088002804D027480088401EF1
:10D3F0002549088024480088002809D101201D49BA
:10D4000008701D480068402188431B49086016E0E9
:10D410001E48006800781E4908601C480068401CCF
:10D420001A490860194800681A4909681A4A128896
:10D430008918884203D117480068144908601048C9
:10D440000068000708D51548006808210143134803
:10D4500001600020FCF739F81B20FFF738FD01BD03
:10D46000341002406C0E0020640E0020CA0E002012
:10D47000360F0020A80E002000380140F0FF000009
:10D480001C38014024380140D00E0020780E0020C6
:10D4900028380140680E0020CC0E002020380140C2
:10D4A00010B501241D20FBF7A3FFE4B2012C59D1D4
:10D4B0002D480078C0B2C009C0B2002829D02A483F
:10D4C0000078C0B200094007400F00280CD127485F
:10D4D0000378254800780207120F234881782248F4
:10D4E0004078F7F796FE3DE01F480078C0B200098B
:10D4F0004007400F012835D11C4803781A480078AE
:10D500000207120F1848817817484078F7F787FE0E
:10D5100028E015480078C0B200094007400F0028F5
:10D520000CD112480378104800780207120F0E48F9
:10D5300081780D484078F7F769FE13E00A480078D3
:10D54000C0B200094007400F01280BD107480378FB
:10D55000054800780207120F034881780248407896
:10D56000F7F75AFE10BD00BF480E0020080F00203C
:10D5700080B56D4800688021490001436A48016018
:10D580006A4800686A490140684801606648006866
:10D590006849014064480160674800680121884388
:10D5A0006549086060480068644901405E48016060
:10D5B0005E480068624901405C48016000206149A2
:10D5C0000860802000056049086000F068F801BD2F
:10D5D00000B50020002000200020002053480168F2
:10D5E0000C200840002806D0042812D0082814D0A7
:10D5F0000C2816D039E055480068400B4007400F12
:10D600000121401C814080200002414350480160BC
:10D6100038E050484E49086034E04F484C490860B3
:10D6200030E042480168F020800308403F490A6822
:10D63000C02109041140494A800C105C890D491C25
:10D640003A4A126880235B021A40002A06D1414AF6
:10D650005043FAF77AFD3E49086005E03E4A5043E0
:10D66000FAF773FD3A4908600CE038480068400B4F
:10D670004007400F0121401C8140802000024143AF
:10D680003348016036482949096809090907090F23
:10D69000405C2F490968C1402D48016000BD80B53C
:10D6A0009CB03048006830490140802000010843A8
:10D6B0002C49086002200E90012011901020129039
:10D6C00002201890002019908020C0021A9080201B
:10D6D000C0031B900EA800F04FF9002801D0FDF701
:10D6E00006FC0F2000900320019000200290C02033
:10D6F000C0000390A020C00004900121684600F003
:10D700002BFC002801D0FDF7F2FB03200590002040
:10D7100007900020089005A800F0C8FD002801D05F
:10D72000FDF7E5FB1DB000BD001002400C100240EB
:10D730000C40FF88F6FFF6FE08100240FFFFFBFFDB
:10D74000FFFF02FF1010024008ED00E0041002404D
:10D75000940E00200024F40000127A0084EB0008EC
:10D7600064EB000800700040FFE7FFFFF0B5030026
:10D770000A0000240020002037E0062103E06B4966
:10D780008B42FAD105212600B607B60F04277E4347
:10D79000B14001436748A60804277E43815164488D
:10D7A0000068A8435168C90300D528436049086050
:10D7B00061480068A8435168890300D528435E4941
:10D7C00008605E480068A8435168C90200D5284334
:10D7D0005A4908605A480068A8435168890201D52F
:10D7E0000543280056490860641C1068E040002882
:10D7F00000D199E010680125A5400540002DF3D027
:10D800005068022802D05068122819D1E00804217B
:10D8100048431818006A0F2126007607760F042760
:10D820007E43B14088431169260077077F0F0426A5
:10D830007743B9400143E008042670431818016299
:10D840005068012808D05068022805D05068112877
:10D8500002D05068122818D19868032126000227A8
:10D860007E43B1408843D168260002277E43B14001
:10D870000143996058680121A140884356683100EE
:10D88000C906C90FA1400143596018680321260049
:10D8900002277E43B140884311798907890F26000A
:10D8A00002277E43B14001431960D8680321260056
:10D8B00002277E43B14088439168260002277E43B9
:10D8C000B1400143D9605068C0008DD5224800683E
:10D8D00001210143204801601648A1080426714334
:10D8E00040580F212600B607B60F04277E43B140EB
:10D8F0008843A021C9058B4201D1002143E7174984
:10D900008B4201D101213EE715498B4201D1022111
:10D9100039E714498B4201D1032134E712498B4284
:10D9200000D02CE704212EE7F0BD0000001C0050C1
:10D9300000040140080001400404014008040140C3
:10D940000C04014000B5D2B2002A02D089B2816134
:10D9500001E089B2816200BD341002400004005031
:10D9600000080050000C00500010005001480068F2
:10D97000704700BF900E00207CB504000020207886
:10D98000C0076BD5C04800680C210140082909D0A8
:10D99000BD4800680C2101400C290CD1BA48006830
:10D9A000C00308D5B9480068800357D560680028CF
:10D9B00054D10120BCE2606880214902884207D12D
:10D9C000B2480068802149020143B048016026E066
:10D9D0006068A021C90288420ED1AC48006880214D
:10D9E000C9020143A9480160A84800688021490292
:10D9F0000143A648016012E0A4480068A449014020
:10DA0000A2480160A14800688021490208400090B6
:10DA100000989E4800689F4901409C4801606068EA
:10DA200000280DD0FFF7A2FF05009848006880038A
:10DA300014D4FFF79BFF401B6528F6D3032077E241
:10DA4000FFF794FF050091480068800306D5FFF7B3
:10DA50008DFF401B6528F6D3032069E220788007FC
:10DA600021D5894800680C210140042909D0864845
:10DA700000680C2101400C2928D183480068C003AC
:10DA800024D482480068400704D5E068012801D00A
:10DA900001204DE2B8480068B84901402069000201
:10DAA0000843B54908602078C0067BD576480068F1
:10DAB0000C210140002900D0A7E0744800688005CF
:10DAC0003BD5E069002838D1012031E2E068002828
:10DAD0001FD06E48006809218843E16801436B4804
:10DAE0000160FFF743FF050068480068400706D45F
:10DAF000FFF73CFF401B0328F6D3032018E29E48A3
:10DB000000689E4901402069000208439A49086064
:10DB1000C9E75E480068012188435C490860FFF757
:10DB200025FF0500594800684007BCD5FFF71EFFD8
:10DB3000401B0328F6D30320FAE18F480068E02158
:10DB400009020140606A814247D2606A00F056FBD8
:10DB5000002801D00120EBE187480068C44901405A
:10DB6000606A084384490860834800680002000A2C
:10DB7000216A09060143804801600120616A490B5E
:10DB8000491C8840802109024843BA493E4A12682C
:10DB900012091207120F895CC840B74908600020BB
:10DBA00000F092FC2078000700D489E0606900282A
:10DBB00072D0B248006801210143B0480160FFF70C
:10DBC000D5FE0500AD480068800779D4FFF7CEFE8A
:10DBD000401B0328F6D30320AAE167480068A44944
:10DBE0000140606A084364490860634800680002B5
:10DBF000000A216A090601435F480160606A00F07B
:10DC0000FDFA0028B9D0012092E1E069002826D071
:10DC10001E4800688021490001431C480160FFF74D
:10DC2000A5FE050019480068800506D4FFF79EFE92
:10DC3000401B0328F6D303207AE14F4800688C4943
:10DC40000140606A08434C4908604B480068000284
:10DC5000000A216A0906014347480160A2E70B4810
:10DC60000068B449014009480160FFF77FFE0500E4
:10DC700006480068800595D5FFF778FE401B03280D
:10DC8000F6D3032054E100BF0C1002400010024004
:10DC9000FFFFFEFFFFFFFBFF78480068012188437C
:10DCA00076490860FFF762FE050074480068800747
:10DCB00006D5FFF75BFE401B0328F6D3032037E1B0
:10DCC0002078400700D491E000259B480068C00000
:10DCD00007D49948006880214905014396480160AE
:10DCE000012596480068C00514D494480068802136
:10DCF0004900014391480160FFF738FE06008F4854
:10DD00000068C00506D4FFF731FE801B6528F6D3F6
:10DD100003200DE1A06880214900884207D15748BF
:10DD200000688021490001435448016034E0A06844
:10DD300000280CD1514800687E4901404F480160DD
:10DD40004E4800687E4901404C48016024E0A068CC
:10DD5000A021C900884213D1484800688021C90029
:10DD6000014346480160454800688021490001435D
:10DD70004248016010E000BF04100240FFE0FFFFD6
:10DD80003E4800686B4901403C4801603B480068E0
:10DD90006B49014039480160A06800280ED0FFF7A8
:10DDA000E5FD060035480068800516D4FFF7DEFD66
:10DDB000801B64498842F5D30320B9E0FFF7D6FD04
:10DDC00006002E480068800507D5FFF7CFFD801BB1
:10DDD0005C498842F5D30320AAE0EDB2012D05D1BC
:10DDE0005548006858490140534801602078800632
:10DDF00046D5A069002820D054480068012101437D
:10DE000052480160524800680121014350480160B6
:10DE1000504800688021890101434E480160FFF7A6
:10DE2000A5FD050049480068800729D4FFF79EFD3D
:10DE3000401B0328F6D303207AE044480068012100
:10DE400088434249086043480068AE490140414860
:10DE50000160FFF78BFD05003C48006880070FD587
:10DE6000FFF784FD401B0328F6D3032060E000BFCA
:10DE7000FF1FFFFF64EB0008940E002050100240CB
:10DE8000A06A002853D0A04800680C2101400C294A
:10DE90004BD0A06A022834D19C4800689C490140BC
:10DEA0009A480160FFF762FD05009848006880010C
:10DEB00006D5FFF75BFD401B0328F6D3032037E0B0
:10DEC0009148006893490140E06A0843216B01438F
:10DED000606B08438C4908608C48006880214904C5
:10DEE00001438A480160FFF741FD0400874800684C
:10DEF00080011CD4FFF73AFD001B0328F6D3032052
:10DF000016E0824800688249014080480160FFF7BE
:10DF10002DFD04007D480068800108D5FFF726FD2F
:10DF2000001B0328F6D3032002E0012000E00020BC
:10DF300076BD0000FFFEFFFF381002400070004079
:10DF4000FFFBFFFF89130000FFFFFFEF08100240F7
:10DF5000341002402000014070B50C0000216E49D1
:10DF600009680A00D207D20FA2420FD26A49096893
:10DF7000012291432143684A1160674909680A00F8
:10DF8000D207D20FA24201D00120B9E005002878C3
:10DF9000800707D55C480068F0218843A9680143E1
:10DFA000594801602878C0076CD56868022805D1F7
:10DFB00056480068800319D40120A1E0686803284E
:10DFC00005D152480068800110D4012098E06868AB
:10DFD000012805D14D480068400707D401208FE093
:10DFE0004A480068800501D4012089E0464800685D
:10DFF000032188436968014343480160FFF7B6FC89
:10E000000600686802280DD13F4800680C210140D5
:10E01000082937D0FFF7AAFC801B72498842F3D346
:10E0200003206DE0686803280DD1374800680C2193
:10E0300001400C2926D0FFF799FC801B69498842D2
:10E04000F3D303205CE0686801280DD12E480068F6
:10E050000C210140042915D0FFF788FC801B614981
:10E060008842F3D303204BE0274800680C2101408D
:10E07000002907D0FFF77AFC801B5A498842F3D366
:10E0800003203DE0244800680100C907C90F8C4205
:10E090000FD2214800680121884320431E490860AF
:10E0A0001D4800680100C907C90FA14201D0012025
:10E0B00026E02878400707D5134800684A49014000
:10E0C000E8680843104908602878000708D50E481A
:10E0D0000068464901402869C00008430A490860B1
:10E0E00000F01CF84249084A126812091207120F80
:10E0F000895CC8403F490860002000F0E5F9002035
:10E1000070BD0000FFDFFFFF0C1002400010024056
:10E11000FFFFFFFEFFFF02FF0020024000B50020CE
:10E1200000200020002000200020334801680C203F
:10E130000840042804D008280AD00C280AD029E076
:10E140004F480068C00601D54E4800E04E482CE01C
:10E150004E482AE04E488A0C1207120F805C890D47
:10E160008907890F491C244A1268D20304D5474AFB
:10E170005043F9F7EAFF0CE0414A1268D20604D591
:10E18000404A5043F9F7E1FF03E03F4A5043F9F7B3
:10E19000DCFF0AE03F480068400B4107490F0120BF
:10E1A000491C884080210902484300BD114800688D
:10E1B000704780B5FFF7FAFF3749304A1268120AF4
:10E1C0005207520F895CC84002BD80B5FFF7EEFFD1
:10E1D00031492A4A1268D20A5207520F895CC84054
:10E1E00002BD000089130000FFF8FFFFFFC7FFFF1B
:10E1F00064EB0008940E00200C10024010B50021C2
:10E2000000211E4A1268F0231340002B24D1244A17
:10E210001268D20005D5234A1368C02252011A4061
:10E2200011E01F4A126880235B0513431C4A1360E8
:10E230001C4A1368C02252011A40194B1B681A4C21
:10E240001C40174B1C60C0235B019A4204D1C022C2
:10E250001202904200D1012110480068012290432F
:10E2600008430E4A10600D4800680200D207D20F22
:10E270008A4201D0012000E0002010BD0C100240B5
:10E280000010024000093D000024F40000127A0052
:10E2900084EB000804100240A4EB000800200240B8
:10E2A0003810024000700040FFFFFFEF70B504001F
:10E2B000002000202078800600D499E02078800695
:10E2C000002573480068C00007D4714800688021A9
:10E2D000490501436E48016001256E480068C0058C
:10E2E00014D46C48006880214900014369480160EA
:10E2F000FFF73CFB060067480068C00506D4FFF73F
:10E3000035FB801B6528F6D30320BFE06248016817
:10E31000C020800308406168C02292030A409042F6
:10E320000DD06068C02189020140C0208002814276
:10E3300005D159480068800301D50120A6E057485F
:10E340000168C0208002084000282CD06168C022EB
:10E3500092020A40904226D02078800623D54F486A
:10E3600001684F4808404D490968802212030A435A
:10E370004A490A60494909684A4A0A4047490A60C5
:10E3800046490860C0050ED5FFF7F0FA060043487D
:10E390000068800507D4FFF7E9FA801B42498842EC
:10E3A000F5D3032072E06068C02189020140C020DB
:10E3B000800281420AD1384800683C4901406068C7
:10E3C000C022920302400A43334802603348006887
:10E3D0006168C02292020A40024330480260EDB2F6
:10E3E000012D05D12A4800683149014028480160C3
:10E3F0002078C00707D52F48006803218843A1680B
:10E4000001432C4801602078800707D5294800681F
:10E410000C218843E16801432648016020784007C9
:10E4200007D5244800682449014020690843214950
:10E4300008602078000707D51E4800681F49014082
:10E44000606908431B4908602068C00507D5194862
:10E45000006813490140A069084316490860207804
:10E46000400607D51348006815490140206A084353
:10E47000104908602078000607D50E480068114949
:10E480000140E06908430B490860002070BD0000AE
:10E49000381002400070004000100240501002404E
:10E4A000FFFFFCFFFFFFF7FF89130000FFFFCFFF17
:10E4B000FFFFFFEF4C100240FFF3FFFFFFCFFFFF16
:10E4C000FFFFFFFBFFFFF3FF10B5040007480068E4
:10E4D000FA218900F9F739FE00F069F800222100DD
:10E4E0000020C04300F05EF8002010BD940E002014
:10E4F000F0B540B2002821D52F4B40B20207120FD1
:10E50000083A9208042462432B4C40B205072D0FB1
:10E51000083DAD08042675436459FF258607B60FEC
:10E5200008277E43B540AC438901C9B28007800FFC
:10E53000082568438140214399501AE01F4A40B2A0
:10E54000830804246343D258FF238407A40F0825BB
:10E550006C43A3409A438901C9B283079B0F0824E7
:10E56000634399401143154A40B28008042358433D
:10E570001150F0BD80B5411E80225204914201D35A
:10E5800001200EE0401E0E49086003210020C04318
:10E59000FFF7AEFF00200B49086007200A4908601A
:10E5A000002002BD80B540B2FFF7A2FF01BD80B5DB
:10E5B000FFF7E0FF02BD00001CED00E000E400E01A
:10E5C00014E000E018E000E010E000E0000021109E
:10E5D000422063308440A550C660E77008812991CD
:10E5E0004AA16BB18CC1ADD1CEE1EFF13112100275
:10E5F00073325222B5529442F772D662399318831D
:10E600007BB35AA3BDD39CC3FFF3DEE36224433440
:10E6100020040114E664C774A44485546AA54BB56C
:10E6200028850995EEE5CFF5ACC58DD55336722614
:10E6300011163006D776F6669556B4465BB77AA7BC
:10E6400019973887DFF7FEE79DD7BCC7C448E55860
:10E650008668A7784008611802282338CCC9EDD90C
:10E660008EE9AFF9488969990AA92BB9F55AD44AB4
:10E67000B77A966A711A500A333A122AFDDBDCCB5C
:10E68000BFFB9EEB799B588B3BBB1AABA66C877C80
:10E69000E44CC55C222C033C600C411CAEED8FFDAC
:10E6A000ECCDCDDD2AAD0BBD688D499D977EB66E54
:10E6B000D55EF44E133E322E511E700E9FFFBEEFFC
:10E6C000DDDFFCCF1BBF3AAF599F788F8891A981BE
:10E6D000CAB1EBA10CD12DC14EF16FE18010A100A8
:10E6E000C230E3200450254046706760B983989398
:10E6F000FBA3DAB33DC31CD37FE35EF3B1029012F8
:10E70000F322D2323542145277625672EAB5CBA563
:10E71000A89589856EF54FE52CD50DC5E234C32447
:10E72000A01481046674476424540544DBA7FAB737
:10E730009987B8975FE77EF71DC73CD7D326F23697
:10E740009106B01657667676154634564CD96DC983
:10E750000EF92FE9C899E9898AB9ABA944586548E7
:10E7600006782768C018E1088238A3287DCB5CDBD7
:10E770003FEB1EFBF98BD89BBBAB9ABB754A545A37
:10E78000376A167AF10AD01AB32A923A2EFD0FEDA3
:10E790006CDD4DCDAABD8BADE89DC98D267C076C87
:10E7A000645C454CA23C832CE01CC10C1FEF3EFF77
:10E7B0005DCF7CDF9BAFBABFD98FF89F176E367ED7
:10E7C000554E745E932EB23ED10EF01E00080050DE
:10E7D0000040000000000000000000502000000089
:10E7E0000000000000000050800000000000000059
:10E7F0000004005010000000010000000004005060
:10E800002000000001000000000000500400000093
:10E8100000000000000000500002000000000000A6
:10E820000000005002000000000000000000005046
:10E830001000000000000000000000500001000077
:10E840000000000000040050010000000000000073
:10E85000000400500200000000000000000800500A
:10E8600000800000010000000000005000200000B7
:10E870000000000000000050004000000000000008
:10E880000000000000000000000000000000000088
:10E890000000000000000000000000000000000078
:10E8A0000000000000000000000000000000000068
:10E8B0000000000000000105080B0E1114171A1CBF
:10E8C0001F212326282A2C2E3032343637393B3C60
:10E8D0003E3F41424344464748494A4B4C4D4E4FC8
:10E8E0005051515253545455565657585859595AD5
:10E8F0005A5B5B5C5C5D5D5D5E5E5E5F5F5F606042
:10E9000060606161616162626262626363636363EA
:10E910006363646464646464000400504000000045
:10E920000000000000040050800000000000000013
:10E9300000000050400000000000000000000050F7
:10E94000010000000000000000000050080000006E
:10E950000000000000000050000400000000000063
:10E9600000000050000800000000000000000050FF
:10E970000010000000000000000000000000000087
:10E98000000000000000000001010101020202027B
:10E99000030303030303030304040404040404043F
:10E9A00005050606070707070707070708080808F9
:10E9B00008080808090909090909090909090909CB
:10E9C0000A0A0A0A70B40123002413E00168001D3A
:10E9D000194202D04D466D1E49190C60091D121FC7
:10E9E000042AFAD20D00960701D50C80AD1C1A40FE
:10E9F00000D02C700268001D002AE7D170BC70475F
:10EA000050005000EC0A00203C0B00200096000053
:10EA10000000002075000000140000003C00000011
:10EA2000D00700000038014000440040004C004086
:10EA300000500040FFFF01000100400030B40122FF
:10EA40000168001D00290FD00368C318446808300E
:10EA5000144202D04D466D1E64191D6825601B1DB1
:10EA6000241D091FECD0F8E730BC704710B50749EA
:10EA700079441831064C7C44163404E0081D0A68B9
:10EA8000891888470100A142F8D110BD0800000094
:10EA90002800000031FFFFFF1C0F00003C00002099
:10EAA0000000000099FFFFFF3C00000054FFFFFF43
:10EAB0000000002000000000008000400020001046
:10EAC0000008000400020001800040002000100047
:10EAD0000800040002000100010002000400080018
:10EAE0001000200040008000000100020004000827
:10EAF000001000200040008000F00DF8002801D038
:10EB0000FFF7B4FF00BF00BF002000BF00BFFCF74D
:10EB10003CF900F002F80120704780B500F002F8DF
:10EB200001BDFEE70746384600F002F8FBE7FEE7C6
:10EB300080B500BF00BF024A11001820ABBEFBE742
:10EB4000260002001E0C44010C4110075F010A62FE
:10EB50001D04030501000C080A090E070305040B38
:10EB6000020F060D00000000000000000102030477
:10EB700006070809014880470148004771D5000889
:10EB800091EB0008030406080C1018203000000068
:10EB900000BF00BF00BF00BFFFF7AEFF3DD03E3D4E
:10EBA000A00400000000000001020304231900116A
:10EBB000010004007F000000FEE7FEE7FEE7FEE73D
:10EBC000FEE7FEE7FEE7FEE7FEE7FEE7FEE7FEE71D
:0AEBD000FEE7FEE7FEE7FEE7FEE7C2
:040000050800EB9173
:00000001FF
