:020000040800F2
:100000008010002071B6000849B600084BB6000801
:1000100000000000000000000000000000000000E0
:100020000000000000000000000000004FB60008C3
:10003000000000000000000051B6000853B60008A0
:1000400013700008139D00082FB600083BB6000887
:100050005FB60008F381000845820008A18200080D
:10006000ADB60008AFB6000889780008B1B6000840
:10007000B3B60008B5B60008B7B60008CD850008CD
:10008000A9860008B9B60008BBB600080000000049
:10009000BDB60008BFB60008C1B60008C3B6000868
:1000A000C5B60008C7B60008C9B60008CBB6000838
:1000B00019870008CDB6000800000000CFB6000880
:104000008010002071B6000849B600084BB60008C1
:1040100000000000000000000000000000000000A0
:104020000000000000000000000000004FB6000883
:10403000000000000000000051B6000853B6000860
:1040400013700008139D00082FB600083BB6000847
:104050005FB60008F381000845820008A1820008CD
:10406000ADB60008AFB6000889780008B1B6000800
:10407000B3B60008B5B60008B7B60008CD8500088D
:10408000A9860008B9B60008BBB600080000000009
:10409000BDB60008BFB60008C1B60008C3B6000828
:1040A000C5B60008C7B60008C9B60008CBB60008F8
:1040B00019870008CDB6000800000000CFB6000840
:1040D00000000000000000000000000000000000E0
:1040E0003233323030303131000000000000000047
:1040F00030302E30302E3031000000000000000043
:104100003030312E3030302E30303700000000009B
:0C411000232000110B01620101000700D8
:10411C0070B584B0022069468870232069464870C7
:10412C00202069460870002200210A2000F0BDFE04
:10413C00BF490870002200210A2000F0B6FE6D492C
:10414C000870002200210A2000F0AFFE6A490870B6
:10415C0001220021012000F0A8FE6849087001F03E
:10416C0081F900206649087000206649088000200B
:10417C00644908716448634948806448644908602C
:10418C0000206449086064486449086001A86449D7
:10419C00032201F0ADF902A8A249032201F0A8F90B
:1041AC000199029801F016FB00280FD102A8A14931
:1041BC00032201F09DF901A89A49032201F098F914
:1041CC000299019801F006FB00280DD003256C46DE
:1041DC00944E2A002100300001F08AF900230122BC
:1041EC000121904801F015FB9148007800F0E4FEA5
:1041FC0000F064FC7FBD00B58F480078401C8E49F0
:10420C0008708D4800781E2826DB00208A4908702B
:10421C003F480068002804D03D480068401E3C49D7
:10422C0008603C480068002804D03A480068401EEA
:10423C003849086081480088002804D07F480088ED
:10424C00401E7E4908807E480088002804D07C48A7
:10425C000088401E7A4908802A484088002804D0EB
:10426C0028484088401E274948802C480068002870
:10427C0004D02A480068401E2849086000BD0FB4CD
:10428C0070B56846007CAF49AF4A127813235A4385
:10429C00885404A88078AB49AB4A127813235A434C
:1042AC008918887004A84078A649A74A1278132365
:1042BC005A4389184870102404A8C51CA148A24967
:1042CC000978132251434018C61C220029003000E3
:1042DC0001F00EF99C480078401C9B4908709A48E4
:1042EC000078062802DB002097490870039870BC00
:1042FC0005B000476F250020702500207125002097
:10430C006C25002008250020581B0000C0D401009B
:10431C004425002048250020603B00004C2500204F
:10432C007400002080B54248007800F08AFF012814
:10433C0003D13F48007800F03FFE3D48007800F084
:10434C0071FF002805D03A48007800F05FFFFFF7B6
:10435C0052FF01F069F894480078002808D0022830
:10436C0040D049D304281ED02CD3052834D058E093
:10437C008E480068002807D101F062F800280FD0A1
:10438C008B488A4908600BE08A480068002807D1EE
:10439C0000F01EFD002803D0FA20C00085490860FB
:1043AC0000F0ACFB3DE084484088002809D1012294
:1043BC008249092001F04FFB02F0E1F900207A4913
:1043CC0008702EE07E480068002804D10020764951
:1043DC00087001F009F824E002F0D1F900207249CC
:1043EC0008701EE015480088002804D101F00EF872
:1043FC0000206D49087014E01148008800280DD188
:10440C0001F004F800206849087000206D4908701C
:10441C0001226C490A2001F01EFB01E000F06EFB4A
:10442C00FFE701BD342500205F480078704700008D
:10443C006E250020382500206D2500207C000020F2
:10444C007A00002070B505000C001600E4B2082CB0
:10445C006BD15C4805705C48007A5A4948705A48E0
:10446C00407A584988705848807A5649C8705648DE
:10447C00C07A544908715448007B524948715248DB
:10448C00407B504988715048807B4E49C8714E48DA
:10449C00C07B4C4908724C48007C4A4948724A48D7
:1044AC00407C484988724848807C4649C8724548D7
:1044BC00007BFE2101404448C07C0200D207D20F91
:1044CC000A43404802733F48007BFD2101403E48AF
:1044DC00C07C0222104008433A4908733948007BDB
:1044EC00FB2101403848C07C042210400843354968
:1044FC0008733448007B4007400F32490873324838
:10450C00007D304948733048407D2E4988732E48D1
:10451C00807D2C49C8732C48C07D2A49087411220F
:10452C002849052001F097FAFFE770BD00B51E4839
:10453C000078012803D100201B490870FFE700BD5B
:10454C0000000000B422002073250020F8B5040000
:10455C0015480078012825D11A48047003251B48FA
:10456C00E4B2032161434618194F2A003100380088
:10457C0000F0BEFF04221349032001F06CFA154829
:10458C00007800280BD100200749087000200D4945
:10459C00087001220B490A2001F05DFA01E002F0DB
:1045AC0009FCFFE7F1BD00006C250020442500202C
:1045BC00C0D4010048250020082500200C2500202F
:1045CC004C250020BC210020BC200020E42400202D
:1045DC00BD2100206B250020F2B58AB00500160025
:1045EC0000240AA8007801280CD0022800D1A0E0F1
:1045FC00032800D1FEE0062800D11BE1082800D1D9
:10460C001FE190E10A200400CC480078002804D077
:10461C00CA480078012800D086E0DE48006800789F
:10462C00002800D080E000F007FF69464875684616
:10463C00407DCB494978884207D26846C8494978B9
:10464C006A46527D891A017502E000206946087598
:10465C006846007D292810DB00200490A1200390DF
:10466C006C2002905F2001900A20009009239A226E
:10467C000021A02002F0ACF80FE000200490E32011
:10468C0003906C2002905F2001900A20009002237E
:10469C0066220221802002F09BF806A802F0BCF8EA
:1046AC000120BC49096808706846007EB949096850
:1046BC00487006A84078B7490968887006A88078C1
:1046CC00B4490968C87006A8C078B249096808716D
:1046DC0006A80079AF490968487106A84079AD4928
:1046EC000968887106A88079AA490968C87106A862
:1046FC00C079A8490968087206A8007AA549096812
:10470C004872C34805700122C149062001F0A3F983
:10471C00C04805710020BF490880BF48BD4948808A
:10472C0004208649087003E000209A490968087043
:10473C00FFE0032004009748006840780002954988
:10474C000968097840186946C8827C4800780428B2
:10475C0040D1B04800792900C9B288423AD1F6B2AA
:10476C00022E37D3AB4800886946C98A884231D3B8
:10477C006846C08AA7490988884217D16846C08A0A
:10478C00401CA4490880A2480570F6B28148006814
:10479C000090B74F32000099380000F0A9FE3200AB
:1047AC00521CD2B29A49072001F055F96846C08ACA
:1047BC0080B2000A7749096888706846C08A7549D2
:1047CC00096848700120734909680870924891493A
:1047DC0048800EE000206F490968887000206D4900
:1047EC000968487000206B49096808708A48894933
:1047FC0048809EE00120040050480078042814D121
:10480C00844800792900C9B288420ED105204B4951
:10481C0008707F48057001227D49082001F01BF9C2
:10482C0001205C490968087003E0002059490968B7
:10483C0008707EE0012004000020564909680870C9
:10484C0077E073480570A748007A71494870A5480D
:10485C00407A6F498870A348807A6D49C870A14826
:10486C00C07A6B4908719F48007B694948719D4823
:10487C00407B674988719B48807B6549C871994822
:10488C00C07B634908729748007C6149487295481F
:10489C00407C5F4988729348807C5D49C8725C4853
:1048AC00007BFE2101408F48C07C0200D207D20F52
:1048BC000A43574802735648007BFD210140894842
:1048CC00C07C022210400843514908735048007BB9
:1048DC00FB2101408348C07C0422104008434C4912
:1048EC0008734B48007B4007400F494908737D48CB
:1048FC00007D474948737B48407D4549887379481A
:10490C00807D4349C8737748C07D414908741122A2
:10491C003F49052001F09FF80120040000201D49AB
:10492C000968087005E00120040000201949096895
:10493C0008702000C0B20BB0F0BD00006C25002048
:10494C0080B500F05FFD00220521042000F0CCFCB6
:10495C0064206549088002206449087001BD00008C
:10496C004025002010B504000022210089B26048C7
:10497C00007800F0EBFA012804D15D48007800F0D3
:10498C001BFB05E0210089B25948007800F0B5FB0B
:10499C0010BD00003025002080B55548007800F08F
:1049AC0064FB01BD80B55248007800F03BFC02BDB1
:1049BC0080B54F48007800F029FC01BD10B504000B
:1049CC000022210089B24B48007800F0BFFA012880
:1049DC0004D14848007800F0EFFA05E0210089B2D4
:1049EC004448007800F089FB10BD80B54148007840
:1049FC0000F03BFB01BD80B53E48007800F012FC96
:104A0C0002BD80B53B48007800F000FC01BD000001
:104A1C00BC21002008250020581B000010B5040004
:104A2C000022210089B23448007800F08FFA012866
:104A3C0004D13148007800F0BFFA05E0210089B2BA
:104A4C002D48007800F059FB10BD80B52A4800783D
:104A5C0000F00BFB01BD80B52748007800F0E2FBAD
:104A6C0002BD80B52448007800F0D0FB01BD0000E9
:104A7C00BD21002070B505000324D44E220029006E
:104A8C00300000F035FD002301220121CF4800F059
:104A9C00C0FE70BDF8B506000C0003256F462A0059
:104AAC003100380000F024FD2000C0B200F0B5FD4C
:104ABC002100C9B2009800F0CAFDF1BD80B50120FB
:104ACC00D049096808700020CE4909684870072051
:104ADC00CC490968887003220921002000F004FCED
:104AEC0001BD0000BC2000207C0000206C250020B3
:104AFC006F250020702500207125002010B5C248BC
:104B0C00C249097813225143405C002800D15BE173
:104B1C00BD48BE49097813225143405C01280BD093
:104B2C0000D23EE1032841D026D305284CD019D31E
:104B3C00062800D123E134E1B5480078002810D1D3
:104B4C00B448B54908600320B1490870002200211F
:104B5C00AD48AE4B1B7813246343C018407800F06B
:104B6C0002FC1EE1A848A9490978132251434018B8
:104B7C00407800F05DF914E100F044FCA748A84926
:104B8C000880A148A1490978132251434018807824
:104B9C00A449087001209E4908700120A2490870A0
:104BAC000122A1490A2000F056FFFAE000F02EFC89
:104BBC0000209749087000209B49087001229A49EF
:104BCC000A2000F048FFECE092489349086003206B
:104BDC008F4908708C488D4909781322514340182D
:104BEC00C078884909680870874888490978132271
:104BFC0051434018007983490968487082488349B9
:104C0C00097813225143401840797E49096888700D
:104C1C007D487E490978132251434018807979499F
:104C2C000968C870784879490978132251434018AB
:104C3C00C07974490968087173487449097813225A
:104C4C0051434018007A6F49096848716E486F49A2
:104C5C000978132251434018407A6A4909688871CF
:104C6C0069486A490978132251434018807A65498A
:104C7C000968C87164486549097813225143401882
:104C8C00C07A6049096808725F4860490978132244
:104C9C0051434018007B5B49096848725A485B498C
:104CAC000978132251434018407B56490968887291
:104CBC0054480068C17AFE2008405349534A127880
:104CCC0013235A438918897B0A00D207D20F024357
:104CDC004C480068C2724B480068C17AFD200840FD
:104CEC0049494A4A127813235A438918897B02226C
:104CFC001140014343480068C17242480068C17AC0
:104D0C00FB2008404049414A127813235A43891822
:104D1C00897B0422114001433A480068C17239482A
:104D2C000068C07A4007400F36490968C8720020F5
:104D3C0034490968087300203249096848733248BD
:104D4C0032490978132251434018407C2D49096897
:104D5C0088732D482D490978132251434018807CC3
:104D6C0028490968C873102207212748274B1B784C
:104D7C0013246343C018407800F0F5FA11E025487D
:104D8C0025490860032022490870002208211E488A
:104D9C001E4B1B7813246343C018407800F0E3FAD1
:104DAC00FFE700201849194A127813235A438854F4
:104DBC0016480078401C15490870144800780628DD
:104DCC0002DB00201149087010BD000034250020C2
:104DDC0010B5002400F00CFB00280FD001200400BB
:104DEC0001F088FC01F0F6F9104988700F4802F0C8
:104DFC00EFF801F0A1FC022002F0C9F92000C0B2CA
:104E0C0010BD000030250020B422002072250020A7
:104E1C006C250020603B00004C2500203075000004
:104E2C007A0000206B250020BC21002040250020AA
:104E3C0010B50400E4B2042C03DA2000C0B200F078
:104E4C00ECFB10BD10B501000820C9B2002902D03E
:104E5C00012914D027E000231A00D2B2072A0DDA58
:104E6C00B34BD2B2062454431B195B799B079B0F9F
:104E7C00002B01D1100001E0521CEEE713E00723D8
:104E8C001A00D2B2082A0DDAA94BD2B20624544326
:104E9C001B195B799B079B0F002B01D1100001E0C4
:104EAC00521CEEE7FFE7C0B210BDF8B504000F00CE
:104EBC001500FF262800C0B2FFF7C4FF0100C9B2DD
:104ECC00082940D00E009A48C9B206224A4384529F
:104EDC000020974AC9B206234B43D218107194484C
:104EEC00C9B206224A4380184079FC2202400120B4
:104EFC0010438F4AC9B206234B43D21850718C48C9
:104F0C00C9B206224A4380184079FB220240B800FD
:104F1C00042318401043864AC9B206234B43D218C7
:104F2C0050718348C9B206224A4380184279E7205F
:104F3C001040EB0018221A4002437D48C9B20623E8
:104F4C004B43C01842713000C0B2F2BD70B50300C3
:104F5C000020DBB2082B2DD0754CDBB206255D434F
:104F6C0064196479A407A40F012C23D10124200017
:104F7C006F4CDBB206255D4361536D4CDBB20625ED
:104F8C005D43645B6A4DDBB206265E43AD196C80F3
:104F9C00674CDBB206255D4364196479FB2525401B
:104FAC009400042634402C43614DDBB206265E434C
:104FBC00AD196C71C0B270BD70B504000025E4B2BF
:104FCC00082C4FDA5A48E4B2062161434018407964
:104FDC008007800F012845D1012005005448E4B218
:104FEC000621614340184079C0B2C0088607B60F4D
:104FFC009D48F6B2042171434058401C9A49F6B2C0
:10500C000422724388509848F6B2042171434058E8
:10501C00012805D19548F6B20821714340588047C4
:10502C004348E4B206216143405A4149E4B20622A6
:10503C0062438918488000203D49E4B2062262434D
:10504C00891808713A48E4B2062161434018407946
:10505C00FC210140022008433549E4B20622624398
:10506C00891848712800C0B270BD70B504000025C5
:10507C00E4B2082C3EDA2E48E4B206216143401813
:10508C0040798007800F022834D101200500284880
:10509C00E4B20621614340184079C0B2C0088607CB
:1050AC00B60F7148F6B2042171434058401E6E4948
:1050BC00F6B20422724388506B48F6B20421714355
:1050CC004058002806D16948F6B2082171434018AF
:1050DC00406880471648E4B2062161434018407985
:1050EC00FC210140012008431149E4B2062262432D
:1050FC00891848712800C0B270BD10B5020000209C
:10510C00D2B2082A11DA0A4BD2B2062454431B1924
:10511C005B799B079B0F022B07D101231800044BD3
:10512C00D2B2062454431B195980C0B210BD0000E2
:10513C005024002010B500200400E4B2072C4DDAF6
:10514C004B48E4B206216143401840798007800F38
:10515C00022841D14648E4B20621614340184088F8
:10516C00401E4349E4B206226243891848804048F5
:10517C00E4B2062161434018408800282CD13C48F9
:10518C00E4B20621614340180079401C3849E4B26E
:10519C0006226243891808713548E4B2062161433E
:1051AC0040184079C0B280080100C907C90F002916
:1051BC0002D001290CD00FE02D48E4B20621614346
:1051CC00405A2B49E4B2062262438918488003E016
:1051DC002000C0B2FFF749FF641CAEE710BD00B55C
:1051EC0000210800C0B208280FDA2149C0B20622FB
:1051FC00424389184979FC220A401D49C0B2062352
:10520C004343C9184A71401CECE700BD00B5C0B25D
:10521C00082806DA0021164AC0B206234343D218E6
:10522C00117100BD00B501000020C9B2082906DAD1
:10523C000F4AC9B206234B43D21812791000C0B2E0
:10524C0000BD00B501000020C9B2082908DA084ADF
:10525C00C9B206234B43D21852799207920F100011
:10526C00C0B200BD00000000F82400206400002043
:10527C005024002010B504002000C0B2FFF766F9DE
:10528C0010BD70B504000E0015002A00D2B231001A
:10529C00C9B22000C0B2FFF79FF970BD80B5FFF70F
:1052AC0045F901BD10B504002000C0B2C0B2C04623
:1052BC0010BD80B5C046C04601BD70B504000E00DF
:1052CC0015002A00D2B23100C9B22000C0B2FFF7DB
:1052DC00B9F870BD38B505000C002100C9B2280022
:1052EC00C0B2C046C04631BDF8B504000F00150071
:1052FC00002601F007FB002832D1EDB2F62D2FDA93
:10530C002000C0B200F0B9F8734880787349C870B7
:10531C0071484078714988706F4800786F494870BF
:10532C006E48C079C0210140B806800E08436B4915
:10533C00C8716A48C0794006400E6849C871674810
:10534C00C079402101436548C17128000930634987
:10535C000870012001F098FA002801D00120060005
:10536C003000C0B2F2BDF8B504000F0015000026E5
:10537C0001F0C8FA002834D1FFB2022F31D0EDB2BF
:10538C00F62D2EDA2000C0B200F077F85248807863
:10539C005249C87050484078504988704E4800783F
:1053AC004E4948704D48C079C0210140B806800E66
:1053BC0008434A49C8714948C0798021014347488C
:1053CC00C1714648C079402101434448C17128004D
:1053DC0009304249087001F030FD002801D001204D
:1053EC0006003000C0B2F2BD80B501F05DFD02BD1B
:1053FC0080B501F087FA002801D1012000E00020DF
:10540C00C0B202BD80B501F0D5FC01BD80B501F084
:10541C00D5FC01BD38B505000C002100C9B228002F
:10542C00C0B2C046C04631BD80B501F0F7FD01F0F9
:10543C0071FA00F08BF801BD80B500F0EDFE02BDF5
:10544C0010B50024FFF7D4FF002808D00120040079
:10545C0023482449086001F0D7FD01F0B3FC20007B
:10546C00C0B210BD80B51E481E49086000F09AFEFF
:10547C0000F0B0F801F0B0FC01BD10B5040001F073
:10548C0041FA002825D1E4B2042C17D01648E4B216
:10549C000321614340188078104988711248E4B2A6
:1054AC0003216143401840780C4948710E48E4B21E
:1054BC0003216143405C0949087108E0FF2007495A
:1054CC008871FF2005494871FF200449087107487D
:1054DC00047010BD0000000034250020BC2000200A
:1054EC00C420002030250020E42400206A25002060
:1054FC00124207D08B0706D00B78491C0370401C56
:10550C00521EF7D87047830706D00B78491C0370DE
:10551C00401C521EF9D1704770B4103A03D378C9AD
:10552C00103A78C0FBD2530701D318C918C001D563
:10553C0008C908C0D20704D30B880380891C801CBF
:10554C00002A01D50B78037070BC704738B58A48B7
:10555C00008800283DD0884800780100C907C90F91
:10556C0000290CD0002301220121964800F051F9AA
:10557C0081480088944901407F48018029E000203F
:10558C000400E4B2042C0DDA7B48008880B2400899
:10559C0080B20121A14001400120A040814201D0F4
:1055AC00641CEEE7744800880100C907C90F01228A
:1055BC00A240D3435A0002400A436F4802800023A2
:1055CC00012201218148E4B203256543401900F012
:1055DC0020F931BD10B50020674908800020040077
:1055EC00E4B2042C13DA7948E4B203216143401885
:1055FC0077490322FFF77CFF012201217348E4B2B3
:10560C0003236343C01800F0FCF8641CE8E7012294
:10561C0001216C4800F0F5F810BD10B504006B4882
:10562C00E4B203216143401869490322FFF760FF8C
:10563C00514800880100C907C90F0122A24052003D
:10564C0002436148104008434B49088010BD31B5F6
:10565C0082B00D000424EDB2FF2D35D1029800F07C
:10566C008DF80400E4B2042C49D100200400E4B20B
:10567C00042C44DA68465549E4B203226243891883
:10568C000322FFF735FF52480168009800F0A2F89A
:10569C00002817D04D48E4B203216143401802A9F9
:1056AC000322FFF725FF344800880100C907C90F02
:1056BC000122A240520002434348104008432E49A5
:1056CC0008801CE0641CD2E7EDB2042D17DA3F48C9
:1056DC00EDB203216943401802A90322FFF708FF2A
:1056EC00254800880100C907C90F0122AA405200B1
:1056FC0002433548104008431F4908802C00200005
:10570C00C0B23EBD2F480068704710B50400304849
:10571C000168200000F05EF8002801D0002004E0B1
:10572C0021002848006800F055F8C0B210BD10B533
:10573C00040027480168200000F04CF810BD10B59B
:10574C0082B0002400200400E4B2042C11DA684674
:10575C001E49E4B20322624389180322FFF7C8FEF4
:10576C0000991B48006800F035F8002801D1641C32
:10577C00EAE72000C0B216BD3C25002038B5050074
:10578C00042413480168280000F024F8002815D1DF
:10579C0000200400E4B2042C10DA68460B49E4B291
:1057AC000322624389180322FFF7A2FE0099280006
:1057BC0000F010F8002801D1641CEBE72000C0B207
:1057CC0032BD000034250020FEFF0000E424002040
:1057DC007400002003B56846807801A98978884256
:1057EC000DD16846407801A94978884207D16846AE
:1057FC00007869460979884201D1012000E0002037
:10580C0006BD70B504000D001600200001F056FE18
:10581C0070BDF2B5040017001D00200001F03EFE23
:10582C0006003000C0B2F2BD80B50022002101207C
:10583C00FFF73BFBA449087001F0A0FE01F03CFF10
:10584C00A2490860FF20A24988700120B64908705F
:10585C000020B54948700720B34988700322B2492B
:10586C00002000F0F8F801BD10B5B048007804280D
:10587C0015D1964800684078002800D082E00020BE
:10588C00AA490870AA480078401CA9490870A84881
:10589C0000780A2876DB0020A549087072E0A3483E
:1058AC00007806280DD1894800684078002869D115
:1058BC008748807800209D490870FF2084498870B3
:1058CC0060E09A480078012803D0984800780228B4
:1058DC0058D17E48006801F026FF002835D0954845
:1058EC0004782000401C934908707848006801F047
:1058FC003DFF9149E4B208558C480078012816D137
:10590C008C48007801283DD18B48007800280AD0BB
:10591C0032208A4908700220844908706A4800784D
:10592C00FFF74AFB2EE00020824908702AE08148EC
:10593C00007881490978884224D103207B4908707A
:10594C0061480078FFF791FB1CE05F480078FFF797
:10595C0069FC002816D05C480078FFF757FC7748A4
:10596C00007800280ED075480078401E73490870E6
:10597C0072480078002805D100F0EEFA5248007801
:10598C00FFF773FB69480078032804D100F01AF97B
:10599C000020664908706548007801280CD14C48F5
:1059AC008078FF2805D162480078654909788842DB
:1059BC0002D000205D4908705C480078002849D16D
:1059CC0043488078FF2813D0414800F0C1F8404884
:1059DC0002783F493D48006801F000FF012839D1A9
:1059EC000620524908703948006801F08AFE31E0FF
:1059FC004F48007852490978884221D051484C4987
:105A0C000978FD225143401800F0A2F84D4848494E
:105A1C000978FD225143425C4A4845490978FD23E7
:105A2C00594341182948006801F0D8FE012811D1CA
:105A3C0004203E4908702548006801F062FE09E028
:105A4C0000203C4908702148006801F048FE012004
:105A5C003649087010BDF8B504000F001500280079
:105A6C00401D3849364A1278FD235A438854002089
:105A7C003449334A1278FD235A4389184870314807
:105A8C002F490978FD22514340188470EDB2002D46
:105A9C000CD0EDB22B482A490978FD22514340180D
:105AAC00C61C2A0039003000FFF722FD244800787C
:105ABC00401C23490870224800780A2802DB002089
:105ACC001F490870F1BD0000682500202C2500201E
:105ADC00BC1F0020F0B502001B4E30000026330026
:105AEC001E000F00F6B2FFB2BE421BD2DBB2D65C78
:105AFC00350000263400E4B2082C11DA80B206120C
:105B0C0080273E40EDB280272F407740002F03D0F6
:105B1C0046000E48704000E040006D00641CEAE74F
:105B2C005B1CDDE780B2F0BD8024002064250020E2
:105B3C006525002069250020BC1E0020672500205B
:105B4C006625002080100020FFFF000021100000BF
:105B5C0038B504002078811EC9B22000FFF7BAFFC7
:105B6C000500280080B2000A21786118491E0870CF
:105B7C00280021786118891E087031BD70B50400A9
:105B8C002078811EC9B22000FFF7A4FF0600207800
:105B9C002018401E0078310089B2090AC9B2884227
:105BAC000AD120782018801E00783100C9B28842B2
:105BBC0002D10120050001E0002005002800C0B240
:105BCC0070BD000010B588B0002069460871894886
:105BDC00FFF7D4FF012800D0BAE1864840780128AD
:105BEC0000D0A8E005208449087004208249487040
:105BFC0080488078804988707E48807800280AD058
:105C0C00012817D0022824D0032834D005286CD0C2
:105C1C000A2859D08BE078480078C01C7649087067
:105C2C0001207549C870002073490871072072491A
:105C3C00487180E170480078C01C6F4908700120E1
:105C4C006D49C87000206C49087107206A49487179
:105C5C0071E169480078C01C67490870BD488078BC
:105C6C0065494871BB48407863490871B948007868
:105C7C006149C8705FE15F48C0780400E4B2042C4D
:105C8C001EDA5D480078001D5B4908705A48C470E4
:105C9C00BA48E4B2032161434018807856498871B0
:105CAC00B648E4B203216143401840785249487128
:105CBC00B248E4B203216143405C4F49087102E0F1
:105CCC0003204D49487036E14B480078401C4A4946
:105CDC000870FEF7A9FB012803D101204649C870C2
:105CEC0002E000204449C87025E14248C078040015
:105CFC0006A8A249E4B20322624389180322FFF7E3
:105D0C00F7FB68469E490322FFF7F2FB06990098C1
:105D1C00FFF760FD002809D1062069460871354857
:105D2C00C07801A9487002203349487003E1032070
:105D3C0031494870FFE02F484078002800D0FAE045
:105D4C002C4880782C49887005202B49087003203A
:105D5C00294948702748807802280BD0032810D096
:105D6C0004281DD005285FD00A283BD00B2800D171
:105D7C00DAE0DDE08348FEF77DFE02201E49487024
:105D8C00D9E01C48C0780400E4B2042C07DA1948A6
:105D9C00C1787D48FEF77EFE022017494870CAE0A4
:105DAC001448C078040006A87449E4B20322624384
:105DBC0089180322FFF79CFB684671490322FFF701
:105DCC0097FB06990098FFF705FD002809D10120E3
:105DDC00694608710748C07801A948700220064935
:105DEC004870A8E00348C078002807D001280CD0E0
:105DFC0019E000BFBC1E0020BC1F00200320694618
:105E0C0008710220614948700DE0FFF798FC0428E6
:105E1C0008D0022069460871012001A9887002206F
:105E2C005A494870FFE786E05948C078040006A834
:105E3C005249E4B20322624389180322FFF758FB4C
:105E4C0068464F490322FFF753FB06990098FFF76A
:105E5C00C1FC002867D10520694608714C48C07800
:105E6C0001A948704A48007901A9C870484840798E
:105E7C0001A908714648807901A948714448C07944
:105E8C0001A988714248007A01A9C8714048407A3A
:105E9C0001A908723E48807A01A948723C48C07A30
:105EAC0001A988723A48007B01A9C8723848407B26
:105EBC0001A908733648807B01A9487301A8807B2F
:105ECC00FE2101403248C07B0200D207D20F0A43A8
:105EDC0001A8827301A8807BFD2101402C48C07B66
:105EEC0002221040084301A9887301A8807BFB2182
:105EFC0001402748C07B04221040084301A9887345
:105F0C002348007C01A9C8732148407C01A908746E
:105F1C001F48807C01A948741D48C07C01A9887465
:105F2C0002201A49487006E002201849487002E025
:105F3C0003201649487068460079002808D001A94A
:105F4C0084B068461422FFF7E7FA0FBCFEF797F906
:105F5C0008B010BD3425002080B50E48006801F053
:105F6C0067FC01F00BFB01F0A7FB0A49086000205D
:105F7C000949087000200949087001BDE42400207B
:105F8C0074000020BF1E0020C01E0020BC1F00207B
:105F9C00BC1E00202C250020642500206725002035
:105FAC0080B501F096FD01BD80B501F0F0FD01BD9D
:105FBC0010B5040020009A490978C0B2884200D17B
:105FCC00E3E0E4B22000002800D1CCE0042800D1AA
:105FDC00B7E0082800D1A2E00C2802D0102845D048
:105FEC00D3E0904800788106890E252001F0E6FD6B
:105FFC009A213C2001F0E2FD8B48C179192001F077
:10600C00DDFD89480179092001F0D8FD86484179E8
:10601C00082001F0D3FD84488179072001F0CEFDE2
:10602C0081488178062001F0C9FD7F48C1780520A0
:10603C0001F0C4FD7C480178042001F0BFFD7A48D2
:10604C004178032001F0BAFD78484078E322024001
:10605C000C211143C9B2012001F0B0FD272001F041
:10606C00D1FD0006FAD56E4804708EE06D480078BC
:10607C008006800E40210143C9B2252001F09EFD0F
:10608C006B4800788021084006210143C9B23C20AE
:10609C0001F094FD6748C179192001F08FFD654826
:1060AC000179092001F08AFD62484179082001F04C
:1060BC0085FD60488179072001F080FD5D4881787D
:1060CC00062001F07BFD5B48C178052001F076FDD0
:1060DC0058480178042001F071FD5648417803209E
:1060EC0001F06CFD022001F0F7FF534A0121022060
:1060FC0001F0D2FE4D484078E322024010211143BA
:10610C00C9B2012001F05AFD272001F07BFD0006E9
:10611C00FAD543480470022002F006F835E04348F3
:10612C004078E322024008211143C9B2012001F05A
:10613C0045FD272001F066FD0006FAD538480470AD
:10614C0023E03A484078E322024004211143C9B2CB
:10615C00012001F033FD272001F054FD0006FAD593
:10616C002F48047011E031484078E32101400120B0
:10617C0001F024FD272001F045FD0006FAD5022090
:10618C0001F06AFF26480470FFE725480078E4B266
:10619C00A04201D1012000E00020C0B210BD204877
:1061AC000078704780B500201D49487000201C49BC
:1061BC00087001F05BFC00F0F9F90020FFF7F8FE25
:1061CC0001BD80B501F052FC00F0F0F90020FFF7A2
:1061DC00EFFE01BD70B5002600240225012123200D
:1061EC0001F0ECFC012002F06DFA232001F00AFD15
:1061FC000221084004006D1EE4B2002C02D1EDB265
:10620C00002DEFD1EDB2002D03D0242001F0FAFCCB
:10621C0006003000C0B270BDC04800787047000066
:10622C001C25002021B50008D8240020FCB400084F
:10623C0038B50008CC24002031650008FAB583B0CD
:10624C00070014000025002069464880002069469C
:10625C000870029768463978491C81806846007C32
:10626C00002802D00020FFF7A3FEE4B2002C1AD0C5
:10627C0068468088411B89B2380001F0EAFC694607
:10628C004880684640882D1828006946898880B265
:10629C00884205D100200500641E02980700E4E73F
:1062AC00684640883F180C20FFF782FEE4B2002CB1
:1062BC0043D0FA20800006008021C901984802F0E2
:1062CC00ABFD002816D068460078002812D1002EAD
:1062DC000BD10820694608700020FFF769FEB24810
:1062EC000088401CB0490880E6E7012002F0EAF97A
:1062FC00761EE1E7684600780028D7D1E4B2002C7E
:10630C00D4D068468088411B89B2380001F0A1FCCA
:10631C0069464880684640882D1828006946898857
:10632C0080B2884205D100200500641E0298070047
:10633C00E4E7684640883F18B8E7684600780028CC
:10634C0024D16846007B012820D1FA208000060069
:10635C0080210902724802F05FFD002813D16846C3
:10636C00007800280FD1002E08D10820694608704B
:10637C008D480088401C8C490880E9E7012002F018
:10638C00A1F9761EE4E70020FFF712FE68460078BC
:10639C00002802D10720694608706846007805B0CD
:1063AC00F0BD0000F8B50500002700206946087014
:1063BC00002680246400AC480078102800D09AE0B5
:1063CC008021AA4802F028FD012800D093E0002289
:1063DC000121280001F064FC641E287840000600AE
:1063EC006D1C802109024E4802F016FD002828D1B0
:1063FC00FFB2002F25D1282001F004FCC00602D5E5
:10640C0003200700EDE70122210089B2280001F0EA
:10641C0047FC6946087068460078241A684600787C
:10642C002D18A4B2002C02D10220070005E0761E24
:10643C00B6B2002E01D105200700012002F042F96E
:10644C00CFE7FFB2380000282CD0022826D0032832
:10645C0002D0052806D050E00020FFF7A9FD00F07F
:10646C0003FA4AE00020FFF7A3FD3D2001F0CAFB30
:10647C00694608706846007804210143C9B23D2082
:10648C0001F09CFB0022210089B2280001F008FCDD
:10649C006946087068460078241A2EE00020FFF741
:1064AC0087FD2AE0802109021D4802F0B5FC002876
:1064BC001BD0282001F0A6FB694608700020FFF7CE
:1064CC0077FD0022210089B2280001F0E9FB694622
:1064DC00087068460078241AA4B2002C02D102205D
:1064EC00070007E00620070004E00020FFF760FD2E
:1064FC000220070001E0012007003800C0B2F2BD05
:10650C0059484078704780B5022001F0E5FD002025
:10651C0055494870022001F007FE01BD612500209D
:10652C000008005010B500244F48007810283AD1CC
:10653C00272001F067FB000704D5242001F062FB43
:10654C00B3490870B348FFF72DFF0400E4B2062CE2
:10655C0003D101204449487002E01020FFF728FDC8
:10656C00E4B2022C05D1BA480088401CB849088016
:10657C0019E0E4B2032C05D1B5480088401CB4499D
:10658C00088010E0E4B2042C05D1B2480088401C0D
:10659C00B049088007E0E4B2052C04D1AC4800886F
:1065AC00401CAB49088010BD5625002010B5AA48E8
:1065BC000079AA490870A848C078A8494870A6482C
:1065CC00407AA6490871A448007AA4494871A248A7
:1065DC00C079A2498871A0488079A04988709E48EA
:1065EC0040799E49C8709C48407E9C49C8710020E7
:1065FC009A49087298480079994908709648C07869
:10660C00974948709448407A954908719248007AA5
:10661C00934948719048C079914988718E48807926
:10662C008F4988708C4840798D49C8708A48407E63
:10663C008B49C87100208949087201200400E4B21A
:10664C00512C08DA8448E4B2015D2000C0B201F09C
:10665C00B5FA641CF3E72D21582001F0AFFA302174
:10666C006F2001F0ABFA10BD1C2500200004005077
:10667C0037B5002501F02AFA002803D101F029FAD8
:10668C0001200500FFF78BFD04000420FFF790FCB0
:10669C006846C179192001F091FA68460179092000
:1066AC0001F08CFA68464179082001F087FA6846B7
:1066BC008179072001F082FA68468178062001F082
:1066CC007DFA6846C178052001F078FA68460178B1
:1066DC00042001F073FA68464178032001F06EFA49
:1066EC002000C0B2FFF764FCEDB2002D01D001F028
:1066FC004EFA37BD10B5002401F0E8F9002803D19B
:10670C0001F0E7F9012004000420FFF751FC0021FF
:10671C006F2001F053FAFF21292001F04FFAB82124
:10672C002E2001F04BFA1020FFF742FCE4B2002CB3
:10673C0001D001F02CFA10BD10B5002401F0C6F9FF
:10674C00002803D101F0C5F9012004000420FFF753
:10675C002FFC98212E2001F031FA42480178292093
:10676C0001F02CFA30216F2001F028FA1020FFF7ED
:10677C001FFCE4B2002C01D001F009FA10BD80B569
:10678C0035480079354908703348C078334948702A
:10679C003148407A314908712F48007A2F494871A5
:1067AC002D48C0792D4988712B4880792B498870E8
:1067BC00294840792949C8702748407E2749C87123
:1067CC00002026490872254807C8FFF751FF01BD74
:1067DC00F7B407980899099A0A9C0B9D6E4636786F
:1067EC001E4F3E706E4636791C4F7E706E46367A62
:1067FC001A4FBE70194EF370184E3071174E7171DE
:10680C00164EB271154EF471144E3572F7BC7047BA
:10681C0061250020BC1D00201049097801700F492A
:10682C00497841700D49897881700C49C978C170DB
:10683C000A490979017109494979417107498979ED
:10684C0081710649C979C1710449097A017270478D
:10685C005425002050250020FCB40008CC24002036
:10686C00D824002025B5000810B5282001F0CAF95D
:10687C000400E00607D52000EF2404432100C9B230
:10688C00282001F09BF910BD38B5050000241F48E5
:10689C000079002833D1012000F079FC012301227A
:1068AC0001211B4800F0BBFC072811D1012004007A
:1068BC005020FEF783F801201449887000201349FA
:1068CC00C870022000F063FC01201049087109E037
:1068DC0000200400022000F05AFCFEF786F8072086
:1068EC000A490871012009498870EDB2002D03D0C6
:1068FC0001200649C87002E003200449C87020003A
:10690C00C0B232BD0148007970470000002500205C
:10691C00BC20002038B5C3480079002868D0022874
:10692C0022D015D3042800D18DE029D3062800D11C
:10693C00AAE07DD3082800D15BE148D30A2800D116
:10694C0058E156D30C2800D110E100D2C1E067E128
:10695C00FEF751F8002806D0FEF753F8FEF745F87D
:10696C000320B04908715BE1FEF775F8002806D0EA
:10697C00FEF777F8FEF769F80320AA4908714FE192
:10698C00A8488078401CA7498870A64880780428BD
:10699C0003DA012000F0D8FA18E0A248C078401CB5
:1069AC00A049C8709F48C07803280CD102209D498B
:1069BC000871002000F0EBFB00209A49887002203F
:1069CC00FEF72CF802E009209649087128E1954859
:1069DC008078401C9349887092488078042803DAA8
:1069EC00012000F0B1FA02E009208E49087117E18C
:1069FC0016E18D48C0798006800E04280FD06846B9
:106A0C008A490322FEF774FD0098FEF7B7FE86490B
:106A1C00C9798906890EC0B2FEF75CFC01E0FEF76D
:106A2C0048FC022000F0B3FB00207E490871F7E01F
:106A3C00FDF7DBFF022000F0AAFB0020794908716A
:106A4C00FDF77EFFECE0FDF7D0FF022000F09FFB8E
:106A5C00002074490871684674490322FEF748FD0A
:106A6C000098FEF78BFE0400E4B2042C0BD06E48A9
:106A7C000278093AD2B26C48C0798106890E20009E
:106A8C00C0B2FEF71AFCCBE0FDF7AFFF022000F01E
:106A9C007EFB0020634908716348C0798006800E34
:106AAC00042815D1FEF74BFEC0B2FEF7FBFB050028
:106ABC0068465E490322FEF71BFD2900C9B2009807
:106ACC00FEF7C5FD042803D000F078F9FEF7E6FBCD
:106ADC00A6E0FF20BF490968087052484079012898
:106AEC001CD1684651490322FEF702FDFF21009894
:106AFC00FEF7ADFD0400E4B2042C0AD000F05EF900
:106B0C002000C0B2FEF7B6FB0120B249096808703C
:106B1C0018E00020AF490968087013E06846434943
:106B2C000322FEF7E5FC0098FEF728FE0400E4B211
:106B3C00042C07D02000C0B2FEF79CFB0120A54915
:106B4C0009680870A34800680078FF2807D00A205D
:106B5C0035490870012001F0B5FD00F0BCF90220A8
:106B6C0000F015FB00202F49087159E02D484079A1
:106B7C00002837D12C48C0798006800E05280FD10B
:106B8C000A20294908702848C079C02101400420F6
:106B9C0008432549C87101208E490968087015E021
:106BAC00684622490322FEF7A3FC0098FEF7E6FD97
:106BBC001D490A78093AD2B21B49C9798906890E4E
:106BCC00C0B2FEF75EFB0930174908701648C07951
:106BDC00C0B2C009C0B2002804D1012001F072FD7E
:106BEC0000F079F9022000F0D2FA00200D4908716A
:106BFC0016E015E068460D490322FEF779FC009873
:106C0C00FEF7BCFD0849C9798906890EC0B2FEF7AA
:106C1C0001FC022000F0BBFA002002490871FFE7DA
:106C2C0031BD000000250020BC200020BD2000202C
:106C3C0070B582B00400C248007900286BD00128DE
:106C4C000DD0022865D0032864D0042800D1AFE011
:106C5C00062800D1ABE0092800D1A7E0A9E0B8488C
:106C6C00407901281AD16846211D0322FEF740FC09
:106C7C000098FEF74AFD002810D0E0794006400E3F
:106C8C0004280BD125786D1CAE4E2A002100300053
:106C9C00FEF72EFC0620AA49087139E06846211D32
:106CAC000322FEF725FC0098FEF72FFD00282CD0C0
:106CBC00E0798006800EA349C9798906890E88423D
:106CCC0023D1E079C0B280090100C907C90F00299E
:106CDC001BD16846611C0322FEF70AFC99484168E7
:106CEC000098FEF777FD002803D004209449087122
:106CFC0002E005209249087125786D1C914E2A00FE
:106D0C0021003000FEF7F4FB02E0022000F03FFA15
:106D1C004FE04EE04DE0E079C0B280090100C907B8
:106D2C00C90F00293ED0E0798006800E04280BD1D3
:106D3C0025786D1C834E2A0021003000FEF7D8FB0D
:106D4C000B207F49087130E06846611C0322FEF776
:106D5C00CFFB0098FEF712FD04281FD06846211DBA
:106D6C000322FEF7C5FB0098FEF7CFFC002809D1E3
:106D7C006846211D0322FEF7BBFB0098FEF7D7FCEB
:106D8C0000280BD025786D1C6E4E2A002100300097
:106D9C00FEF7AEFB0C206A49087106E0022000F0F9
:106DAC00F6F902E0022000F0F2F902E001E000E066
:106DBC00FFE773BD012062494871704700206049AC
:106DCC004871704700205E49087100205C49487189
:106DDC007047000030250020002059490871002020
:106DEC0057494871704710B555480079082820D18B
:106DFC00012001F071F900231C0028205149097869
:106E0C00491C02F04BF823000200D2B200214D487D
:106E1C0000F005FA072808D0012001F01DF9022026
:106E2C0000F0B5F9072046490871012001F07CF902
:106E3C0002E0012001F010F910BD38B500244048E3
:106E4C00007900282DD1012000F0A1F9012001F0DA
:106E5C0043F95A4A0221012001F01EF801231D00BA
:106E6C00422038490978491C02F018F82B0002001E
:106E7C00D2B20021334800F0D2F9072805D10820FE
:106E8C002F4908710120040008E0012001F0E4F80A
:106E9C00022000F07CF9072029490871012001F03B
:106EAC0043F92000C0B232BD10B50024244800794B
:106EBC0008280DD101200400012001F0CDF8182084
:106ECC0001F000FC022000F062F900201C4908715E
:106EDC002000C0B210BD10B582B000241848007953
:106EEC000C2803D0164800790B2825D13448C079DA
:106EFC004006400E3249C8713148C079BF2101406B
:106F0C002F48C1712F4830490322FEF7F1FAFEF7E2
:106F1C00F9FB00902C4869460322FEF7E9FA0120A0
:106F2C0000F035F9012301220121254800F077F901
:106F3C00072801D1012004002000C0B216BD0000BA
:106F4C0000250020BC20002038B5050000241F4877
:106F5C000079032803D01D48007907282AD1012085
:106F6C0000F015F9012301220121154800F057F911
:106F7C00072815D101200400EDB2002D09D05020B6
:106F8C00FDF71CFD022000F002F901200F490871E9
:106F9C0010E0022000F0FBF804200C49087109E015
:106FAC0000200400022000F0F2F8FDF71EFD07207F
:106FBC00064908712000C0B232BD0000F36D000814
:106FCC00BC200020C0200020BD2000200025002077
:106FDC0010B50378002B11D0437807245C432200B2
:106FEC008378D318C4781B1919000B009BB2DB08EB
:106FFC0043700B005B075B0FC37003E08378437037
:10700C000123037010BDFEE780B5FFF7DAF800200E
:10701C0000F0BDF8022000F0BAF801BD38B58E487A
:10702C000078002806D0022806D004D3032800D10B
:10703C0092E0ABE0AAE0A9E0FDF7B4FC00281CD07C
:10704C00FDF7B6FC00200400E4B2042C15DA8348EA
:10705C00E4B2005D002807D08048E4B2005D401E19
:10706C007E49E4B2085506E07D4800780121A14034
:10707C0088437B490870641CE6E7FFF741FA002857
:10708C0069D0FFF740FA77480178491CC9B27548B6
:10709C0001F074FF012856D1684673490322FEF7AC
:1070AC0027FA0098FEF731FB002817D068466F4985
:1070BC000322FEF71DFA0098FEF760FB0500EDB207
:1070CC00042D39D000206549EDB24855644800784C
:1070DC000121A9408843624908702DE06846634944
:1070EC000322FEF705FA0098FEF748FB0500EDB207
:1070FC00042D0AD014205949EDB24855584800784F
:10710C000121A940014356480170684656490322A3
:10711C00FEF7EEF90098FEF731FB0500EDB2042DF9
:10712C000AD014204D49EDB248554D480078012144
:10713C00A94001434A480170002000F028F8494852
:10714C00FFF776FD07E01020FEF732FF4848008875
:10715C00401C4749088019E0FFF7D2F9002814D0E9
:10716C00FFF7D1F93F480178491CC9B23D4801F0FD
:10717C0005FF012806D1002000F009F83948FFF777
:10718C0057FD02E01020FEF713FFFFE731BDF8B505
:10719C000400200030490978C0B288423ED0E4B2E5
:1071AC00002C05D0022C17D00CD3032C2AD033E0A2
:1071BC00FDF7F2FB0020FEF7FBFEFEF7F5FE26487E
:1071CC0004702BE0FDF7E8FBFEF7EAFE0020FEF76B
:1071DC00EFFE2148047021E06420FDF7C3FBFEF7AD
:1071EC00DFFE1020FEF7E4FE1B480470FF201C4954
:1071FC00087004251426194F32002900380001F0BC
:10720C00FBFE0BE0FDF7C8FBFEF7CAFE0420FEF701
:10721C00CFFE1148047001E0FDF7BEFBF1BDF4B5E3
:10722C0005000E001F0009240B48007801280FD11F
:10723C002978491CC9B2280001F08AFE3B00DBB258
:10724C00684602783100C9B22800FEF7F7FF040047
:10725C002000C0B2F2BD00007E00002020250020DE
:10726C0062250020BC1D0020C01D0020BD1D00207B
:10727C005225002000B502000023C9B2002904D019
:10728C00491EC9B2505C1B18F7E79BB2D84380B2B9
:10729C0000BD00B501000022D2B2072A0BDA7E48ED
:1072AC00D2B20C235343C058884202D11000C0B252
:1072BC0002E0521CF0E7FF2000BD70B50025002451
:1072CC0002F036F800200500EDB2072D25DA7248E1
:1072DC00EDB20C2169434018C4806F48EDB20C210B
:1072EC00694340180079401C0600B61CA4B2B6B223
:1072FC003000082101F0D2FD082148432418B6B211
:10730C003000082101F0CAFD002900D00834280003
:10731C00C0B200F05FF86D1CD6E770BDF0B587B059
:10732C000400E4B2072C01DB002051E05A48E4B21F
:10733C000C216143401801795748E4B20C22624396
:10734C008058FFF797FF5449E4B20C226243891826
:10735C0008815148E4B20C21614340180079029035
:10736C004D48E4B20C2161434058019003AE029A9F
:10737C0001993000FEF7BCF84748E4B20C21614398
:10738C0040180079050002264348E4B20C21614301
:10739C0040180830009003A83F49E4B20C22624325
:1073AC00891809794718320000993800FEF7A0F8BF
:1073BC00AD1C0023EDB22A00521C92B23648E4B246
:1073CC000C2161434018C18803A801F058FEC0B2DB
:1073DC0007B0F0BDF0B587B0040003AEE4B2072CE3
:1073EC0001DB002056E02C48E4B20C21614340182C
:1073FC0000790500AD1CEDB22A00521C92B2264851
:10740C00E4B20C2161434018C18803A801F01CFEB2
:10741C00002801D100203DE01F48E4B20C2161435B
:10742C00401801793000FFF725FF694608800220DB
:10743C0002901948E4B20C216143401800793018CD
:10744C00019000AFBF1C029A01993800FEF750F86A
:10745C006846408869460988884201D0002019E0B6
:10746C000D48E4B20C2161434018007901900A48A0
:10747C00E4B20C2161434758019A31003800FEF701
:10748C0037F8684600880449E4B20C226243891834
:10749C000881012007B0F0BD0C00002038B50400B5
:1074AC002000FFF7F6FE0500EDB2FF2D04D02800FA
:1074BC00C0B2FFF733FF00E0002032BD38B5040046
:1074CC002000FFF7E6FE0500EDB2FF2D04D02800EA
:1074DC00C0B2FFF77FFF00E0002032BD0121C206E1
:1074EC00D20E9140B64A116070470121C206D20EED
:1074FC009140B44A11607047F0B540B2002821D5D4
:10750C00994C40B20207120F083A950804225543D1
:10751C00954A40B203071B0F083B9B080426734394
:10752C00D258FF238607B60F08277E43B3409A43F1
:10753C008B01DBB28607B60F08277E43B34013439B
:10754C0063511AE0B74A40B2830804246343D2580B
:10755C00FF238407A40F08256C43A3409A438B0197
:10756C00DBB28407A40F08256C43A3401343AD4A38
:10757C0040B2840804256C431351F0BD80B5002043
:10758C008E49087000208D49487000208E49088073
:10759C0000208E49088000208D4908708D480068B5
:1075AC00012101438B480160A020C00500688A4975
:1075BC000140A020C0050160A020C005006880210A
:1075CC0009010143A020C005016097480068C02153
:1075DC000901014394480160A020C005006893494B
:1075EC000140A020C0050160A020C00500688021DA
:1075FC0089010143A020C00501608B480068C021AF
:10760C008901014388480160A020C00500689349A6
:10761C000140A020C0050160A020C00500688021A9
:10762C0009020143A020C00501607F480068C02109
:10763C00090201437C480160A020C005006888490C
:10764C000140A020C0050160A020C0050068802179
:10765C0089000143A020C005016073480068C02167
:10766C0009020143704801607E480068802149018D
:10767C0001437C4801607C4800687C4901407A48A1
:10768C00016000207A49086004207A4908607A4831
:10769C000068012101437848016088204000B64908
:1076AC0008600A20FFF721FF0A20FFF717FF0021CF
:1076BC000A20FFF721FF01BD6D48006840210143FE
:1076CC006B4801608F480068FF208E4908600020DD
:1076DC003A4948700120394908703848704710B54C
:1076EC000400364884420BD134480078012807D175
:1076FC0060480068022188435E49086000F040F948
:10770C0010BD10B504002D4884420BD12B480078D5
:10771C00012807D157480068012188435549086062
:10772C0000F0F2F810BD38B504000025234884425F
:10773C0014D122480078012810D100F05BF92248BE
:10774C0000888E490968401896214900884202D069
:10775C000120050004E00020050001E000200500E8
:10776C002800C0B232BD00001CED00E038B50400AA
:10777C00FF25124884421ED11048007801281AD1E6
:10778C00A84800887D49096840189621490088421C
:10779C0011D0A548A3490988405C0500A148008880
:1077AC00401CA04908809F480088962149008842C7
:1077BC0001D100F0E5F82800C0B232BD242500202C
:1077CC0000E100E080E200E0582500205A2500206E
:1077DC00632500202C100240FFF3FFFFF1B50F00D2
:1077EC001400002500988149884217D17F48007801
:1077FC00012813D18D480088E4B200199621490064
:10780C0088420BDAE4B27A4E220039003000FDF7E0
:10781C006FFEE4B285480480012005002800C0B248
:10782C00F2BD000000E400E008000050FFCFFFFFB5
:10783C0000B56E4988420FD16C49097801290BD1EA
:10784C000B49096840229143094A11600021674A9B
:10785C0011700021654A517000BD0000FF3FFFFF11
:10786C00FFFCFFFF341002401C300140FFF7FFFF0C
:10787C0000300140043001403010024080B56C48AB
:10788C000068C00522D56A480068800503D46848A2
:10789C00006800051AD51B4800686648006801217D
:1078AC0088436449086064480068802149000143AA
:1078BC006148016000205D49088000204B494870F8
:1078CC0000220121A020C00501F0B4FA584800683C
:1078DC00C00613D556480068800603D45448006887
:1078EC0000060BD5554800680121884353490860B0
:1078FC0051480068102101434F4801600A20FFF7EE
:10790C00F4FD01BD0C30014080B501204C490870DC
:10791C004C480068012188434A4908604748006880
:10792C00012188434549086046480068022101430B
:10793C004448016044484549086045484549086049
:10794C003A480088444908609A203A490860284817
:10795C0000783D49086037480068012101433548EB
:10796C00016001202149487001220121A020C0059D
:10797C0001F060FA01BD0000A800024020000240A6
:10798C0080B500220121A020C00501F053FA00208F
:10799C002449088000202A490870FF202A490860E1
:1079AC00284800680221884326490860214800685D
:1079BC00012188431F4908602248006801210143C6
:1079CC002048016020482549086017482449086070
:1079DC0096204000234908608A20184908601748FF
:1079EC000068012101431548016001BD24250020D8
:1079FC00901B002080B512480078012811D10D4849
:107A0C000068C0070DD40D480068C00709D416489B
:107A1C000068C00705D514480068800701D5FFF73A
:107A2C00AFFF01BD58250020641A00205A25002004
:107A3C000000024030000240040002401C000240E2
:107A4C0063250020043001400C3001403800024016
:107A5C00911B00203C0002403400024024000240F4
:107A6C0028000240200002400830014000B58BB0D5
:107A7C000020B3490870802040010590002006903A
:107A8C000220079005A9A020C00501F029F880214B
:107A9C004901A020C00501F0BFF90128F7D08020D2
:107AAC0040010090012001900020029000200390E2
:107ABC006946A020C00501F013F8642000F002FE16
:107ACC0000F044F900F005F80BB000BD9C480078BC
:107ADC00704700B5A3B000F023FE002802D00120AF
:107AEC0097490870012280210901A020C00501F0EE
:107AFC00A1F9802000011E9001201F9000202090F1
:107B0C00002021901EA9A020C00500F0E9FF8020D4
:107B1C000002199000201A9002201B9019A9894884
:107B2C0000F0DEFF8020C001149000201590022090
:107B3C00169014A9834800F0D3FF80200F900020EA
:107B4C001090022011900FA97F4800F0C9FF40202F
:107B5C000A9000200B9002200C900AA97A4800F0A1
:107B6C00BFFF20200590002006900220079005A959
:107B7C00754800F0B5FF1020009000200190022005
:107B8C0002906946704800F0ABFF23B000BD80B591
:107B9C0000F0F0FD002802D0002069490870012295
:107BAC0080210901A020C00501F044F900228021A8
:107BBC004900A020C00501F03DF901BD38B5040015
:107BCC000D00012280210901A020C00501F032F92D
:107BDC00200080240443002280210901A020C0053C
:107BEC0001F028F92000C0B200F00CFE2800C0B251
:107BFC0000F008FE012280210901A020C00501F03F
:107C0C0019F931BD10B582B0040000206946087026
:107C1C00012280210901A020C00501F00BF96406A6
:107C2C00640E002280210901A020C00501F002F998
:107C3C002000C0B200F0E6FD684600F039FE0122DB
:107C4C0080210901A020C00501F0F4F868460078F5
:107C5C0016BDF8B504000E000025B6B2A719002217
:107C6C0080210901A020C00501F0E4F8802000F07B
:107C7C00C9FDBC420AD2207800F0C4FD641C6D1C06
:107C8C004021314801F0C8F80028F2D001228021AF
:107C9C000901A020C00501F0CDF8280080B2F2BD8A
:107CAC00F2B582B00400170000250026FFB2002FA9
:107CBC0005D18021244801F0AFF8002809D1FFB28A
:107CCC00002F3AD08021C9011E4801F0A5F80028E8
:107CDC0033D06846008920180090002280210901C9
:107CEC00A020C00501F0A6F8002000F08BFD2000BC
:107CFC0000F0DEFD012280210901A020C00501F069
:107D0C0099F8641C6D1CFFB2002F08D08021C901AA
:107D1C000C4801F081F8002801D1012006008021D7
:107D2C00094801F079F8002801D1012006000098DB
:107D3C00844202D2F6B2002ECFD0280080B2FEBD13
:107D4C0060250020000800500004005000B58BB0E6
:107D5C008020400105900120069000200790002013
:107D6C00089005A9A020C00500F0BAFE00228021D1
:107D7C004901A020C00501F05DF8012000F0A2FC33
:107D8C00012280214901A020C00501F053F80220F6
:107D9C0000F098FC002280214901A020C00501F0D0
:107DAC0049F88020400100900020019002200290B0
:107DBC006946A020C00500F093FE322000F082FC42
:107DCC000BB000BD0121C206D20E91409D4A11603C
:107DDC0070470121C206D20E91409B4A1160704738
:107DEC000121C206D20E9140984A11607047F0B53D
:107DFC0040B2002821D5924C40B20207120F083A2B
:107E0C009508042255438E4A40B203071B0F083BCA
:107E1C009B0804267343D258FF238607B60F082706
:107E2C007E43B3409A438B01DBB28607B60F08271B
:107E3C007E43B340134363511AE0A64A40B2830811
:107E4C0004246343D258FF238407A40F08256C43F2
:107E5C00A3409A438B01DBB28407A40F08256C4323
:107E6C00A34013439B4A40B2840804256C4313512E
:107E7C00F0BD00B500210800C0B203280BDA74492C
:107E8C00744AC0B204234343D1500021A24AC0B269
:107E9C001154401CF0E700BDF7B506000020694600
:107EAC00487000240025002769486A49F6B204226C
:107EBC0072438958884200D0BEE000F06BF900286C
:107ECC0000D1B9E00120694648709448F6B2805D53
:107EDC000500022D03D205206946087008E0042D28
:107EEC0003D206206946087002E007206946087034
:107EFC000120A8400700694600200856FFF769FFDB
:107F0C00A2480068B843A149086069460020085699
:107F1C00FFF766FF82480068B84381490860029801
:107F2C004C49F6B20422724388507E48F6B20421C2
:107F3C007143405800680400032029000222514379
:107F4C00884084437748F6B204217143405804605A
:107F5C007448F6B2042171434058C06804000320F1
:107F6C00290002225143884084438948F6B2805D3F
:107F7C002900022251438840204304006948F6B28C
:107F8C00042171434058C4608A48A9080422514313
:107F9C00405804000F2029008907890F04225143FF
:107FAC00884084438B48F6B2805D29008907890F8D
:107FBC00042251438840204304007E48A90804222F
:107FCC005143445084480068B8438349086068466C
:107FDC000079C00705D58148006838437F4908609F
:107FEC0004E07E480068B8437C4908606846007924
:107FFC00800705D57A48006838437949086004E061
:10800C0077480068B8437649086002216A46002028
:10801C001056FFF7ECFE5D48006838435B4908607A
:10802C003D48F6B2805D002804D169460020085610
:10803C00FFF7C8FE00F0C0F868464078FEBD0000AF
:10804C001CED00E000E100E080E100E080E200E0F7
:10805C00F1810008C0240020F8B50400002500269A
:10806C000027A248A249E4B20422624389588842FC
:10807C002DD000F08FF8002829D0012005002748CA
:10808C00E4B2005D0600022E03D20520694608709A
:10809C0008E0042E03D206206946087002E007208F
:1080AC00694608700120B040070090489049E4B23E
:1080BC00042262438850694600200856FFF789FE67
:1080CC008C480068B8438B49086000F075F82800AC
:1080DC00C0B2F2BD00E400E070B5040000250E480B
:1080EC00E4B2005D401C0C49E4B208558248E4B28D
:1080FC00005D0500022D02D20520060006E0042DCD
:10810C0002D20620060001E007200600300040B233
:10811C00FFF75FFE70BD000014250020A4B6000818
:10812C00140401400000002070B5040000257348C1
:10813C00E4B2005D002806D07048E4B2005D401E39
:10814C006E49E4B208556D48E4B2005D00281BD1BD
:10815C006748E4B20421614340586449884213D013
:10816C006548E4B2005D0500022D02D20520060030
:10817C0006E0042D02D20620060001E007200600CE
:10818C00300040B2FFF71EFE70BD0000000401403D
:10819C00A8B600085A4800680100C907C90F594819
:1081AC0001705748006801210143554801600120C6
:1081BC00704700000800014000B5524800780028C4
:1081CC0005D14F480068012188434D4908600120C2
:1081DC0000BD0000A0B600080404014008040140E2
:1081EC000C040140704738B50520FFF7F9FD4648EF
:1081FC000068040021003F4800688407A40F0C406D
:10820C004148046000200500EDB2032D13DA3A4812
:10821C00EDB2405D02280CDA3748EDB2405D21002A
:10822C00C140C80705D53248EDB204216943405816
:10823C0080476D1CE8E731BD38B50620FFF7D0FD4F
:10824C0031480068040021002A4800680C240440CE
:10825C000C402D48046000200500EDB2032D18DA07
:10826C002548EDB2405D022811DB2348EDB2405D9C
:10827C0004280CDA2048EDB2405D2100C140C8074B
:10828C0005D51B48EDB204216943405880476D1C4D
:10829C00E3E731BD70B50720FFF7A2FD1A4800686F
:1082AC000400210013480068184C04400C400020C6
:1082BC000600F6B2032E16DA01200F49F6B2895DDC
:1082CC00884005000C48F6B2805D042809DB2C427E
:1082DC0007D00D4805600648F6B20421714340589A
:1082EC008047761CE5E70848046070BDF181000802
:1082FC00C024002000040140A4B60008142500206E
:10830C00341002405E25002014040140F0FF0000F0
:10831C000121C206D20E9140B04A11607047012172
:10832C00C206D20E9140AE4A116070470121C206BE
:10833C00D20E9140AB4A11607047F0B540B20028A4
:10834C0021D5A94C40B20207120F083A9508042215
:10835C005543A54A40B203071B0F083B9B08042654
:10836C007343D258FF238607B60F08277E43B340CA
:10837C009A438B01DBB28607B60F08277E43B340C6
:10838C00134363511AE0CC4A40B28308042463437C
:10839C00D258FF238407A40F08256C43A3409A43AB
:1083AC008B01DBB28407A40F08256C43A340134355
:1083BC00C14A40B2840804256C431351F0BD80B50A
:1083CC0000F04CF8BD48BE49086001F083F9FFF796
:1083DC0050FD00F00FFB00F09DF800F007F9FCF7E2
:1083EC00FEFE012000F06EF9022000F06BF9052072
:1083FC0000F068F90A2000F065F9FEF75EFFFDF762
:10840C0013FAFBF785FEC54801F094F9FDF72CFA39
:10841C00FBF788FF00F099FEF5E780B50F20FFF71A
:10842C007EFF0F20FFF782FF03210F20FFF785FF50
:10843C000021CF4801F0E4F90F20FFF769FF01BDDF
:10844C0080B50F20FFF76BFF0F20FFF76FFF0021A8
:10845C00C74801F00BFA01BD7047704700B59DB0DD
:10846C00CA480068CA490140802000010843C74936
:10847C0008600A200E90012011901020129001200B
:10848C00139002201890002019908020C0021A909E
:10849C008020C0031B900EA801F036FC002803D0EE
:1084AC00A621BC4800F01AFB0F200090032001907D
:1084BC0000200290002003900020049001216846C7
:1084CC0001F016FF002803D0B321B24800F006FBE0
:1084DC0003200590002007900020089005A802F0CA
:1084EC00CDF8002803D0BE21AA4800F0F7FA02F01C
:1084FC003FF8FA21890000F0D4FC02F036FA04208F
:10850C0002F039FA002200210020C04302F023FAC5
:10851C001DB000BD00B58BB08020C005944908602B
:10852C00082093494860002091498860FF209030D2
:10853C008F49C86000208E4908618D4801F002F90E
:10854C00002803D0ED21934800F0C8FA80204001A8
:10855C00069006A9864801F0FFF9002803D0F32104
:10856C008C4800F0BBFA824801F008F9002803D0CF
:10857C00F821884800F0B2FA002000900020019009
:10858C0069467B4802F016FA002803D0FF21814887
:10859C0000F0A4FA00200290002003900020049028
:1085AC0000200590002202A9714801F09FF90028D3
:1085BC0004D084214900774800F090FA0BB000BD3C
:1085CC0080B50220C0438E49096808610F20FFF76F
:1085DC00ADFEFCF7AFFD01BD0000000000E100E0C6
:1085EC0080E100E080E200E01CED00E000B58BB023
:1085FC00AC48AD4908600220AB4948600020AA494C
:10860C0088609F20A849C8600020A7490861A64837
:10861C0001F098F8002804D0FF2128315D4800F0C3
:10862C005DFA80204001069006A99F4801F094F95C
:10863C00002804D0FF212E31564800F04FFA9A48FA
:10864C0001F09CF8002804D099214900514800F011
:10865C0045FA00200090002001906946924802F0F3
:10866C00A9F9002804D0FF213A314A4800F036FA23
:10867C000020029000200390002004900020059020
:10868C00082202A9884801F031F9002804D0A12160
:10869C004900404800F022FA0BB000BD80B508201C
:1086AC00C0438149096808611020FFF73FFE012093
:1086BC007E49087001BD000000E400E000400008A5
:1086CC0008ED00E010B50400A4B220000A244443D5
:1086DC00A41E0020754908700821734801F06AF83F
:1086EC007148006800690007FAD50820C0436E493C
:1086FC0009680861641E00206C490870A4B2002C43
:10870C00EED10821684801F065F810BD80B5B2487B
:10871C0002F07EF91C20FFF709FE01BDB0240020F9
:10872C0010B50024AD48AF490860AD48AD4948606C
:10873C000020AC4988600020AA49C8600020A949E3
:10874C0008610C20A74948610020A64988610020D7
:10875C00A449C86180204000A2490862A14802F0E7
:10876C00BBFA002801D1012004002000C0B210BDCA
:10877C00E023002010B500249B4802F0F1FA0028F9
:10878C0001D1012004002000C0B210BD00700040D7
:10879C00FFE7FFFFA8B40008F4B504000F001D00AC
:1087AC0000F0BEFF06002068C0693840B84201D115
:1087BC00012000E000206946097888421ED1002083
:1087CC00C0438542EFD0002D04D000F0A9FF801BE0
:1087DC008542E8D220680068844901402068016025
:1087EC00206880680121884321688860012041212C
:1087FC006054002040216054032000E00020F2BDB2
:10880C00E023002038B505000124794800780028C1
:10881C0001D1FFF785FF76480078012837D1A848A9
:10882C000078012801D102203AE00120A449087007
:10883C0000206C49486412206D4908700120694978
:10884C0008850120674948850A2300228021654854
:10885C00FFF7A2FF002802D00320040019E0EDB2BC
:10886C006048006885620A23002240215D48FFF7BA
:10887C0093FF002802D0032004000AE001205C4989
:10888C00087000208E4908700020040001E00220CE
:10889C000400E4B2032C01D1FFF76CFF2000C0B23E
:1088AC0032BD000000040040182400205F25002089
:1088BC00F8B5050001244E480078002801D1FFF7D7
:1088CC002FFF4B48007801287CD1002D02D10120CC
:1088DC00040079E07A480078012801D102207AE07E
:1088EC0001207749087000203E4948642220404905
:1088FC00087001203B49088601203A4948863948CE
:10890C0080688021490188420BD1364800690028D3
:10891C0003D16C483349888624E0FF20314988868E
:10892C0020E03048806800280BD12E4800690028D0
:10893C0003D1FF202B49888614E07F2029498886A3
:10894C0010E0284880688021490588420AD12548D2
:10895C000069002803D17F202249888602E03F204D
:10896C00204988861F48808E06000A230022802119
:10897C001C48FFF711FF002802D00320040023E05D
:10898C0018480068406A0700FF2016490968886289
:10899C000A23002220211348FFF7FEFE002802D0F4
:1089AC000320040010E00F480068406A31000140C9
:1089BC00297001200E4908700020414908700020E0
:1089CC00040001E002200400E4B2032C01D1FFF703
:1089DC00D1FE2000C0B2F2BD282300200038014097
:1089EC0080841E0098230020982300205FFEFFFF48
:1089FC00D923002000B587B0334800680421014317
:108A0C00314801603048006804210840009000980B
:108A1C002D480068012101432B4801602A48006859
:108A2C000100C907C90F009100982748006802216E
:108A3C000143254801602448006802210840009049
:108A4C00009800222149A020C00500F0F3F9C020B5
:108A5C0000020190002002900220039001A91C4802
:108A6C0000F03EF81948019001200290002003907C
:108A7C000020049001A9A020C00500F031F80220CC
:108A8C000190012002900020039001A9114800F0F0
:108A9C0027F870200190002002900220039001A979
:108AAC000C4800F01DF8802001900B480290022029
:108ABC00039001A9074800F013F807B000BD0000AF
:108ACC00D8230020FF0100002C10024001180000E8
:108ADC0000080050000400500000111000B5FEE723
:108AEC00F0B502000023002400250868D8400028B7
:108AFC0000D1E2E0086801269E4006403400002CBC
:108B0C0000D1D8E04868022802D0486812281BD14E
:108B1C00D808042670431018006A05000F201E00A8
:108B2C007607760F04277E43B040854308691E0004
:108B3C007607760F04277E43B04028430500D808FB
:108B4C0004267043101805624868012808D048684C
:108B5C00022805D04868112802D0486812281CD178
:108B6C009068050003201E0002277E43B040854319
:108B7C00C8681E0002277E43B0402843050095605C
:108B8C005068050001209840854348680600F606A9
:108B9C00F60F9E402E4335005560106805000320EB
:108BAC001E0002277E43B040854308798007800F62
:108BBC001E0002277E43B040284305001560D06894
:108BCC00050003201E0002277E43B04085438868C1
:108BDC001E0002277E43B04028430500D56048683C
:108BEC00C00068D58B48006801260643894806609A
:108BFC0095489E0804277E43805905000F201E00CF
:108C0C00B607B60F04277E43B0408543A020C005AD
:108C1C00824201D1002019E08C48824201D101200E
:108C2C0014E08B48824201D102200FE08948824235
:108C3C0001D103200AE08848824201D1042005E0DA
:108C4C008648824201D1052000E006201E00B607AE
:108C5C00B60F04277E43B040284305007A489E088F
:108C6C0004277E4385517E4800680500A54348686B
:108C7C00C00300D525437A4805607A480068050092
:108C8C00A5434868800300D525437648056076489F
:108C9C0000680500A5434868C00200D5254372480A
:108CAC000560724800680500A5434868800200D53D
:108CBC0025436E4805605B1C17E7F0BDF8B5002234
:108CCC00002300240D00D540002D00D1A1E001258A
:108CDC0095400D402B00002B00D198E0066803272F
:108CEC00BC46150002277D436746AF4037430760FB
:108CFC00D5080426754345190095D50804267543F7
:108D0C0045192F6A0F25AC4615006E07760F042502
:108D1C006E436546B540AF43009D2F6286680327BE
:108D2C00BC46150002277D436746AF40BE438660B4
:108D3C00456801269640B5434560C6680327BC4686
:108D4C00150002277D436746AF40BE43C6603E4DCB
:108D5C00960804277E43AD592C000F251600B60744
:108D6C00B60F04277E43B54025402C00A025ED0509
:108D7C00A84201D1002519E0344DA84201D10125AA
:108D8C0014E0334DA84201D102250FE0314DA84229
:108D9C0001D103250AE0304DA84201D1042505E09C
:108DAC002E4DA84201D1052500E006251600B60778
:108DBC00B60F04277E43B540AC4228D10F251600D0
:108DCC00B607B60F04277E43B5402C001E4D9608FF
:108DDC0004277E43AE59A6431B4FBC469508042777
:108DEC007D4367467E511E4D2D689D431C4E35605C
:108DFC001C4D2D689D431B4E35601B4D2D689D43AE
:108E0C00194E3560194D2D689D43184E3560521C16
:108E1C0058E7F1BD3410024000B50200136989B265
:108E2C000B40002B02D00123180001E00023180096
:108E3C00C0B200BD00B5D2B2002A02D089B28161A5
:108E4C0001E089B2816200BD0800014000040050BD
:108E5C0000080050000C005000100050001C005086
:108E6C000004014004040140080401400C040140CA
:108E7C00F446002804D4494200F013F840426047FD
:108E8C004042002905D45FD000F00BF84042494223
:108E9C006047494200F005F84942604703460B43DE
:108EAC00E6D40022030A8B420BD203098B4219D25F
:108EBC0043088B422ED2411A00D201465241104631
:108ECC007047FF2209023FD012068B4205D31212C3
:108EDC0009028B4201D31212090203098B4219D3E6
:108EEC0000E0090AC3098B4201D3CB01C01A5241DD
:108EFC0083098B4201D38B01C01A524143098B4227
:108F0C0001D34B01C01A524103098B4201D30B010F
:108F1C00C01A5241C3088B4201D3CB00C01A524134
:108F2C0083088B4201D38B00C01A524143088B42F9
:108F3C0001D34B00C01A5241884200D3401A52410F
:108F4C00CFD201461046704708B5C046C04608BD92
:108F5C0070B504000D00A91EC9B2200000F02FF856
:108F6C000600300080B2000AEDB26119891E08704B
:108F7C003000EDB26119491E087070BDF8B50600DD
:108F8C000C000025A11EC9B2300000F018F8070033
:108F9C00E4B23019801E0078390089B2090AC9B2CE
:108FAC00884209D1E4B23019401E00783900C9B2A8
:108FBC00884201D1012005002800C0B2F2BD70B575
:108FCC0002000020002423001C000D00E4B2EDB2CE
:108FDC00AC420CD20402074D80B20012DBB2D65C5C
:108FEC00464002204643A85B60405B1CECE780B225
:108FFC0070BD000028B200081206130A1A43130CA5
:10900C001A4300BF094205D0830705D00270401CEB
:10901C00491EF9D170470000130030B4140015003C
:10902C00103902D310393CC0FCD2490700D30CC014
:10903C0000D504C0890002D30280801C002900D511
:10904C00027030BC70470000F8B506000D0014002B
:10905C00ADB2A4B22819FF21891C88420ADAB248A1
:10906C00ADB240190700A4B2220039003000FCF761
:10907C003FFA01E000200400200080B2F2BDFFB5F1
:10908C0004000D001600ADB2B6B2A819FF21891C60
:10909C00884252DA68460681A348ADB240190700EF
:1090AC00B6B2002E4CD06846007B012803D038782D
:1090BC00217888423CD020783870ADB22800042149
:1090CC00FFF7ECFE69468880684680882021FFF710
:1090DC00E5FE6946C8806846009068468088202175
:1090EC00FFF7DCFE0098818090486946C98804220D
:1090FC004A43815801206A469288904008438B4924
:10910C006A46D28804235343C85088486946C988A4
:10911C0004224A438018816801206A469288904054
:10912C00084382496A46D28804235343C91888608D
:10913C007F1C641C761E6D1CB2E7002069460881FA
:10914C006846008904B0F0BD000080B500F097F9C6
:10915C00012800D0E5E0B748007800280BD00228A1
:10916C0035D024D304287DD04FD3062800D1C9E0B4
:10917C0000D295E0CFE00120B84908706B48B749A0
:10918C00097808225143401800F088F9C04908803A
:10919C00BF480088BF49884205D000F04DF9012036
:1091AC00A449087002E00020A2490870B9E0AB485D
:1091BC000178B748008800F0ABF9012803D10220F0
:1091CC009C49087002E006209A490870A9E0B24850
:1091DC000068800715D5B048006802210143AE48ED
:1091EC0001609E480178AA48008800F0ADF901287A
:1091FC0003D103208F49087002E006208D490870C6
:10920C0002E006208B4908708BE0A34800688007B9
:10921C0024D5A1480068022101439F4801604348BE
:10922C008E49097808225143401800F037F99849C3
:10923C000880974800889749884203D001207D49CF
:10924C0008700EE004207B49087000F0E5F9AF4986
:10925C0008608248007800F097F902E00620754912
:10926C0008705EE08C480068800715D58A48006855
:10927C00022101438848016078480178A3480068BE
:10928C0000F08AF9012803D105206A49087006E02C
:10929C0006206849087002E006206649087040E024
:1092AC007D480068800729D57B480068022101436E
:1092BC007948016069480078002803D100205D4995
:1092CC0008701EE065480078401E64490870174815
:1092DC006249097808225143401800F0DFF86C49C4
:1092EC0008806B4800886B49884203D001205149A3
:1092FC00087006E000204F49087002E006204D4936
:10930C0008700EE000F0AEF800204A490870614881
:10931C005F49088005E00020464908705D485C49BB
:10932C00088001BD00000000BC1C0020A02400200F
:10933C0010B5012000F09EF900F05DF901280DD167
:10934C00002000F01DF8012805D145488068012156
:10935C00014343488160012004000EE0002000F02E
:10936C0089F900F048F9012805D1012000F008F82E
:10937C000120040001E0002004002000C0B210BD58
:10938C00F1B581B068460079002802D1B7480500D4
:10939C0008E068460079012802D1B548050001E0D3
:1093AC00002046E0002069460870BF4806000020F7
:1093BC000400A4B2FF2C3ADC28683168884232D011
:1093CC00A4B220000421FFF769FD0700BFB23800EA
:1093DC002021FFF763FD69464880BFB23800202189
:1093EC00FFF75CFD0F001E486946097908225143BE
:1093FC00431868464088042242431948844668460C
:10940C00017908204143604641188C4668464188E2
:10941C0004204843614609580120B840084398503D
:10942C00012069460870361D2D1D241DC1E76846B4
:10943C000078F6BD5C25002000B59C480068C0078C
:10944C0005D59B489B4908609B489A4908609748FA
:10945C000068102101439548016000BD5D25002086
:10946C00A024002091480068102188438F4908608F
:10947C008E480068012101438C480160704700B59B
:10948C0005480068C00701D4012000E0002000BDA1
:10949C0078000020FFFF00001820024030B50100CA
:1094AC0086480022002392B2042454430C59002C09
:1094BC0021D092B2042454430C59DC40E40711D55A
:1094CC0092B2042454430C5901259D40AC4392B2F2
:1094DC00042555434C5192B220245443DBB2E4187A
:1094EC00200000E05B1C80B2744CA04204D1DBB2C3
:1094FC00202BDEDB00E0521C80B2704CA04202D16B
:10950C0092B2022ACFDB80B230BD000010250020C1
:10951C0070B582B004000E006A463100C9B220005A
:10952C0080B200F044F80500EDB2012D09D15F487E
:10953C0000688021890001435C480160002000998B
:10954C0008602800C0B276BDF8B504000E006A466B
:10955C003100C9B2200080B200F029F80500EDB24C
:10956C00012D0ED151480068554901404F4801600A
:10957C004D48A4B204216143401807003868009993
:10958C0008602800C0B2F2BD10B504002100C9B2B9
:10959C003F20FFF7BDFF10BD38B505000C00494852
:1095AC0005602100C9B23F20FFF7CEFF32BD30B5B8
:1095BC0003009BB2402B02DB0024200019E0C9B24F
:1095CC00002908D19BB204245C43284D6419146013
:1095DC00012420000DE0C9B2012908D19BB204245A
:1095EC005C43394D641914600124200001E000240F
:1095FC002000C0B230BD70B500F00EF80400314848
:10960C0000680500AC4202D10120060001E00020F8
:10961C0006003000C0B270BD70B50020C04306001B
:10962C002148050000200400A4B2FC2C08DA2968AB
:10963C00C9B2300000F006F806002D1D241DF3E71A
:10964C00300070BD00B5C9B2484008221100C9B243
:10965C00002909D0002804D5400002001B485040C6
:10966C0000E04000491EF2E700BD0000000C0808B5
:10967C0000120808F8B50400E4B2002C09D18025CA
:10968C006D00134E084F2A0031003800FBF730FFF5
:10969C0008E080256D000C4E034F2A003100380085
:1096AC00FBF726FFF1BD0000BC1C0020042002408B
:1096BC00EFCDAB890C20024005040302FFFF000034
:1096CC00FFFDFFFFB81D002000120808B71DC104E4
:1096DC00000C080880B5144800684021014312486A
:1096EC000160002000F004F801F0B0FC002002BD85
:1096FC0010B504000D480068FA218900FFF7D1FB72
:10970C0001F033F9002221000020C04301F023F9BD
:10971C00002010BD06480068401C054908607047D1
:10972C0003480068704700000020024060000020E1
:10973C0028250020010002480A68106000207047AC
:10974C00AAAA000010B50400002C01D1012014E0DD
:10975C003520205C002805D10020342160542000E5
:10976C0001F095FC022035216054211D206800F089
:10977C0089F9012035216054002010BD10B504007A
:10978C00002C01D1012014E03520205C002805D1EB
:10979C000020342160542000C046C04602203521F0
:1097AC006054211D206800F06DF9012035216054B2
:1097BC00002010BD38B504000D00012229002068DE
:1097CC0000F092FA206800680121014320680160D2
:1097DC00002032BD38B504000D000022290020689D
:1097EC0000F082FA2068006A3F490140002905D147
:1097FC00206800680121884321680860002032BD80
:10980C0038B504000D002800002806D004280BD021
:10981C00082810D00C2815D01BE02068C068022145
:10982C0001432068C16014E02068C0680421014332
:10983C002068C1600DE02068C068082101432068E1
:10984C00C16006E02068C068102101432068C16037
:10985C00FFE701222900206800F046FA2068006822
:10986C000121014320680160002032BD38B504009D
:10987C000D002800002806D004280BD0082810D092
:10988C000C2815D01BE02068C06802218843216891
:10989C00C86014E02068C068042188432168C8604F
:1098AC000DE02068C068082188432168C86006E084
:1098BC002068C068102188432168C860FFE7002237
:1098CC002900206800F010FA2068006A064901405F
:1098DC00002905D1206800680121884321680860AF
:1098EC00002032BD000000001111000070B5040012
:1098FC000D0016003420205C012801D102202AE042
:10990C00012034216054022035216054300000289D
:10991C0006D0042809D008280CD00C280FD013E04E
:10992C002900206800F0EBF80EE02900206800F018
:10993C0007F909E02900206800F027F904E0290064
:10994C00206800F046F9FFE7012035216054002023
:10995C0034216054002070BD70B505000E00002449
:10996C003420285C012801D1022088E00120342118
:10997C0068540220352168542868806804007720D8
:10998C00844320003E4C04402868846030680028E2
:10999C005AD010285DD0202860D0302863D04028C1
:1099AC0048D0502832D060283AD070280FD080216F
:1099BC004901884204D080218901884218D057E09F
:1099CC0028688068072188432968886050E0F3681C
:1099DC007268B168286800F065F92868806804002E
:1099EC0077208443200077240443286884603FE078
:1099FC00F3687268B168286800F054F928688068C8
:109A0C008021C90101432868816031E0F2687168E6
:109A1C00286800F004F95021286800F037F927E095
:109A2C00F2687168286800F011F96021286800F06C
:109A3C002DF91DE0F2687168286800F0F0F84021FB
:109A4C00286800F023F913E00021286800F01EF9C3
:109A5C000EE01021286800F019F909E0202128688F
:109A6C0000F014F904E03021286800F00FF9FFE74A
:109A7C00012035216854002034216854002070BD29
:109A8C00FF00FFFF00B5002203681A008023DB05EE
:109A9C00984208D07A4B984205D07A4B984202D023
:109AAC00794B984201D1012300E00023DBB2002B5B
:109ABC0004D070239A4313004A681A438023DB05B1
:109ACC00984208D06E4B984205D06E4B984202D00B
:109ADC006D4B984201D1012300E00023DBB2002B37
:109AEC0005D01300784A1A401300CA681A43026062
:109AFC008B68C3620B6883620123436100BD70B441
:109B0C00002200230024056A0126B5430562056A7C
:109B1C002B0045682C0085692A007025AA43032573
:109B2C00AA4315000A682A430225AB431D008B6823
:109B3C002B43446082614D684563036270BC70477F
:109B4C0070B4002200230024056A1026B543056278
:109B5C00056A2B0045682C0085692A0015005B4AB4
:109B6C002A401500584A2A4015000A6812022A4356
:109B7C002025AB431D008B681B012B434460826185
:109B8C004D688563036270BC704770B4002200237B
:109B9C000024056A4E4E2E400662056A2B0045686D
:109BAC002C00C5692A007025AA430325AA43150079
:109BBC000A682A431D00474B2B401D008B681B0273
:109BCC002B434460C2614D68C563036270BC70472F
:109BDC00000070B4002200230024056A3E4E2E4083
:109BEC000662056A2B0045682C00C5692A00150021
:109BFC00364A2A401500344A2A4015000A681202D7
:109C0C002A431D00354B2B401D008B681B032B4337
:109C1C004460C2614D680564036270BC704770B4E7
:109C2C0000230024056A2C00056A0126B543056251
:109C3C0085692B00F025AB431D0013012B430A252E
:109C4C00AC430C438361046270BC704770B4002356
:109C5C000024056A1026B543056285692B00056A48
:109C6C002C001D001E4B2B401D0013032B43A02565
:109C7C00AC4325000C012C438361046270BC70471B
:109C8C0000040040000801400014014000228368D9
:109C9C001A0070239A43130089B207220A431A430D
:109CAC008260704770B4002485682C0025000D4C30
:109CBC002C40260015000D431C022C4334438460B9
:109CCC0070BC704700000000FFFCFFFFFF8FFFFF20
:109CDC00FFFEFFFFFFFDFFFFFFEFFFFFFFDFFFFFBB
:109CEC00FF0FFFFFFF00FFFF30B4002301248C4067
:109CFC002300046A9C430462046A15008D402543CA
:109D0C00056230BC7047FEE770B582B004000025D8
:109D1C002078C0076BD5B44800680C210140082995
:109D2C0009D0B14800680C2101400C290CD1AE4877
:109D3C000068C00308D5AD480068800357D560683B
:109D4C00002854D10120BDE260688021490288427C
:109D5C0007D1A6480068802149020143A34801604D
:109D6C0026E06068A021C90288420ED19F48006895
:109D7C008021C90201439D4801609C4800688021F4
:109D8C00490201439948016012E098480068C549AE
:109D9C0001409648016095480068802149020840BE
:109DAC000090009891480068BF4901408F480160BD
:109DBC00606800280DD0FFF7B3FC05008B480068E5
:109DCC00800314D4FFF7ACFC401B6528F6D30320AA
:109DDC0078E2FFF7A5FC050084480068800306D5EF
:109DEC00FFF79EFC401B6528F6D303206AE220781F
:109DFC00800759D57C4800680C210140042909D002
:109E0C00794800680C2101400C2916D1764800686D
:109E1C00C00312D475480068400704D5E0680128D7
:109E2C0001D001204EE2BA480068BA4901402069CD
:109E3C0000020843B649086036E0E06800281FD0ED
:109E4C006A48006809218843E1680143674801605A
:109E5C00FFF766FC050065480068400706D4FFF76D
:109E6C005FFC401B0328F6D303202BE2A8480068B4
:109E7C00A8490140206900020843A549086013E085
:109E8C005A4800680121884358490860FFF748FC8C
:109E9C00050056480068400706D5FFF741FC401BFB
:109EAC000328F6D303200DE22078C00600D49FE0EF
:109EBC004D4800680C210140002957D14B480068DF
:109ECC00800504D5E069002801D10120FAE1904811
:109EDC000068E02109020140606A814218D2606A80
:109EEC0000F070FB002801D00120EBE188480068ED
:109EFC00C5490140606A0843854908608448006888
:109F0C000002000A216A090601438148016017E03A
:109F1C007F480068BC490140606A08437C4908607E
:109F2C007B4800680002000A216A09060143784850
:109F3C000160606A00F046FB002801D00120C1E1FD
:109F4C000120616A490B491C884080210902484361
:109F5C00AE49254A126812091207120F895CC840D3
:109F6C00AB4908600020FFF7C3FB41E0E069002823
:109F7C0026D01E4800688021490001431B4801601F
:109F8C00FFF7CEFB050019480068800506D4FFF7E3
:109F9C00C7FB401B0328F6D3032093E15C48006801
:109FAC0099490140606A084359490860584800685B
:109FBC000002000A216A090601435548016017E0B6
:109FCC000A480068C049014008480160FFF7A8FB37
:109FDC0005000648006880050AD5FFF7A1FB401B69
:109FEC000328F6D303206DE10C1002400010024050
:109FFC00207800072AD56069002813D0B348006880
:10A00C0001210143B1480160FFF78AFB0500AF480D
:10A01C00006880071AD4FFF783FB401B0328F6D394
:10A02C0003204FE1A948006801218843A749086033
:10A03C00FFF776FB0500A5480068800706D5FFF7FB
:10A04C006FFB401B0328F6D303203BE1207840072D
:10A05C0000D497E000269E480068C00008D49C48B5
:10A06C0000688021490501439948016001200600E0
:10A07C0098480068C00519D49648006880214900AA
:10A08C00014394480160FFF74BFB050091480068C1
:10A09C00C0050BD4FFF744FB401B6528F6D3032007
:10A0AC0010E100BFFFFFFEFFFFFFFBFFA068802158
:10A0BC004900884207D18548006880214900014346
:10A0CC008248016034E0A06800280CD17F48006809
:10A0DC007D4901407D4801607C4800687E49014013
:10A0EC007A48016024E0A068A021C900884213D1FD
:10A0FC00764800688021C9000143744801607348A8
:10A10C0000688021490001437048016010E000BFE5
:10A11C0004100240FFE0FFFF6C4800686A490140F0
:10A12C006A480160694800686B49014067480160F2
:10A13C00A06800280ED0FFF7F3FA0500634800680A
:10A14C00800516D4FFF7ECFA401B64498842F5D31E
:10A15C000320B7E0FFF7E4FA05005C4800688005CF
:10A16C0007D5FFF7DDFA401B5C498842F5D3032085
:10A17C00A8E0F6B2012E05D15548006858490140B7
:10A18C00534801602078800644D5A069002820D06F
:10A19C00544800680121014352480160524800684C
:10A1AC000121014350480160504800688021890119
:10A1BC0001434E480160FFF7B3FA050049480068B7
:10A1CC00800727D4FFF7ACFA401B0328F6D30320F3
:10A1DC0078E04448006801218843424908604348BC
:10A1EC000068AE49014041480160FFF799FA05004B
:10A1FC003C48006880070DD5FFF792FA401B0328F6
:10A20C00F6D303205EE000BFFF1FFFFF60B600081F
:10A21C0060000020A06A002853D0A14800680C21DF
:10A22C0001400C294BD0A06A022834D19D4800680B
:10A23C009D4901409B480160FFF772FA050099485F
:10A24C000068800106D5FFF76BFA401B0328F6D394
:10A25C00032037E09248006894490140E06A0843C3
:10A26C00216B0143606B08438D4908608D48006881
:10A27C008021490401438B480160FFF751FA050026
:10A28C008848006880011CD4FFF74AFA401B032859
:10A29C00F6D3032016E083480068834901408148C7
:10A2AC000160FFF73DFA05007E480068800108D583
:10A2BC00FFF736FA401B0328F6D3032002E00120F7
:10A2CC0000E0002076BD00BFFFFEFFFF50100240F3
:10A2DC003810024000700040FFFBFFFF89130000A4
:10A2EC00FFFFFFEF08100240341002402000014035
:10A2FC0070B505000C0000266D4800680100C90708
:10A30C00C90FA1420FD26A4800680121884320433B
:10A31C0067490860664800680100C907C90FA14277
:10A32C0001D00120B8E02878800707D55C48006888
:10A33C00F0218843A9680143594801602878C00777
:10A34C006CD56868022805D156480068800319D47A
:10A35C000120A1E06868032805D1524800688001FB
:10A36C0010D4012098E06868012805D14D48006898
:10A37C00400707D401208FE04A480068800501D4CB
:10A38C00012089E04648006803218843696801433D
:10A39C0043480160FFF7C4F90600686802280DD134
:10A3AC003F4800680C210140082937D0FFF7B8F965
:10A3BC00801B77498842F3D303206DE0686803283B
:10A3CC000DD1374800680C2101400C2926D0FFF72D
:10A3DC00A7F9801B6E498842F3D303205CE06868C0
:10A3EC0001280DD12E4800680C210140042915D0FC
:10A3FC00FFF796F9801B66498842F3D303204BE0A4
:10A40C00274800680C210140002907D0FFF788F984
:10A41C00801B5F498842F3D303203DE02448006849
:10A42C000100C907C90F8C420FD2214800680121D5
:10A43C00884320431E4908601D4800680100C90775
:10A44C00C90FA14201D0012026E02878400707D58A
:10A45C001348006855490140E868084310490860F2
:10A46C002878000708D50E48006851490140286932
:10A47C00C00008430A49086000F01CF84D49084A1E
:10A48C00126812091207120F895CC8404A49086009
:10A49C000020FFF72DF9002070BD0000FFDFFFFF4B
:10A4AC000C10024000100240FFFFFFFEFFFF02FFF6
:10A4BC0000200240FCB5002000900024002500265E
:10A4CC000020019000273D480068009000980C2166
:10A4DC000140042904D008290CD00C290DD037E0F8
:10A4EC0037480068C00602D55948070001E05948B2
:10A4FC0007003BE05848070038E058480099890CA1
:10A50C000907090F405C04000098800D8007800F3C
:10A51C00401C050029480068C00306D54E4860431E
:10A52C002900FEF7BEFC060010E025480068C006B6
:10A53C0006D5474860432900FEF7B3FC060005E04A
:10A54C00444860432900FEF7ACFC060037000DE0E0
:10A55C0043480068400B4007400F019001200199CF
:10A56C00491C884080210902484307003800F6BD89
:10A57C0011480068704780B5FFF7FAFF39493A4A2D
:10A58C001268120A5207520F895CC84002BD0000C3
:10A59C008913000080B5FFF7EBFF3249324A12688D
:10A5AC00D20A5207520F895CC84002BDFFF8FFFF68
:10A5BC00FFC7FFFF60B60008600000200C100240CF
:10A5CC000010024010B5010000220023264800684C
:10A5DC00F0240440002C27D125480068C00006D583
:10A5EC0024480068C02464010440220012E0204882
:10A5FC0000688024640504431D4804601D480068FD
:10A60C00C024640104402200194800681A4C04401C
:10A61C0017480460C0204001824205D1C0200002CE
:10A62C00814201D101200300104800680124A0439D
:10A63C0018430E4C20600D4800680400E407E40F3A
:10A64C009C4201D0012000E0002010BD0000000061
:10A65C0000093D000024F40000127A0080B60008C6
:10A66C000410024098B600080C1002400020024072
:10A67C003810024000700040FFFFFFEFF8B50400F7
:10A68C00002500262078800600D49DE020788006E6
:10A69C00002775480068C00008D473480068802102
:10A6AC004905014370480160012007006F480068AC
:10A6BC00C00514D46D4800688021490001436B48E3
:10A6CC000160FFF72DF8050068480068C00506D446
:10A6DC00FFF726F8401B6528F6D30320C2E0644838
:10A6EC000068C021890301400E006068C021890305
:10A6FC0001408E420DD06068C02189020140C0200B
:10A70C008002814205D15A480068800301D501209E
:10A71C00A8E058480068C021890201400E00002EB4
:10A72C002DD06068C021890201408E4227D020784C
:10A73C00800624D54F4800684F4901400E004D4813
:10A74C0000688021090301434A48016049480068B8
:10A75C004A4901404748016046480660F0050ED55D
:10A76C00FEF7DEFF050043480068800507D4FEF7BE
:10A77C00D7FF401B42498842F5D3032072E0606842
:10A78C00C02189020140C020800281420AD1384890
:10A79C0000683C4901406068C022920302400A43B1
:10A7AC0033480260334800686168C02292020A4054
:10A7BC00024330480260FFB2012F05D12A480068DD
:10A7CC0031490140284801602078C00707D52F483F
:10A7DC00006803218843A16801432C48016020785C
:10A7EC00800707D5294800680C218843E16801439C
:10A7FC00264801602078400707D524480068244982
:10A80C00014020690843214908602078000707D5DA
:10A81C001E4800681F490140606908431B490860D5
:10A82C002068C00507D51948006813490140A06984
:10A83C000843164908602078400607D5134800687D
:10A84C0015490140206A0843104908602078000629
:10A85C0007D50E48006811490140E06908430B49CF
:10A86C0008600020F2BD000038100240007000406B
:10A87C000010024050100240FFFFFCFFFFFFF7FFEB
:10A88C0089130000FFFFCFFFFFFFFFEF4C100240CA
:10A89C00FFF3FFFFFFCFFFFFFFFFFFFBFFFFF3FF08
:10A8AC00F0B540B2002821D53D4C40B20207120F42
:10A8BC00083A950804225543394A40B203071B0F46
:10A8CC00083B9B0804267343D258FF238607B60F18
:10A8DC0008277E43B3409A438B01DBB28607B60F41
:10A8EC0008277E43B340134363511AE02D4A40B20C
:10A8FC00830804246343D258FF238407A40F08253C
:10A90C006C43A3409A438B01DBB28407A40F082548
:10A91C006C43A3401343234A40B2840804256C4380
:10A92C001351F0BD10B50400601E8021490488420B
:10A93C0001D301200EE0601E1B490860032100209A
:10A94C00C043FFF7ADFF00201849086007201849E5
:10A95C000860002010BD70B504000D001600290021
:10A96C00200040B2FFF79CFF70BD10B50400200022
:10A97C00FFF7D8FF10BD00B5042806D10C490968B3
:10A98C0004220A430A490A6005E0094909680422BD
:10A99C009143074A116000BD80B5C046C04601BD59
:10A9AC001CED00E000E400E014E000E018E000E042
:10A9BC0010E000E000B502003420105C012801D149
:10A9CC00022024E001203423D05402203523D0541B
:10A9DC00106840687023984313685860106840688A
:10A9EC000B680343106843601068806880239843A9
:10A9FC0013689860106880684B6803431068836024
:10AA0C0001203523D05400203423D054002000BD25
:10AA1C00F8B504002068C569206806682807000F8F
:10AA2C0000900098002807D1A80605D5B00603D5DC
:10AA3C00200000F004F998E0206880680700009876
:10AA4C00002870D0F80704D4902040003040002833
:10AA5C0069D0E80708D5F00506D501202168086201
:10AA6C00E06E01210143E166A80708D5F80706D579
:10AA7C00022021680862E06E04210143E166680748
:10AA8C0008D5F80706D5042021680862E06E02217B
:10AA9C000143E16628070AD5B00601D4F80706D5AC
:10AAAC00082021680862E06E08210143E166E06E2F
:10AABC00002837D0A80604D5B00602D5200000F037
:10AACC00BEF8E06E000703D420688068400624D5E9
:10AADC00200000F04DF820688068400619D52068E9
:10AAEC0080684021884321688860606E00280CD003
:10AAFC001E48616E8863606E00F02EFB002811D03A
:10AB0C00606E616E896B88470CE02000C046C046C1
:10AB1C0008E02000C046C04604E02000C046C04605
:10AB2C000020E06621E0E8020FD578020DD58020E8
:10AB3C0040032168086220206921605420206A218A
:10AB4C0060542000C046C0460FE0280605D53006EC
:10AB5C0003D5200000F029F807E0680605D570063B
:10AB6C0003D5200000F05BF8FFE7F1BD9DAB0008BA
:10AB7C0001680968574A0A4001680A6001688968D7
:10AB8C00012291430268916020216A22815470470E
:10AB9C0038B50400A56A00205A21685200205221C1
:10ABAC0068522800C046C04631BD00B5010069207E
:10ABBC00085C212831D15220085A00280DD1086890
:10ABCC000068802398430B6818600868006840236D
:10ABDC00034308680360002020E0886880235B0141
:10ABEC0098420DD1086900280AD1C86C020010885F
:10ABFC00C005C00D0B689862C86C801CC86405E069
:10AC0C00C86C431CCB6400780B6898625220085ABD
:10AC1C00401E5223C852002000E0022000BD10B597
:10AC2C0004002068006840218843216808602020C7
:10AC3C00692160542000C046C046002010BDF8B504
:10AC4C0004005C20255A6A20205C222838D1206818
:10AC5C00406A0600A0688021490188420BD1206916
:10AC6C00002808D1606D0700280030403880606DE6
:10AC7C00801C606506E0606D411C616531002A0036
:10AC8C000A4002705A20205A401E5A21605280B24B
:10AC9C00002813D1206800680E490140206801602B
:10ACAC0020688068012188432168886020206A21FF
:10ACBC0060542000C046C046002008E0002006E09A
:10ACCC002068806908210143206881610220F2BD5F
:10ACDC0000000000DFFEFFFF10B50400002C01D1C6
:10ACEC0001203CE04120205C002805D100204021BF
:10ACFC006054200000F0E2F90220412160542068E9
:10AD0C0000680121884321680860200000F07CF86D
:10AD1C00012801D1012022E020684068204901402F
:10AD2C002068416020684068802109030143206845
:10AD3C004160206880682A218843216888602068E7
:10AD4C008068802149010143206881602068006887
:10AD5C000121014320680160200000F033F910BD8F
:10AD6C0010B50400002C01D1012017E00220412174
:10AD7C006054002021680860002021684860002091
:10AD8C0021688860200000F0C9F900206064002070
:10AD9C0041216054002040216054002010BD00006F
:10ADAC00FFBFFFFFF4B504000D001F00069E2068D6
:10ADBC00C0692840A84201D1012000E0002069466A
:10ADCC00097888421ED10020C0438642EFD0002E65
:10ADDC0004D0FEF7A5FCC01B8642E8D220680068B0
:10ADEC007649014020680160206880680121884311
:10ADFC00216888600120412160540020402160546A
:10AE0C00032000E00020F2BDF8B504000025102658
:10AE1C000020694688700027002069460880A068D9
:10AE2C0021690143606908438021090201430D0037
:10AE3C002068006862490140294320680160802035
:10AE4C00000105002900A069E56905430D432900AF
:10AE5C00206AE56805430D4320684068734901404A
:10AE6C002943206841602068714988421AD1714891
:10AE7C0000688007800F002805D0022806D008D370
:10AE8C00032809D00BE00120060038E00220060060
:10AE9C0035E00420060032E0082006002FE01020E8
:10AEAC0006002CE02068644988421BD16148006888
:10AEBC000C210140002906D004290AD0082905D00C
:10AECC000C2909D00BE00020060018E00220060037
:10AEDC0015E00420060012E0082006000FE0102008
:10AEEC0006000CE020685549884202D1002006007B
:10AEFC0005E020685249884201D100200600F6B2D4
:10AF0C003000002808D0012813D002281ED00428B5
:10AF1C0026D0082831D03BE0FFF72DFB0221484317
:10AF2C006168490840186168FDF7BBFF69460880F5
:10AF3C0031E0FFF72FFB02214843616849084018B4
:10AF4C006168FDF7AEFF6946088024E06068400840
:10AF5C003C4940186168FDF7A4FF694608801AE077
:10AF6C00FFF7A8FA02214843616849084018616854
:10AF7C00FDF797FF694608800DE060684008802166
:10AF8C00490240186168FDF78CFF6946088002E0B1
:10AF9C00012069468870684600882B4901400F00E3
:10AFAC006846008880B240084007400F38430700CD
:10AFBC00BFB22068C76068468078F2BD5FFEFFFFB5
:10AFCC00F369FFEF38B50400002500206064FEF73C
:10AFDC00A7FB05002068006800070DD5FA2080004B
:10AFEC0000902B000022802189032000FFF7DAFE5D
:10AFFC00002801D0032018E02068006840070DD518
:10B00C00FA20800000902B0000228021C903200030
:10B01C00FFF7C8FE002801D0032006E001204121E3
:10B02C006054002040216054002032BDFFC0FFFF5F
:10B03C00003801404C10024000440040004C0040DD
:10B04C00005000400048E801F0FF000080B53D488A
:10B05C000068012101433B4801603B4800688021A6
:10B06C004905014338480160002200210420C043F7
:10B07C00FFF771FC002200210120C043FFF76BFC9D
:10B08C00002200210020C043FFF765FC01BD00B584
:10B09C0001688022D205914205D12B490968012211
:10B0AC000A4329490A600168284A914205D1264978
:10B0BC00096802220A4324490A6000BD10B586B013
:10B0CC00040020682249884226D11E48006880214D
:10B0DC00C90101431B480160C020C0000090022040
:10B0EC0001900120029002200390042004906946F4
:10B0FC00A020C005FDF7F4FC802040000090022049
:10B10C0001900220029002200390042004906946D2
:10B11C00A020C005FDF7E4FC06B010BD10B504007E
:10B12C0020680B4988420BD1064800680949014048
:10B13C0004480160E021C900A020C005FDF7BEFD58
:10B14C0010BD0000341002403810024000040040D2
:10B15C0000380140FFBFFFFF38B504000025252053
:10B16C00205C022804D00420E0630120050043E0A9
:10B17C00206800680E2188432168086020680068F8
:10B18C00012188432168086020681D49884201D14B
:10B19C00012023E020681B49884201D110201DE0CA
:10B1AC0020681949884202D18020400016E02068AE
:10B1BC001649884202D1802040010FE020681449D2
:10B1CC00884202D18020400208E020681149884260
:10B1DC0002D18020400301E0802040040E49086029
:10B1EC00012025216054002024216054A06B0028EC
:10B1FC0002D02000A16B88472800C0B232BD0000ED
:10B20C00080002401C000240300002404400024092
:10B21C00580002406C000240040002400000211063
:10B22C00422063308440A550C660E77008812991A4
:10B23C004AA16BB18CC1ADD1CEE1EFF1311210024C
:10B24C0073325222B5529442F772D66239931883F4
:10B25C007BB35AA3BDD39CC3FFF3DEE36224433418
:10B26C0020040114E664C774A44485546AA54BB544
:10B27C0028850995EEE5CFF5ACC58DD553367226EC
:10B28C0011163006D776F6669556B4465BB77AA794
:10B29C0019973887DFF7FEE79DD7BCC7C448E55838
:10B2AC008668A7784008611802282338CCC9EDD9E4
:10B2BC008EE9AFF9488969990AA92BB9F55AD44A8C
:10B2CC00B77A966A711A500A333A122AFDDBDCCB34
:10B2DC00BFFB9EEB799B588B3BBB1AABA66C877C58
:10B2EC00E44CC55C222C033C600C411CAEED8FFD84
:10B2FC00ECCDCDDD2AAD0BBD688D499D977EB66E2C
:10B30C00D55EF44E133E322E511E700E9FFFBEEFD3
:10B31C00DDDFFCCF1BBF3AAF599F788F8891A98195
:10B32C00CAB1EBA10CD12DC14EF16FE18010A1007F
:10B33C00C230E3200450254046706760B98398936F
:10B34C00FBA3DAB33DC31CD37FE35EF3B1029012CF
:10B35C00F322D2323542145277625672EAB5CBA53B
:10B36C00A89589856EF54FE52CD50DC5E234C3241F
:10B37C00A01481046674476424540544DBA7FAB70F
:10B38C009987B8975FE77EF71DC73CD7D326F2366F
:10B39C009106B01657667676154634564CD96DC95B
:10B3AC000EF92FE9C899E9898AB9ABA944586548BF
:10B3BC0006782768C018E1088238A3287DCB5CDBAF
:10B3CC003FEB1EFBF98BD89BBBAB9ABB754A545A0F
:10B3DC00376A167AF10AD01AB32A923A2EFD0FED7B
:10B3EC006CDD4DCDAABD8BADE89DC98D267C076C5F
:10B3FC00645C454CA23C832CE01CC10C1FEF3EFF4F
:10B40C005DCF7CDF9BAFBABFD98FF89F176E367EAE
:10B41C00554E745E932EB23ED10EF01E1648006847
:10B42C008021490001431448016014480068144904
:10B43C0001401248016010480068124901400E4852
:10B44C00016011480068012188430F4908600A48CF
:10B45C0000680E49014008480160084800680C4922
:10B46C0001400648016000200A4908608020000560
:10B47C000949086070470000001002400C1002409F
:10B48C000C40FF88F6FFF6FE08100240FFFFFBFFA2
:10B49C00FFFF02FF1010024008ED00E0433A5C553C
:10B4AC00736572735C6A6368656E72795C446F6312
:10B4BC00756D656E74735C5472617661696C5C5306
:10B4CC006F6674735C44323332305F41524B45418A
:10B4DC005F583344444154415C7472756E6B5C53D9
:10B4EC0072635C4170705C6D61696E2E630000006C
:10B4FC00000002028002666C5F0A01400292F52095
:10B50C00009E091A40B07B9B01E38B408006100023
:10B51C00000000000040970000FF0000000498EAC3
:10B52C0075891500000000C8FF000000A80200008B
:10B53C0000000000000000000000000000000100FE
:10B54C0070B40121002213E00468001D0C4202D0EB
:10B55C004D466D1E64192260241D1B1F042BFAD24C
:10B56C0025009E0701D52280AD1C0B4000D02A700F
:10B57C000368001D002BE7D170BC704730B5016823
:10B58C004118446862088A188368E40701D54C4660
:10B59C001B19914201D10C3030BD0C7864B2491C9E
:10B5AC000D78491C1D705B1C002C02D5641CF9D154
:10B5BC00EFE7641EF4D5ECE710B507497944183170
:10B5CC00064C7C44163404E0081D0A688918884728
:10B5DC000100A142F8D110BD0800000024000000B9
:10B5EC0061FFFFFFF4140000801000200000000039
:10B5FC008DFFFFFFD0000000C800000000000020FD
:10B60C000120C046002801D0FFF7D6FF0020C0461D
:10B61C00C046FCF7D4FE00F000F880B500F002F84C
:10B62C0001BDFEE70746384600F002F8FBE7FEE7EF
:10B63C002021090326311820ABBEF9E7704700B56D
:10B64C00FEE77047704780B5FEF764F8FFF7A4F982
:10B65C0001BDFEE700000000000000000102030431
:10B66C0006070809014880470148004729B400082B
:10B67C008DB60008030406080C10182030000000DA
:10B68C00C046C046C046C046FFF7BAFF00000000E7
:10B69C0001020304020201000F0E07000202020065
:10B6AC00FEE7FEE7FEE7FEE7FEE7FEE7FEE7FEE766
:10B6BC00FEE7FEE7FEE7FEE7FEE7FEE7FEE7FEE756
:10B6CC00FEE7FEE7100008005000080050000400E0
:10B6DC0050F024002008F900041825002004F9007B
:10B6EC00043425002003F90004E424002003F900AD
:10B6FC0004E724002003F90004EA24002003F900E5
:10B70C0004ED24002003F9001380841E002784001C
:10B71C00084D8400086584000867840008FDFF0755
:08B72C0000FFFF30756400040A
:040000050800B68DAC
:00000001FF
